S00F000054657374456E642E737265635E
S11300000C9452060C946F060C946F060C946F06B5
S11300100C946F060C946F060C946F060C946F0688
S11300200C946F060C946F060C946F060C946F0678
S11300300C946F060C946F060C946F060C946F0668
S11300400C946F060C946F060C946F060C946F0658
S11300500C946F069F06A306A606AA06AD06B10673
S1130060B406B80600000000000000000000000014
S11300700000000000F80000000000000400000080
S113008000380800380800000000000000000040AC
S1130090E058E05800000D030D0301000060909843
S11300A09000000003020E0100000090A890404060
S11300B000000000020502000000C0202000000033
S11300C003040502050000000078000000000000A1
S11300D000000000000000E0180000000000071805
S11300E00000000018E000000000001807000000F5
S11300F00010D038D0100000000000000000808004
S113010080F08080800000000700000000000000F4
S11301100000000000180E02000000808080808033
S113012000000000000000000000000000000000CB
S113013000060600000000000080601800000806A9
S11301400100000000F0080808F0000003040404A3
S11301500300000008F80000000004040704040081
S1130160001008884830000006050404060000104A
S1130170084848B000000204040403000080403032
S113018008F80000010101050705000078484888C7
S1130190000002040404030000E050484888000002
S11301A003040404030000180808C8380000000011
S11301B00601000000B0484848B0000003040404ED
S11301C003000070888888F0000004040402010021
S11301D0000060600000000000060600000000004F
S11301E0006060000000000C060200008040402017
S11301F0101000000101020404000040404040408F
S113020000000101010101001010204040800004A1
S113021004020101000000002010906000000004AE
S11302200500000000F804C424F8000007080809C9
S113023005000000E818E0000004070501050704B4
S113024008F8484848B0000407040404030000F018
S113025008080818000003040404020008F8080849
S113026010E0000407040402010008F848E8081834
S113027000040704040406000008F848E80818000D
S113028004070400000000F00808889880000304B4
S11302900404030008F8484048F80804070400046C
S11302A00704000808F80808000004040704040010
S11302B000800808F808000003040403000008F89C
S11302C088C0281808040704000106040008F80878
S11302D00000000004070404070008F838C038F8D8
S11302E0080407040004070408F838C008F80804E0
S11302F007040106070000F0080808F000000304E2
S1130300040403000008F88888700000040704004F
S1130310000000F0080808F0000003040C0C0B00B7
S113032008F888888870000407040001020400307B
S1130330484850980000060204040300180808F80E
S11303400808180000040704000008F8080008F86A
S113035008000304040403000838C800C83808006F
S113036000010601000008F808C008F808000304AA
S113037003040300081820C0201808040601000123
S113038006040818688068180800000407040000C0
S1130390001808C828180000060504040600000018
S11303A0F80808000000001F10100000000870800A
S11303B0000000000000010E000000000808F80022
S11303C000000010101F0000004020182040000012
S11303D000000000000000000000000000202020B9
S11303E02020202000000008100000000000000071
S11303F000000040A0A0A0C00000030404040704FF
S113040008F8402020C0000407040404030000C0CE
S113041020202060000003040404020000C0202007
S113042048F8000003040404070400C0A0A0A0C00E
S113043000000304040404000020F028282800001D
S113044004070404040000C0202040E0200003143A
S113045014140F0008F8402020C00004070400040E
S11304600704002020E8000000000404070404003E
S113047000202028E00000001010100F000008F8F1
S113048080A060200004070005060400000008F8AE
S11304900000000004040704040020E020C020C081
S11304A0000407040704070420E0402020C00004DF
S11304B007040004070400C0202020C00000030437
S11304C00404030020E0402020C000101F14040492
S11304D0030000C0202040E02000030404141F1087
S11304E00020E04020200000040704040400004031
S11304F0A0A0A06000000604040403000020F02073
S11305002020000000030404040220E0000020E096
S1130510000003040402070420E0200020E020007F
S113052000030403000020E0208020E020000304F6
S1130530030403002060808060200004060101069B
S113054004002060A00020E0200010111E13000011
S1130550006020A0602000000605040406000000DE
S113056000F00800000000010E100000000000F878
S11305700000000000000F000000000008F0000070
S1130580000000100E010000000080000080000048
S1130590010001010000F808080808F80007040435
S11305A0040407001808F888584080000407040071
S11305B004030008F80A09083800040704000000CE
S11305C00000000000000000180E020000000020DF
S11305D0E02824E0000004070400010000000000FB
S11305E00000000008040A040200000000000000EB
S11305F00000040004000400002020F82020000073
S1130600000007000000002020F820200000010165
S113061007010100A0F0A8A8A8A81800010204047A
S113062004021068502020000000020502020502A6
S11306300008F808F848800604030407040300804F
S1130640402000000000010204000000F88880F847
S11306508880000704000704040308F848A211086E
S113066018040704000106041808F88858C000009C
S113067004070400070408F8080008F8080407043D
S11306801C04070410F85050408000040714101094
S11306900F000000000838600000000000000000A7
S11306A0006038080000000000000000000000089E
S11306B01028102000000000000000000020102876
S11306C0100800000000000000000000E0E0E0006E
S11306D00000000000000000008080808080000096
S11306E00000000000008080808080808000000086
S11306F000000000F808080808F8000704040404CF
S1130700070078487858205878000000000000005E
S113071020E020E0A0800004070007040700000098
S113072000204080000000000402010020E080E07E
S1130730A080000407000704070020E0A0C824608C
S1130740000407040001060410F85050408000041F
S113075007040004070420E0200020E0200407042C
S11307601C0407040000000000000000000000005A
S11307700000083849824A390800040601000000D4
S11307802060A40828E4200018110E030000008053
S11307900808F80800000304040300000010E02027
S11307A020E010000201010101020008F808080E0F
S11307B000000407040000000000007800000000AE
S11307C000001E0000000060B828488818000C08CB
S11307D0090A0E0308F84AE80A1800040704040486
S11307E00600C020D0505020C001020505050201BA
S11307F000F0484848180000030404040200000004
S11308008040008040000102040102040000000056
S11308100000000101010101010700808080808047
S11308200000000000000000C020F0B07020C001F3
S113083003050505020100080AF80A08000004047B
S11308400704040000001C141C0000000000000049
S11308500000808080F08080800404040704040485
S1130860000808F808080000040407040400002035
S113087020E8000000000404070404000020E02035
S11308802038000004070400000020E0000020E0FD
S113089000001F0404020704708888F808F80800A0
S11308A008080F000F080000C0C00000000000008E
S11308B00000000000C0A8A0A8C0000003040404B5
S11308C0040008F87088F80870040704030700019E
S11308D000C0A0A0206000000304040402004080C3
S11308E000408000000402010402010000202028CE
S11308F0E00000001010100F00000030484850982D
S113090000000602040403000040A0A0A060000050
S1130910060404040300002028E008000000040486
S1130920070404000000E818E000000407050105BE
S1130930070408F84848489800040704040403001E
S113094008F8484848B000040704040403000008F9
S1130950F8080808380004070400000008F808082C
S1130960F808001C070404071C0008F848E80818E5
S113097000040704040406000818A0F8A0180804DA
S11309800700070007040038104848B000000404BA
S11309900404030008F808C030F80804070300043E
S11309A0070408F809C232F908040703000407041D
S11309B008F848A0100818040704000106040008F9
S11309C0F80808F8080404030004070408F838C009
S11309D038F8080407040004070408F8484048F8F5
S11309E0080407040004070400F0080808F00000E5
S11309F003040404030008F8080808F808040704BA
S1130A00000407040008F888887000000407040044
S1130A10000000F0080808180000030404040200A1
S1130A20180808F80808180000040704000008382B
S1130A30488048380800040601000000C02028F857
S1130A402820C000010507050100081820C020184F
S1130A50080406010001060408F8080008F8080460
S1130A6007040404071C08F8080088F808000001BB
S1130A700104070408F800F800F808040704070450
S1130A80070408F800F800F8080407040704071C22
S1130A907808F8484040800004070404040308F878
S1130AA0488008F8080407040304070408F84840C9
S1130AB0408000040704040403000018484848F078
S1130AC0000002040404030008F848F00808F004D5
S1130AD00704030404030070888888F808040300EA
S1130AE0000407040040A0A0A0C000000304040404
S1130AF0070400F048282CC0000003040404030089
S1130B000020E0A0A0400000040704040700002027
S1130B10E02020E000000407040001000020E020A1
S1130B2020E0200C04070404070C00C0A0A0A0C00F
S1130B300000030404040400602040E0402060043A
S1130B400601070106040020A0A0A0400000040440
S1130B500404030020E0208040E020040702010494
S1130B60070420E0248848E4200407020104070461
S1130B7020E0A0C020600004070400010604002057
S1130B80E02020E0200604030004070420E0608045
S1130B9060E0200407040104070420E0A080A0E032
S1130BA0200407040004070400C0202020C0000023
S1130BB003040404030020E0202020E020040704B0
S1130BC00004070420E0402020C000101F14040487
S1130BD0030000C02020206000000304040402007D
S1130BE000E020E020E00000000407040000206092
S1130BF0A00020E0200018110E030000C02028F8F7
S1130C002020C00304141F1404032060808060208B
S1130C10000406010106040020E0200020E0200476
S1130C2007040404070C20E02000A0E020000101D8
S1130C300104070420E000E000E0200407040704A6
S1130C40070420E000E000E0200407040704070C88
S1130C50E020E0A08080000004070404030020E0FA
S1130C60A08020E0200407040704070420E0A080FB
S1130C7080000004070404040300006020A0A0C056
S1130C80000002040404030020E0A0C02020C004EB
S1130C9007040304040300C02020E020000406012C
S1130CA00507040011241FBECFE5D4E0DEBFCDBF8D
S1130CB010E0A0E6B0E0E0EAF4E102C005900D9295
S1130CC0A837B107D9F720E0A8E7B0E001C01D922A
S1130CD0A837B207E1F70E94160A0C944E0A0C9446
S1130CE00000FC01892B09F446C08181803179F42C
S1130CF087B3806B87BBC49A91818081892B928151
S1130D00892B9481892B9581892B8DB90DC0BE9A2D
S1130D1090818181892B80689281892B9481892B90
S1130D209581892B8DB97894E3818E2F90E088305A
S1130D30910508F5FC01E65DFF4F0C94480A709A92
S1130D408DB18DB908958DB18DB90895709A689A51
S1130D5069980895689A69980895709A6898699A44
S1130D6008956898699A08958DB183608DB908953E
S1130D708DB18C7F8DB90895C4988FB9779BFECFC0
S1130D808FB1C49A089591980E94BC060895823048
S1130D9019F0833021F00895BB9AC39A0895BB9A41
S1130DA0C3980895919A0E94BC060895CF93DF9347
S1130DB000D000D000D0CDB7DEB780E4898380E1D5
S1130DC08A831C821D821E821B82CE0101960E9490
S1130DD07106889A899A8A9A909892988FE19EE4EB
S1130DE00197F1F700C00000929A8FE19EE4019709
S1130DF0F1F700C0000081E10E94C3068FE19EE488
S1130E000197F1F700C000008AE30E94C30685E061
S1130E100E94D20686E30E94C30684E10E94D206A1
S1130E2089E20E94C306909A26960FB6F894DEBF14
S1130E300FBECDBFDF91CF9108950F931F93CF9332
S1130E40DF93082FD62F142FC22F8AE20E94C306E5
S1130E5080E00E94D206802F0E94D20680E00E9489
S1130E60D206812F0E94D2068BE20E94C30680E044
S1130E700E94D2068D2F0E94D20680E00E94D206E4
S1130E808C2F0E94D206DF91CF911F910F9108956C
S1130E90CF93DF93C42FD52F9098262F482F0E94ED
S1130EA01D078CE20E94C3068D2F0E94D2068C2F50
S1130EB00E94D206909ADF91CF9108959F92AF92AB
S1130EC0BF92CF92DF92EF92FF920F931F93CF9333
S1130ED0DF93D82F962EC42EE22E9098242F4E2DD9
S1130EE0682F892D0E941D078CE20E94C306D12C15
S1130EF08FEFC81AD80A8D2F90E08C159D05F4F455
S1130F00F12C8FEFE81AF80AA92CB12C13C0C92DC3
S1130F10812F0E94D206802F0E94D206CF5F2C2FF1
S1130F2030E02E153F05A4F3DF5F2D2F30E02C15A4
S1130F303D0524F4AE14BF0454F3F6CF909ADF9128
S1130F40CF911F910F91FF90EF90DF90CF90BF90C2
S1130F50AF909F9008953F924F925F926F927F92CD
S1130F608F929F92AF92BF92CF92DF92EF92FF92B5
S1130F700F931F93CF93DF937C01EB016901280149
S1130F80CA018E199F099C0122F422273327281BAA
S1130F90390BB6016C1B7D0BCB01992324F48827F4
S1130FA09927861B970B33243394821793070CF0ED
S1130FB0312C332041F0CE019927960133276A0161
S1130FC0A901E7017C01CC16DD0684F57E01FF242E
S1130FD03A016C187D0843011AF48FEF881A980AB5
S1130FE0959487944C155D05E4F1E6016A0100E0EF
S1130FF010E0AA24AA94BA2C03C0AA24AA94BA2C56
S1131000332019F06C2F8E2D02C06E2D8C2FA2016F
S11310100E944807801A910A22F4EA0CFB1C860CF1
S1131020971C2196CC16DD065CF71BC036016C1AA2
S11310307D0ACA018E199F098C0122F40027112709
S1131040081B190B430177201CF48FEF881A980AA8
S113105095948794E416F50684F6AA24A394B12CF7
S1131060CFCFDF91CF911F910F91FF90EF90DF9041
S1131070CF90BF90AF909F908F907F906F905F9034
S11310804F903F9008954F925F926F927F928F920C
S11310909F92AF92BF92CF92DF92EF92FF920F9303
S11310A01F93CF93DF93802E622E712C442E512CEC
S11310B0A62EB12CC82FD0E086019301A201B50160
S11310C0CE010E94AB07F12C912C9701A401B3012E
S11310D0C2010E94AB079701A401B501CE010E9491
S11310E0AB07DF91CF911F910F91FF90EF90DF90AD
S11310F0CF90BF90AF909F908F907F906F905F90B4
S11311004F9008952F923F924F925F926F927F92E9
S11311108F929F92AF92BF92CF92DF92EF92FF9203
S11311200F931F93CF93DF93CDB7DEB727970FB6F7
S1131130F894DEBF0FBECDBF462E3C832B83302EEA
S1131140C42ED12CEE24FF24EC18FD08EE0CFF1C59
S11311502FEFE21AF20A512C662E712CA82EB12C14
S113116022242A94280E8E5F8D83DF82CE82311052
S113117022C04B815C81DE80D40C6D2D922C950CA9
S1131180892D0E9448074B815C81C42C3E81C31A7F
S11311906C2D892D0E9448074B815C816D2DDD806B
S11311A0D5188D2D0E9448074B815C816C2D8D2DA7
S11311B00E94480723C0C52CD12CC5018C0D9D1D50
S11311C001970B811C818E809F80860C971C940153
S11311D0AC01B301EE81FF816E1B7F0B7A836983BF
S11311E00E94AB07C5018C199D0902960B811C81D5
S11311F09401AC0169817A810E94AB07FF209CF4C1
S11312008E819F818E0D9F1D880F991F019718163F
S113121019064CF05394852D90E0880F991F019680
S1131220E80EF91E2BC01E141F04CCF4C701851947
S11312309109880F991F01971816190684F48E8155
S11312409F8101979F838E8320E030E0281B390B18
S1131250C901880F991F0196E80EF91E0FC0539417
S1131260852D90E06E817F81861B970B880F991FD7
S1131270E80EF91E615071097F836E838E819F8110
S113128099230CF074CF27960FB6F894DEBF0FBEE7
S1131290CDBFDF91CF911F910F91FF90EF90DF9021
S11312A0CF90BF90AF909F908F907F906F905F9002
S11312B04F903F902F9008950F931F938C012FE729
S11312C04FE960E080E00E945E071F910F9108954E
S11312D06F927F928F929F92AF92BF92CF92DF9242
S11312E0EF92FF920F931F93CF93DF93982F862F44
S11312F0C42F822E932E909828E0290F4CE0460F9D
S1131300692F0E941D078CE20E94C3068C2F90E077
S11313108097880F991F6C01CC0CDD1CCC0CDD1C54
S1131320CC0CDD1C9601281B390BF901EC59FF4F3D
S11313307F0125593F4F6901712CA02EB12E19C090
S1131340F701D491C72DDD231CF06A2C8B2D02C02C
S1131350682C892DDD0F0E94D206862D0E94D206AC
S1131360CF5FC73081F7FFEFEF1AFF0AEC14FD04DB
S1131370B9F0F7013796C491CC0FCC0FD72DCC23FD
S11313801CF06A2C8B2D02C0682C892DCC0F0E9476
S1131390D206862D0E94D206DF5FD63081F7D0CFE9
S11313A0CDE0812F0E94D206802F0E94D206C15028
S11313B0C1F7909ADF91CF911F910F91FF90EF9019
S11313C0DF90CF90BF90AF909F908F907F906F9061
S11313D00895AF92BF92CF92DF92EF92FF920F9354
S11313E01F93CF93DF93C82FD62FFA0169015801B9
S11313F04081442381F07F018FEFE81AF80A8501C8
S113140096016D2F8C2F0E946809C85FF7014191E6
S11314107F014111F4CFDF91CF911F910F91FF9084
S1131420EF90DF90CF90BF90AF9008950E94D606C2
S113143082E00E94C7068FEF9FEF0E945C090FEFC6
S11314401FEF20E034E040E650E060E080E00E94DE
S1131450E90900E018EF20E548E268E284E10E942F
S11314605E07C12CDD24DA940F2EF0E5EF2EF02D6B
S11314700FE524E646E460E58DE20E94430801E0BE
S113148020E034E047E065E685E60E948208FFCF6D
S1131490EE0FFF1F0590F491E02D0994F894FFCF0F
S11314A0CDE0EAEEEDE5F62DF2EE20F0E0E1EEF22D
S10B14B0E0E5F2212121000016
S9030000FC
