S0150000546573744C4344417373656D622E7372656341
S11300000C942A000C943F000C943F000C943F0085
S11300100C943F000C943F000C943F000C943F0060
S11300200C943F000C943F000C943F000C943F0050
S11300300C943F000C943F000C943F000C943F0040
S11300400C943F000C943F000C943F000C943F0030
S11300500C943F0011241FBECFE5D4E0DEBFCDBF1A
S113006010E0A0E6B0E0E0E7F2E002C005900D92F7
S1130070AA36B107D9F70E941F010C9436010C94DB
S1130080000081B3806F81BB82B38F7082BB0895FF
S1130090929A82E08A95F1F700C092980895CF93DE
S11300A081B38F7081BB82B3806F82BB919A929A25
S11300B000000000C0B39298000000000E944800B5
S11300C000000000CC239CF39198CF910895CF9326
S11300D0DF93D82F0E9441009D2F92959F70CD2FC2
S11300E0CF7090FD949A969590FD959A969590FD73
S11300F0969A969509F0979A0E9448000E944100AA
S1130100D0FD949A8C2F869580FD959A869580FDD6
S1130110969A869509F0979A0E94480081B38F7049
S113012081BB82B38F7082BBDF91CF910895CF934F
S1130130C82F0E944F008C2F0E946700CF91089512
S1130140CF93C82F0E944F00909A8C2F0E94670073
S11301509098CF910895623031F0633031F061307E
S113016029F4805C03C08C5E01C08C5A80680E94B4
S113017097000895CF93DF93EC01862F642F0E949C
S1130180AB008881882331F021960E94A0008991D8
S11301908111FBCFDF91CF910895CF932FEF80E7AB
S11301A092E0215080409040E1F700C0000081B30C
S11301B0876081BB82B3887F82BB0E944100C3E019
S11301C082B3806382BB0E9448008FE097E201976C
S11301D0F1F700C00000C15099F70E944F000E943F
S11301E04100959A0E94480088E20E9497008CE0A2
S11301F00E94970086E00E94970082E00E94970088
S113020081E00E949700CF9108950F931F93CF939D
S1130210DF938B0180E40E949700E801085F1F4F81
S113022089910E946700C017D107D1F7DF91CF9160
S11302301F910F9108958FEF81BB12BA08950E9408
S11302401B010E94CD0040E060E080E690E00E9447
S1130250BA0062E080E00E94AB0066E070E080E0FB
S11302600E94050180E00E94A000FFCFF894FFCF18
S10D027048656C6C6F212121000029
S9030000FC
