:1000000093C0ADC0ACC0ABC0AAC0A9C0A8C0A7C0B7
:10001000A6C0A5C0A4C0A3C0A2C0A1C0A0C09FC0CC
:100020009EC09DC09CC06E616E00696E66000040FF
:100030007A10F35A00A0724E18090010A5D4E800F7
:1000400000E87648170000E40B54020000CA9A3B0F
:10005000000000E1F5050000809698000000404295
:100060000F000000A0860100000010270000000023
:10007000E803000000006400000000000A00000027
:1000800000000100000000002C76D888DC674F08D3
:1000900023DFC1DFAE59E1B1B796E5E3E453C63AD9
:1000A000E651997696E8E6C28426EB898C9B62ED50
:1000B000407C6FFCEFBC9C9F40F2BAA56FA5F4900A
:1000C000055A2AF75C936B6CF9676DC11BFCE0E481
:1000D0000D47FEF520E6B500D0ED902E03009435D7
:1000E00077050080841E080000204E0A000000C82A
:1000F0000C333333330F986E12831141EF8D21147B
:10010000893BE65516CFFEE6DB18D1844B381BF74A
:100110007C1D901DA4BBE424203284725E228100E9
:10012000C9F124ECA1E53D2711241FBECFE5D4E0A1
:10013000DEBFCDBF11E0A0E6B0E0EAEDF4E102C021
:1001400005900D92AE32B107D9F721E0AEE2B1E0F1
:1001500001C01D92A838B207E1F779D0BCC950CFD1
:100160005D9BFECF8CB90895FC0187811F928F9310
:1001700086811F928F9385811F928F9384811F9216
:100180008F9383811F928F9382811F928F9381819E
:100190001F928F9380811F928F938EE690E09F93A2
:1001A0008F9324D98DB79EB742960FB6F8949EBF11
:1001B0000FBE8DBF0895DF92EF92FF920F931F93B2
:1001C000CF93DF93CDB7DEB729970FB6F894DEBF94
:1001D0000FBECDBF8FEF8987E12CF12C8E01075F19
:1001E0001F4FDE2CBE016F5F7F4FC801BBD2298538
:1001F0002F3FF1F02E3FE1F0FE013196D701AA0F1B
:10020000BB1FAA0FBB1FAA0FBB1FA15DBE4F9191C1
:100210009D93E017F107D9F7D394222349F08FEF8C
:10022000E81AF80A8AE0E816F104D9F68AE0D82E2E
:100230008D2D29960FB6F894DEBF0FBECDBFDF918E
:10024000CF911F910F91FF90EF90DF900895CF9382
:10025000DF9300D0CDB7DEB780E690E090938501C4
:100260008093840182E087BB88BB14BA15BA81BB36
:1002700012BA10BC83E389B91BB888E08AB986E852
:1002800080BD97D298DF80932E011F928F9386E9CD
:1002900090E09F938F93AAD80F900F900F900F909C
:1002A00080912E01882309F451C0F12C3DE0232ECA
:1002B00031E0332E4DEB442E40E0542E54ED652EAC
:1002C00050E0752E6EE1862E61E0962E75EFA72E1A
:1002D00070E0B72EEEEDCE2EE0E0DE2E14C09130B1
:1002E00009F45BC0903161F48DE090E090D8C801D2
:1002F0003BDFDF92CF927AD80F900F9080912E0142
:10030000F394F81618F50F2D10E0000F111F000FD1
:10031000111F000F111F015D1E4FF80190819431D4
:1003200009F448C0E0F2983291F09A3349F78DE031
:1003300090E06DD8C80118DF9F928F9257D80F9028
:100340000F9080912E01F394F816E8F2FFCF8DE024
:1003500090E05DD8C80108DF5F924F9247D8C8018E
:1003600036D060E273E080E090E026D2BE016F5F9D
:100370007F4FC80162D0CE010196CAD09F938F9360
:100380007F936F937F926F9231D80FB6F894DEBF50
:100390000FBECDBF80912E01B3CF8DE090E037D856
:1003A000C801E2DEBF92AF9221D80F900F908091EA
:1003B0002E01A6CF8DE090E02AD8C801D5DE3F926D
:1003C0002F9214D80F900F9080912E0199CFCF9338
:1003D000DF93EC0104D1882351F0209761F0CE0126
:1003E000CAD184E43BD181E0DF91CF91089580E0D0
:1003F000DF91CF9108958CEC31D1F3CF6115710568
:10040000D1F0FC01680F791F80E048E1219198E06C
:1004100004C086952695915051F0322F382730FF31
:10042000F8CF84278695806826959150B1F7E61716
:10043000F70761F7089580E00895AF92BF92CF92D9
:10044000DF92EF92FF920F931F93CF93DF93CDB77D
:10045000DEB72A970FB6F894DEBF0FBECDBF8C0172
:100460005B01BDD0882309F44EC00115110509F4C4
:100470004CC0C80180D18EEBF1D0CC24C394D12CD8
:10048000CC0EDD1E8AE0F60111928A95E9F781E033
:10049000898382E08A8383E08B8384E08C8385E098
:1004A0008D8386E08E8387E08F8388E0888789E06C
:1004B000898786017E01FAE0EF0EF11CEBD0F8018E
:1004C00081938F01EE15FF05C9F78981F5018083BE
:1004D0008A81818369E070E0C60190DF91E081113B
:1004E00012C0892F2A960FB6F894DEBF0FBECDBF7B
:1004F000DF91CF911F910F91FF90EF90DF90CF9000
:10050000BF90AF90089590E0ECCF8CECA7D0B3CF24
:10051000CF92DF92EF92FF92CF93FC013081218145
:10052000822F8770F0E18F9FC0011124932F929545
:100530009F70982B832F8F70C82FCC0FC80FCC0FB4
:100540002C3F30F16FE7691B70E080E090E071D5DF
:100550006B017C016C2F70E080E090E068D520E0BA
:1005600030E048EC52E4FBD49B01AC01C701B6017A
:1005700092D4AB01BC01DB01CA01B058682F792FBE
:100580008A2F9B2FCF91FF90EF90DF90CF9008950F
:10059000692F70E080E090E04CD56B017C016C2FFE
:1005A00070E080E090E043D520E030E048EC52E499
:1005B000D6D49B01AC01C701B6016DD4472F382FAB
:1005C000292F862F942FA32FB22FD8CFC098B89A57
:1005D0000895811103C0C098B8980895F7CFF6DF49
:1005E0008FEB93E00197F1F700C0000080E0F1DFAE
:1005F00090EA9A95F1F786B3E7E4F3E03197F1F7E3
:1006000000C00000809581700895CF93DF931F9202
:10061000CDB7DEB78983DADF92E09A95F1F700C0B3
:100620008981882311F080E0D4DFE0EAEA95F1F7D0
:1006300080E00F90DF91CF91CCCFC8DF82E08A9528
:10064000F1F700C080E0C5DF95E29A95F1F7000070
:1006500086B398E79A95F1F781700895FF920F930A
:100660001F93CF93DF93F82EC0E0D0E001E010E0BD
:10067000C8010C2E01C0880F0A94EAF78F21C5DF4C
:100680002196C830D105A1F7DF91CF911F910F912D
:10069000FF900895FF920F931F93CF93DF93C0E0D5
:1006A000D0E0F12C01E010E0C8DF882339F0980198
:1006B0000C2E01C0220F0A94EAF7F22A2196C830C4
:1006C000D10591F78F2DDF91CF911F910F91FF9061
:1006D0000895DF92EF92FF920F931F93CF93DF93D2
:1006E000D82EEB017CDF81110BC0EE24EA948E2D15
:1006F000DF91CF911F910F91FF90EF90DF900895C0
:1007000080EFACDFE12C10E498EFF92EF10E0AC077
:10071000011125C080E079DF98819695988311506A
:100720001F15C9F08ADF082F88DF8111F1CF011171
:1007300009C01D1528F0888180FFECCFD11651F338
:10074000E12E01E0802F61DF988196959068988373
:1007500011501F11E7CF21961111D6CFC8CF8EEFC0
:10076000E82EC5CFCF93DF93EC018881B2DF888379
:10077000DF91CF9108950F931F93CF93DF93182F9D
:10078000092F2DDF811106C080E0DF91CF911F91ED
:100790000F91089585E562DFC12FD02F18E0899170
:1007A0005DDF1150E1F781E0DF91CF911F910F9153
:1007B000089583E083BF089561507109810991090B
:1007C00028F012BE22B72D37E8F3F6CF0895A2E144
:1007D000B0E0ECEEF3E0B9C47C011B016A01FC015E
:1007E00017821682838181FD03C04EC3650105C057
:1007F00088248394912C8C0E9D1EF7019381F10126
:1008000093FD859193FF81911F01882309F438C3DB
:10081000853239F493FD859193FF81911F018532D3
:1008200029F4B70190E0B6D55601E0CF712C612CC8
:1008300020E02032A8F48B3261F028F4803251F0AD
:10084000833271F40BC08D3239F0803349F421606A
:1008500028C02260246025C0286023C0206121C0F8
:1008600027FD27C0382F30533A3078F426FF06C0D2
:10087000FAE07F9E300D1124732E13C04AE0649E6F
:10088000300D1124632E20620CC08E3221F426FD1F
:10089000F7C2206406C08C3611F4206802C0883686
:1008A00041F4F10193FD859193FF81911F01811125
:1008B000C0CF982F9554933018F42061805E06C005
:1008C000982F9556933008F094C12F7E26FD02C0D4
:1008D00016E0712EBFE35B2E5222853619F4F0E448
:1008E0005F2A07C0863619F440E8542A02C0711006
:1008F0007A9457FE07C05BE3571548F0472C4394A2
:1009000027E00DC087E0871530F0272D07C027E0CE
:10091000ACE34A2E04C027E0F7E07F2E412C5601BD
:1009200094E0A90EB11CF6016081718182819381EE
:10093000042DA40141D48C0149814C8740FF02C0A1
:1009400043FF07C051FC08C052FE09C0E0E2DE2EA2
:1009500007C07DE2D72E04C06BE2D62E01C0D12C99
:100960008C858C7089F1DD2011F084E001C083E07A
:10097000861510F0612C0AC0681A53FC07C0B70135
:1009800080E290E007D56A94D1F7F4CFDD2021F022
:10099000B7018D2D90E0FED45C8553FD03C00AE2C3
:1009A00010E00BC006E210E008C051108052B70101
:1009B00090E0F0D40F5F1F4F02C080E15822F80191
:1009C00084918111F2CF59C257FE0EC0400E4C8562
:1009D00044FF04C08A81813309F44A9414144CF50D
:1009E00058E0541548F12CC056FC2AC0872D90E0E1
:1009F0008017910744F00C3F8FEF180724F090E820
:100A0000592A01C07A94772049F0E2E0F0E0EC0F37
:100A1000FD1FE70DF11D80818033A1F357FE10C04B
:100A2000472C4394872D90E00817190744F4701A57
:100A300007C04424439404C058E0452E01C0712CE3
:100A400057FE07C0101611063CF498012F5F3F4F68
:100A500005C025E030E002C021E030E0DD2011F0EB
:100A60002F5F3F4F772031F0472D50E04F5F5F4FB2
:100A7000240F351F462D50E02417350714F4621A51
:100A800001C0612C852D897041F405C0B70180E259
:100A900090E080D46A946110F9CFDD2021F0B70195
:100AA0008D2D90E077D453FC08C005C0B70180E3DA
:100AB00090E070D46A946110F9CF57FE54C0680179
:100AC00017FF02C0C12CD12C20E030E0A80144194E
:100AD00051095E874D8728014C185D08480C591C48
:100AE000872D90E044275527481B590B588B4F877B
:100AF0005FEFC516D50641F4B7018EE290E02A8B70
:100B0000398B48D439892A890C151D0554F04D8537
:100B10005E854C155D052CF4F201E20FF31F818117
:100B200001C080E351E0C51AD1082F5F3F4F4F85C8
:100B30005889C416D50644F0B70190E02A8B398B4A
:100B400029D42A893989D4CFC016D10649F49A818B
:100B5000963328F4953321F45C8554FD01C081E37C
:100B6000B70190E044C08A81813319F04C854F7EF3
:100B70004C87B70190E00ED4711005C054FE14C02C
:100B800085E490E013C0B7018EE290E003D442E028
:100B9000D42EF401ED0DF11DD394B701808190E0C6
:100BA000F9D37A94B1F7EACF85E690E0B701F2D3B2
:100BB00017FD06C00115110541F45C8554FF05C001
:100BC0001195019511098DE201C08BE2B70190E00A
:100BD000E1D380E303C08F5F0A5011090A30110589
:100BE000D4F7B70190E0D6D3B701C801C096D2D3ED
:100BF00044C1833631F0833781F0833509F05AC020
:100C000023C0560182E0A80EB11CF60180818983C1
:100C1000CC24C394D12C840113C05601F2E0AF0E52
:100C2000B11CF6010081118126FF03C0672D70E021
:100C300002C06FEF7FEFC8012A8BA1D36C012A8914
:100C40009FE7592E522216C05601F2E0AF0EB11C9A
:100C5000F6010081118126FF03C0672D70E002C0FC
:100C60006FEF7FEFC8012A8B7FD36C012A8980E860
:100C7000582E522A53FC1AC005C0B70180E290E0FA
:100C800089D36A94862D90E0C816D906B0F30EC0B9
:100C9000F80157FC859157FE81918F01B70190E0D3
:100CA00079D361106A94F1E0CF1AD108C114D1044C
:100CB00079F7E3C0843611F0893649F5560127FFEC
:100CC00009C044E0A40EB11CF601608171818281EB
:100CD00093810AC0F2E0AF0EB11CF6016081718110
:100CE000882777FD8095982F122F1F7697FF08C0D1
:100CF00090958095709561957F4F8F4F9F4F1068AD
:100D00002AE030E0A40189D3D82ED8183FC0122F92
:100D1000853721F41F7E2AE030E01FC0197F8F360F
:100D2000A1F020F4883509F0ABC00BC0803721F06A
:100D3000883709F0A5C001C0106114FF09C0146014
:100D400007C024FF08C0166006C028E030E005C0D8
:100D500020E130E002C020E132E0560117FF09C077
:100D6000F4E0AF0EB11CF601608171818281938144
:100D700008C0F2E0AF0EB11CF6016081718180E025
:100D800090E0A4014AD3D82ED8181F7716FF0BC0C5
:100D9000212F2E7FD71450F414FF0AC012FD08C073
:100DA000212F2E7E05C00D2D212F03C00D2D01C03A
:100DB000072D24FF0CC0FE01ED0DF11D8081803355
:100DC00011F4297E08C022FF05C00E5F04C0822FE7
:100DD000867809F00F5F23FD13C020FF0EC07D2C25
:100DE000061558F4760C701A062D07C0B70180E27C
:100DF00090E02A8BCFD20F5F2A890615B8F304C082
:100E0000061510F4601A01C0612C24FF11C0B7014F
:100E100080E390E02A8BBED22A8922FF1CC021FFEA
:100E200003C088E590E002C088E790E0B7010CC0FD
:100E3000822F867881F021FD02C080E201C08BE222
:100E400027FD8DE2B70190E0A5D205C0B70180E390
:100E500090E0A0D27A94D714C8F3DA94F401ED0D9F
:100E6000F11DB701808190E095D2D110F6CF05C079
:100E7000B70180E290E08ED26A946110F9CFB6CCCF
:100E8000F7012681378102C02FEF3FEFC90162963B
:100E9000E2E177C15058BB27AA270ED01CC10DD163
:100EA00030F012D120F031F49F3F11F41EF402C152
:100EB0000EF4E095E7FBF8C0E92F1ED180F3BA17D6
:100EC000620773078407950718F071F49EF536C121
:100ED0000EF4E0950B2EBA2FA02D0B01B901900155
:100EE0000C01CA01A0011124FF27591B99F0593F99
:100EF00050F4503E68F11A16F040A22F232F342FE1
:100F00004427585FF3CF469537952795A795F0402E
:100F10005395C9F77EF41F16BA0B620B730B840B43
:100F2000BAF09150A1F0FF0FBB1F661F771F881FFB
:100F3000C2F70EC0BA0F621F731F841F48F4879553
:100F400077956795B795F7959E3F08F0B3CF939542
:100F5000880F08F09927EE0F9795879508950CD084
:100F6000BAC0B2D040F0A9D030F021F45F3F19F000
:100F70009BC05111E4C09EC0BFD098F39923C9F320
:100F80005523B1F3951B550BBB27AA27621773078F
:100F9000840738F09F5F5F4F220F331F441FAA1F43
:100FA000A9F333D00E2E3AF0E0E830D09150504003
:100FB000E695001CCAF729D0FE2F27D0660F771FB1
:100FC000881FBB1F261737074807AB07B0E809F093
:100FD000BB0B802DBF01FF2793585F4F2AF09E3F28
:100FE000510568F061C0ABC05F3FECF3983EDCF3A5
:100FF000869577956795B795F7959F5FC9F7880FA1
:10100000911D9695879597F90895E1E0660F771FF2
:10101000881FBB1F621773078407BA0720F0621B83
:10102000730B840BBA0BEE1F88F7E0950895E894D4
:1010300009C097FB3EF490958095709561957F4F20
:101040008F4F9F4F9923A9F0F92F96E9BB279395CE
:10105000F695879577956795B795F111F8CFFAF4DE
:10106000BB0F11F460FF1BC06F5F7F4F8F4F9F4F0F
:1010700016C0882311F096E911C0772321F09EE86D
:10108000872F762F05C0662371F096E8862F70E0D3
:1010900060E02AF09A95660F771F881FDAF7880FAD
:1010A0009695879597F9089597F99F6780E870E07E
:1010B00060E008959FEF80EC089500240A941616CE
:1010C000170618060906089500240A941216130636
:1010D000140605060895092E0394000C11F48823C4
:1010E00052F0BB0F40F4BF2B11F460FF04C06F5FE0
:1010F0007F4F8F4F9F4F089557FD9058440F551FB6
:1011000059F05F3F71F04795880F97FB991F61F089
:101110009F3F79F087950895121613061406551F00
:10112000F2CF4695F1DF08C0161617061806991F6C
:10113000F1CF86957105610508940895E894BB2761
:1011400066277727CB0197F908952F923F924F9208
:101150005F926F927F928F929F92AF92BF92CF9247
:10116000DF92EF92FF920F931F93CF93DF93CDB750
:10117000DEB7CA1BDB0B0FB6F894DEBF0FBECDBFC8
:1011800009942A88398848885F846E847D848C8499
:101190009B84AA84B984C884DF80EE80FD800C81A2
:1011A0001B81AA81B981CE0FD11D0FB6F894DEBF85
:1011B0000FBECDBFED010895283008F027E033279A
:1011C000DA01990F311D87FD916000966105710567
:1011D00039F432602E5F3D9330E32A95E1F70895AC
:1011E0009F3F30F080387105610509F03C5F3C5F3E
:1011F0003D93913008F08068911DDF93CF931F934A
:101200000F93FF92EF92192F987F9695E92F96955D
:101210009695E90FFF27E857FF4F99273327EE24CC
:10122000FF24A701E70105900894079428F4360FDE
:10123000E71EF81E491F511D660F771F881F991F53
:101240000694A1F70590079428F4E70EF81E491FAD
:10125000561FC11D770F881F991F661F0694A1F79F
:101260000590079428F4F80E491F561FC71FD11D7B
:10127000880F991F661F771F0694A1F705900794A2
:1012800020F4490F561FC71FD81F990F661F771FDD
:10129000881F0694A9F784911095177041F0D69590
:1012A000C79557954795F794E7941A95C1F7EEE2DD
:1012B000F0E06894159015913591659195910590A0
:1012C0007FE27395E118F10A430B560BC90BD00965
:1012D000C0F7E10CF11E431F561FC91FD01D7EF43D
:1012E000703311F48A95E6CFE894015030F0080F7E
:1012F0000AF40027021708F4202F2395022F7A33CF
:1013000028F079E37D932A95E9F710C07D932A951B
:1013100089F6069497956795379517951794E11870
:10132000F10A430B560BC90BD00998F023957E9117
:1013300073957A3308F070E37C932013B8F77E91AD
:1013400070617D9330F0839571E37D9370E32A950E
:10135000E1F71124EF90FF900F911F91CF91DF9152
:10136000992787FD90950895FC0105906150704084
:101370000110D8F7809590958E0F9F1F0895FC015E
:101380006150704001900110D8F7809590958E0FB4
:101390009F1F08950F931F93CF93DF938C01EB0151
:1013A0008B8181FD03C00FEF1FEF1AC082FF0DC0BC
:1013B0002E813F818C819D812817390764F4E88153
:1013C000F9810193F983E88306C0E885F985802FC8
:1013D0000995892B41F78E819F8101969F838E838A
:1013E000C801DF91CF911F910F910895A0E0B0E067
:1013F000EBEFF9E0BACEFE01359661917191AF0144
:101400008091840190918501E2D9E2E0CACE609199
:10141000840170918501BEDF0895FA01AA27283062
:1014200051F1203181F1E8946F936E7F6E5F7F4FB1
:101430008F4F9F4FAF4FB1E03ED0B4E03CD0670F2D
:10144000781F891F9A1FA11D680F791F8A1F911D80
:10145000A11D6A0F711D811D911DA11D20D009F4D0
:1014600068943F912AE0269F11243019305D319312
:10147000DEF6CF010895462F4770405D4193B3E0FB
:101480000FD0C9F7F6CF462F4F70405D4A3318F0A2
:10149000495D31FD4052419302D0A9F7EACFB4E053
:1014A000A6959795879577956795BA95C9F700970B
:1014B0006105710508959B01AC010A2E06945795AC
:1014C000479537952795BA95C9F7620F731F841F03
:0A14D000951FA01D0895F894FFCFAA
:1014DA000000000200000000B00000000000252EFD
:1014EA00325820252E325820252E325820252E32C9
:1014FA005820252E325820252E325820252E325893
:10150A0020252E3258002D2D2D2D2D2D2D2D2D2D12
:10151A0020466F756E64202564206465766963656C
:10152A0073202D2D2D2D2D2D2D2D2D2D00202D20EF
:10153A00546865726D6F6D657465722044533138F5
:10154A00423230003A2025332E3266204300202DC5
:10155A0020546865726D6F6D6574657220445331ED
:10156A003853323000202D2053657269616C206235
:10157A007574746F6E2044533139393000202D2030
:10158A00454550524F4D2044533234333000202DBC
:0E159A002053776974636820323431330000C7
:00000001FF
