:1000000093C0ADC0ACC0ABC0AAC0A9C0A8C0A7C0B7
:10001000A6C0A5C0A4C0A3C0A2C0A1C0A0C09FC0CC
:100020009EC09DC09CC06E616E00696E66000040FF
:100030007A10F35A00A0724E18090010A5D4E800F7
:1000400000E87648170000E40B54020000CA9A3B0F
:10005000000000E1F5050000809698000000404295
:100060000F000000A0860100000010270000000023
:10007000E803000000006400000000000A00000027
:1000800000000100000000002C76D888DC674F08D3
:1000900023DFC1DFAE59E1B1B796E5E3E453C63AD9
:1000A000E651997696E8E6C28426EB898C9B62ED50
:1000B000407C6FFCEFBC9C9F40F2BAA56FA5F4900A
:1000C000055A2AF75C936B6CF9676DC11BFCE0E481
:1000D0000D47FEF520E6B500D0ED902E03009435D7
:1000E00077050080841E080000204E0A000000C82A
:1000F0000C333333330F986E12831141EF8D21147B
:10010000893BE65516CFFEE6DB18D1844B381BF74A
:100110007C1D901DA4BBE424203284725E228100E9
:10012000C9F124ECA1E53D2711241FBECFE5D4E0A1
:10013000DEBFCDBF10E0A0E6B0E0E8EDF1E102C027
:1001400005900D92A43AB107D9F721E0A4EAB0E0F6
:1001500001C01D92A834B207E1F702D13BC850CFCD
:10016000813069F48AE097EDA3E2B0E48093A400C3
:100170009093A500A093A600B093A70008958230A5
:1001800069F43E9A86B1876886B9369A4093A4008E
:100190005093A5006093A6007093A700089597B1AF
:1001A000907F892B87B98AE18A95F1F700C0369A4A
:1001B000349BFECF84B195B1089581B3806F81BB2C
:1001C00082B38F7082BB0895929A82E08A95F1F78C
:1001D00000C092980895CF9381B38F7081BB82B392
:1001E000806F82BB919A929A00000000C0B39298EF
:1001F00000000000E9DF00000000CC23A4F3919888
:10020000CF910895CF93DF93D82FD7DF9D2F92956D
:100210009F70CD2FCF7090FD949A969590FD959AF2
:10022000969590FD969A969509F0979ACDDFC5DF41
:10023000D0FD949A8C2F869580FD959A869580FDA9
:10024000969A869509F0979ABFDF81B38F7081BB2C
:1002500082B38F7082BBDF91CF910895CF93C82F67
:10026000BADF8C2FCFDFCF910895CF93C82FB3DFA4
:10027000909A8C2FC7DF9098CF910895623031F01B
:10028000633031F0613029F4805C03C08C5E01C0C2
:100290008C5A8068E3DF0895CF93DF93EC01862FBB
:1002A000642FECDF8881882329F02196DEDF899195
:1002B0008111FCCFDF91CF910895CF932FEF80E78D
:1002C00092E0215080409040E1F700C0000081B3EF
:1002D000876081BB82B3887F82BB6FDFC3E082B35C
:1002E000806382BB71DF8FE097E20197F1F700C076
:1002F0000000C150A1F76FDF60DF959A65DF88E2EB
:10030000ADDF8CE0ABDF86E0A9DF82E0A7DF81E034
:10031000A5DFCF91089543DFBC0180E090E031D1AB
:1003200020E030E040EA50E4BAD12AE037ED43E281
:1003300051E4BFD0089533DF8D3221E0920750F0B1
:100340009C012D5231402039314030F08D3B92409C
:1003500028F4089580E0089581E0089582E00895EA
:1003600040E050E060EA70E482E0FADEA6DF06E6F4
:1003700010E0C8EFD0E00F2EF0E9AF2EF0E0BF2E76
:10038000F02D0F2EF8EAEF2EF0E0FF2EF02D0F2EBD
:10039000F1E9CF2EF0E0DF2EF02D40E060E080E6C6
:1003A00090E07ADF81E0B7DF9F938F937F936F9325
:1003B0001F930F93DF93CF938FD641E061E0CE017F
:1003C0006BDF83E0A8DF9F938F937F936F931F93DF
:1003D0000F93DF93CF9380D642E061E0CE015CDFE4
:1003E00086E0A9DF2DB73EB7205F3F4F0FB6F894E8
:1003F0003EBF0FBE2DBF811119C043E060E082E710
:1004000090E04ADF86E097DF1F928F93DF92CF92D2
:10041000FF92EF9261D643E06DE0C7013DDF0F90A0
:100420000F900F900F900F900F9039C086E083DFF0
:100430008230C9F443E060E081E890E02DDF86E09F
:100440007ADF1F928F93BF92AF92FF92EF9244D6C2
:1004500043E06DE0C70120DF0F900F900F900F90E9
:100460000F900F901CC086E066DF8130C1F443E03E
:1004700060E084E990E010DF86E05DDF1F928F93FB
:10048000BF92AF92FF92EF9227D643E06DE0C70193
:1004900003DF0F900F900F900F900F900F903FEF92
:1004A00081EE94E0315080409040E1F700C00000C0
:1004B00074CF0CD0BAC0B2D040F0A9D030F021F443
:1004C0005F3F19F09BC05111E4C09EC0BFD098F3AC
:1004D0009923C9F35523B1F3951B550BBB27AA27C5
:1004E00062177307840738F09F5F5F4F220F331F37
:1004F000441FAA1FA9F333D00E2E3AF0E0E830D003
:1005000091505040E695001CCAF729D0FE2F27D005
:10051000660F771F881FBB1F261737074807AB07D3
:10052000B0E809F0BB0B802DBF01FF2793585F4F48
:100530002AF09E3F510568F061C0ABC05F3FECF30D
:10054000983EDCF3869577956795B795F7959F5F0D
:10055000C9F7880F911D9695879597F90895E1E061
:10056000660F771F881FBB1F621773078407BA07C0
:1005700020F0621B730B840BBA0BEE1F88F7E0951B
:100580000895E89409C097FB3EF490958095709586
:1005900061957F4F8F4F9F4F9923A9F0F92F96E9CF
:1005A000BB279395F695879577956795B795F11144
:1005B000F8CFFAF4BB0F11F460FF1BC06F5F7F4FE1
:1005C0008F4F9F4F16C0882311F096E911C07723F3
:1005D00021F09EE8872F762F05C0662371F096E8FC
:1005E000862F70E060E02AF09A95660F771F881FCB
:1005F000DAF7880F9695879597F9089597F99F6789
:1006000080E870E060E008959FEF80EC089500249A
:100610000A941616170618060906089500240A9467
:1006200012161306140605060895092E0394000CED
:1006300011F4882352F0BB0F40F4BF2B11F460FF7C
:1006400004C06F5F7F4F8F4F9F4F089557FD9058A5
:10065000440F551F59F05F3F71F04795880F97FB86
:10066000991F61F09F3F79F0879508951216130640
:100670001406551FF2CF4695F1DF08C0161617066F
:100680001806991FF1CF86957105610508940895A4
:10069000E894BB2766277727CB0197F908950BD0FD
:1006A000C4CFB5DF28F0BADF18F0952309F0A6CF44
:1006B000ABCF1124EECFCADFA0F3959FD1F3950FF6
:1006C00050E0551F629FF001729FBB27F00DB11DD6
:1006D000639FAA27F00DB11DAA1F649F6627B00D66
:1006E000A11D661F829F2227B00DA11D621F739F4F
:1006F000B00DA11D621F839FA00D611D221F749F5D
:100700003327A00D611D231F849F600D211D822FA3
:10071000762F6A2F11249F5750408AF0E1F08823EA
:100720004AF0EE0FFF1FBB1F661F771F881F9150F7
:100730005040A9F79E3F510570F060CFAACF5F3FB0
:10074000ECF3983EDCF3869577956795B795F7952A
:10075000E7959F5FC1F7FE2B880F911D96958795B2
:1007600097F90895A3E1B0E0E7EBF3E058C36C011B
:100770004B012A01FC0117821682838181FF29C364
:10078000AE014F5F5F4F3A01F6019381F40193FD93
:10079000859193FF81914F01882309F416C3853217
:1007A00039F493FD859193FF81914F01853231F4A6
:1007B000B60190E059D452012501E6CF10E0F12CAA
:1007C00020E02032A0F48B3269F030F4803259F00E
:1007D000833269F420612CC08D3239F0803339F4D2
:1007E000216026C02260246023C0286021C027FD2C
:1007F00027C030ED380F3A3078F426FF06C0FAE013
:100800001F9F300D1124132F13C04AE0F49E300DAA
:100810001124F32E20620CC08E3221F426FDD5C2A5
:10082000206406C08C3611F4206802C0883641F47A
:10083000F40193FD859193FF81914F018111C1CF07
:100840009BEB980F933018F42061805E06C09BE903
:10085000980F933008F064C12F7E26FF16E02F73A7
:10086000322E853619F42064322E08C0863621F4E3
:10087000F22FF0683F2E02C01111115037FE07C051
:100880001C3350F4EE24E394E10E27E00BC0183043
:1008900038F027E017E005C027E04CE3E42E02C063
:1008A000212FE12C520144E0A40EB11CF201608121
:1008B0007181828193810E2DA301E8D22C010981DF
:1008C00000FF02C003FF07C031FC08C032FE09C0B0
:1008D00030E2232E07C02DE2222E04C09BE2292EF7
:1008E00001C0212C802F8C7019F0211051C28DC2B3
:1008F00037FE0FC0E40C04FF04C08A81813309F481
:10090000EA941E1474F5F8E0FE1578F588E0E82EF8
:100910002CC036FC2AC0812F90E0841595059CF0F0
:100920002CEF42162FEF520674F0432D4068342E00
:100930000AC0E2E0F0E0EC0FFD1FE10FF11D808145
:10094000803319F411501111F4CF37FE0EC0EE248C
:10095000E394E10E812F90E0481659062CF4141907
:1009600004C0EE24E39401C010E037FE06C0141466
:10097000150434F4C201019605C085E090E002C080
:1009800081E090E021100196112331F0212F30E019
:100990002F5F3F4F820F931F2F2D30E08217930759
:1009A00014F4F81A01C0F12C832D897041F4FF2052
:1009B00031F0B60180E290E057D3FA94F8CF2220CC
:1009C00021F0B601822D90E04FD333FC08C0FF2008
:1009D00031F0B60180E390E047D3FA94F8CF37FEC8
:1009E00058C0942D852D57FE02C090E080E0292E3E
:1009F000382E20E030E0A2014E1951095D874C8766
:100A0000A201421953095F874E87612F70E0442786
:100A10005527461B570B598B488B5FEF251635061C
:100A200041F4B6018EE290E02A8B3B8B1DD33B89CB
:100A30002A89421453046CF04C855D854215530598
:100A400044F4EE85FF85E20FF31FE60DF71D81816B
:100A500001C080E351E0251A31082F5F3F4F4889DC
:100A600059892416350644F0B60190E02A8B3B8B59
:100A7000FBD22A893B89D1CF2414350439F49A81D9
:100A8000963318F4953311F404FF81E3B60190E036
:100A900045C08A81813309F00F7EB60190E0E4D22F
:100AA000111105C034FC16C085E690E015C0B601F2
:100AB0008EE290E0D9D282E0EE24E394E80EF301D6
:100AC000E80FF11D8081B60190E0CED211508E2D3D
:100AD00099F7E8CF85E490E0B601C6D257FC05C08F
:100AE0004114510439F404FF05C051944194510854
:100AF0008DE201C08BE2B60190E0B6D280E39AE0CD
:100B0000491651042CF08F5F5AE0451A5108F7CF6F
:100B1000B60190E0A9D2B601C201C096A5D24CC1DF
:100B2000833631F0833779F0833509F054C020C023
:100B30005201E2E0AE0EB11CF2018081898301E036
:100B400010E0230113C05201F2E0AF0EB11CF2011C
:100B50004080518026FF03C0612F70E002C06FEF1C
:100B60007FEFC2012A8B75D28C012A892F7714C09E
:100B70005201F2E0AF0EB11CF2014080518026FF1D
:100B800003C0612F70E002C06FEF7FEFC2012A8BBC
:100B900055D28C012A892068322E23FD18C08F2D52
:100BA00090E00817190798F4B60180E290E05CD253
:100BB000FA94F5CFF20137FC859137FE81912F0130
:100BC000B60190E051D2F110FA94015011090115CB
:100BD000110581F7F1C0843611F0893651F55201C3
:100BE00027FF09C0F4E0AF0EB11CF20160817181F2
:100BF000828193810AC0F2E0AF0EB11CF2016081E4
:100C00007181072E000C880B990B2F76322E97FFDF
:100C100009C090958095709561957F4F8F4F9F4F3C
:100C20002068322E2AE030E0A30176D2E82EE618C2
:100C30003EC0022F853721F40F7E2AE030E01DC030
:100C4000097F8F3691F018F4883559F0BEC080378F
:100C500019F0883711F0B9C0006104FF09C00460C1
:100C600007C024FF08C0066006C028E030E005C0C9
:100C700020E130E002C020E132E0520107FF09C06C
:100C8000F4E0AF0EB11CF201608171818281938129
:100C900008C0F2E0AF0EB11CF2016081718180E00A
:100CA00090E0A30139D2E82EE6180F77302E36FEF9
:100CB0000BC0332D3E7FE11650F434FE0AC032FCE7
:100CC00008C0332D3E7E05C00E2D332D03C00E2DE2
:100CD00001C0012F34FF0CC0FE01EE0DF11D80811B
:100CE000803311F4397E08C032FF05C00E5F04C0A6
:100CF000832F867809F00F5F33FD12C030FF06C0E6
:100D00001E2D0F1518F41F0D101B0F2D0F1560F45D
:100D1000B60180E290E03B8BA7D10F5F3B89F6CF15
:100D20000F1510F4F01A01C0F12C34FF11C0B601F8
:100D300080E390E03B8B98D13B8932FF16C031FDB8
:100D400003C088E790E002C088E590E0B6010CC0DF
:100D5000832F867851F031FF02C08BE201C080E220
:100D600037FD8DE2B60190E07FD1E11630F4B60197
:100D700080E390E079D11150F8CFEA94F301EE0DC1
:100D8000F11D8081B60190E06FD1E110F6CF14C063
:100D9000F4E0FF1548F584E0F81A33FE1DC0211079
:100DA00024C003FF27C006E210E0F32DF0713F2EB0
:100DB000F8018491811121C0FF2009F4FDCCB60116
:100DC00080E290E051D1FA94F7CFF60186819781C5
:100DD00023C08FEF9FEF20C0B60180E290E044D1A6
:100DE000FA94F110F9CFDBCFF12CB601822D90E00F
:100DF0003BD1D7CF0AE210E0D8CF31108052B601F4
:100E000090E032D10F5F1F4FD3CF23E02F1510F4A6
:100E100083E0C2CFF12CC5CF6396E2E11CC02F92D4
:100E20003F924F925F926F927F928F929F92AF927A
:100E3000BF92CF92DF92EF92FF920F931F93CF93C7
:100E4000DF93CDB7DEB7CA1BDB0B0FB6F894DEBF5E
:100E50000FBECDBF09942A88398848885F846E8484
:100E60007D848C849B84AA84B984C884DF80EE80CE
:100E7000FD800C811B81AA81B981CE0FD11D0FB6D7
:100E8000F894DEBF0FBECDBFED010895283008F005
:100E900027E03327DA01990F311D87FD9160009615
:100EA0006105710539F432602E5F3D9330E32A9578
:100EB000E1F708959F3F30F080387105610509F032
:100EC0003C5F3C5F3D93913008F08068911DDF935B
:100ED000CF931F930F93FF92EF92192F987F9695C0
:100EE000E92F96959695E90FFF27E857FF4F992729
:100EF0003327EE24FF24A701E70105900894079407
:100F000028F4360FE71EF81E491F511D660F771F84
:100F1000881F991F0694A1F70590079428F4E70EFF
:100F2000F81E491F561FC11D770F881F991F661F86
:100F30000694A1F70590079428F4F80E491F561F50
:100F4000C71FD11D880F991F661F771F0694A1F731
:100F50000590079420F4490F561FC71FD81F990FFB
:100F6000661F771F881F0694A9F784911095177044
:100F700041F0D695C79557954795F794E7941A95FC
:100F8000C1F7EEE2F0E06894159015913591659106
:100F9000959105907FE27395E118F10A430B560B8A
:100FA000C90BD009C0F7E10CF11E431F561FC91F22
:100FB000D01D7EF4703311F48A95E6CFE894015089
:100FC00030F0080F0AF40027021708F4202F2395A9
:100FD000022F7A3328F079E37D932A95E9F710C040
:100FE0007D932A9589F60694979567953795179579
:100FF0001794E118F10A430B560BC90BD00998F06E
:1010000023957E9173957A3308F070E37C932013D7
:10101000B8F77E9170617D9330F0839571E37D9395
:1010200070E32A95E1F71124EF90FF900F911F9143
:10103000CF91DF91992787FD90950895FC01059048
:10104000615070400110D8F7809590958E0F9F1FCA
:101050000895FC016150704001900110D8F780950F
:1010600090958E0F9F1F08950F931F93CF93DF933B
:10107000FB01238121FD03C08FEF9FEF28C022FFDA
:1010800016C046815781248135814217530744F4A5
:10109000A081B1819D012F5F3F4F318320838C93CD
:1010A000268137812F5F3F4F3783268310C0EB01A6
:1010B000092F182F0084F185E02D0995892BE1F681
:1010C0008E819F8101969F838E83812F902FDF9148
:1010D000CF911F910F910895AEE0B0E0E1E7F8E005
:1010E000ACCE0D891E8986E08C831A8309838FEF2D
:1010F0009FE79E838D83AE01475E5F4F6F89788D3A
:10110000CE0101962FDB2F813885F801E20FF31F06
:1011100010822E96E4E0ADCEFA01AA27283051F1D4
:10112000203181F1E8946F936E7F6E5F7F4F8F4F18
:101130009F4FAF4FB1E03ED0B4E03CD0670F781F77
:10114000891F9A1FA11D680F791F8A1F911DA11D5C
:101150006A0F711D811D911DA11D20D009F4689495
:101160003F912AE0269F11243019305D3193DEF63D
:10117000CF010895462F4770405D4193B3E00FD0F3
:10118000C9F7F6CF462F4F70405D4A3318F0495DDE
:1011900031FD4052419302D0A9F7EACFB4E0A695C1
:1011A0009795879577956795BA95C9F700976105E3
:1011B000710508959B01AC010A2E06945795479539
:1011C00037952795BA95C9F7620F731F841F951F2E
:0811D000A01D0895F894FFCF63
:1011D80048656C6C6F0054656D703D252E31660155
:1011E80043004C6F7720202048756D616E697479D3
:1011F8000048696768202048756D616E69747900D8
:10120800202575004D69646C652048756D616E69AF
:0412180074790000E5
:00000001FF
