S0190000556C747261536F6E69635F73656E736F722E737265630E
S11300000C942A000C9475000C943F000C943F004F
S11300100C943F000C943F000C943F000C943F0060
S11300200C943F000C943F000C943F000C943F0050
S11300300C943F000C943F000C943F000C943F0040
S11300400C943F000C943F000C943F000C943F0030
S11300500C943F0011241FBECFE5D4E0DEBFCDBF1A
S113006010E0A0E6B0E0ECE8FAE002C005900D92E2
S1130070A637B107D9F70E94AE010C9444050C943D
S11300800000889A90988A9892980895909A85E3A7
S11300908A95F1F7000090980895811107C085B7FB
S11300A0816085BF8BB780648BBF0895813031F444
S11300B085B7846085BF8BB780688BBF089588231C
S11300C069F08FB58FBD8EB58EBD1DBC1CBC89B7C4
S11300D0846089BF8EB583608EBD08958EB58C7F94
S11300E08EBD89B78B7F89BF08951F920F920FB67B
S11300F00F9211242F933F934F935F936F937F93AA
S11301008F939F93AF93BF93EF93FF93829B04C00E
S113011081E00E945F0005C0829903C080E00E94D4
S11301205F00FF91EF91BF91AF919F918F917F916C
S11301306F915F914F913F912F910F900FBE0F9050
S11301401F9018950E9446002FEF80E792E02150FF
S113015080409040E1F700C000006CB57DB5660FAB
S1130160771F660F771F660F771F072E000C880B0B
S1130170990B2AE330E040E050E00E94F601C90107
S113018008958AB3806F8ABB8BB38F708BBB08953D
S1130190DA9A82E08A95F1F700C0DA980895CF934D
S11301A08AB38F708ABB8BB3806F8BBBD99ADA9A70
S11301B000000000C9B3DA98000000000E94C800E3
S11301C000000000CC239CF3D998CF910895CF93DD
S11301D0DF93D82F0E94C1009D2F92959F70CD2F41
S11301E0CF7090FDDC9A969590FDDD9A969590FDE2
S11301F0DE9A969509F0DF9A0E94C8000E94C10019
S1130200D0FDDC9A8C2F869580FDDD9A869580FD45
S1130210DE9A869509F0DF9A0E94C8008AB38F702F
S11302208ABB8BB38F708BBBDF91CF910895CF9333
S1130230C82F0E94CF008C2F0E94E700CF91089511
S1130240CF93C82F0E94CF00D89A8C2F0E94E7002A
S1130250D898CF910895623031F0633031F0613035
S113026029F4805C03C08C5E01C08C5A80680E94B3
S113027017010895CF93DF93EC01862F642F0E941A
S11302802B018881882331F021960E9420018991D5
S11302908111FBCFDF91CF910895CF932FEF80E7AA
S11302A092E0215080409040E1F700C000008AB302
S11302B087608ABB8BB3887F8BBB0E94C100C3E07D
S11302C08BB380638BBB0E94C8008FE097E20197D9
S11302D0F1F700C00000C15099F70E94CF000E94BE
S11302E0C100DD9A0E94C80088E20E9417018CE0D8
S11302F00E94170186E00E94170182E00E94170104
S113030081E00E941701CF91089581E00E941701B6
S113031008950F931F93CF93DF93CDB7DEB7A897BC
S11303200FB6F894DEBF0FBECDBF162F042F4AE0E0
S1130330BE016F5F7F4F0E943702402F612FCE01B5
S113034001960E943A01A8960FB6F894DEBF0FBE3C
S1130350CDBFDF91CF911F910F910895CF93DF937C
S1130360CDB7DEB72A970FB6F894DEBF0FBECDBF68
S11303700E944D010E94410080E00E944D0078944B
S11303800F2EF9E6EF2EF0E0FF2EF02D8E010F5F19
S11303901F4F40E060E080E690E00E943A010E9436
S11303A0A2009F938F93FF92EF921F930F930E944B
S11303B05C0241E061E0C8010E943A018CB59DB540
S11303C042E062E00E9489012FEF89E698E1215022
S11303D080409040E1F700C000000F900F900F9014
S11303E00F900F900F900E948501D3CF052E97FB9D
S11303F01EF400940E940D0257FD07D00E941502BE
S113040007FC03D04EF40C940D02509540953095A2
S113041021953F4F4F4F5F4F08959095809570956C
S113042061957F4F8F4F9F4F0895A1E21A2EAA1B0B
S1130430BB1BFD010DC0AA1FBB1FEE1FFF1FA21790
S1130440B307E407F50720F0A21BB30BE40BF50B8D
S1130450661F771F881F991F1A9469F76095709516
S1130460809590959B01AC01BD01CF010895BB27F8
S11304704A3031F4992322F4BDE2909581959F4F3F
S11304800C944302BB27FB015527AA27880F991F09
S1130490AA1FA41710F0A41B83955051B9F7A05DAF
S11304A0AA3308F0A95DA193009779F7B111B1932C
S11304B01192CB010C946704AEE0B0E0E2E6F2E006
S11304C00C941B050D891E8986E08C831A8309838D
S11304D08FEF9FE79E838D83AE01475E5F4F6F89E9
S11304E0788DCE0101960E947F022F813885F80114
S11304F0E20FF31F10822E96E4E00C943705ACE073
S1130500B0E0E5E8F2E00C940D057C016B018A0192
S1130510FC0117821682838181FFBDC1CE01019641
S11305204C01F7019381F60193FD859193FF81912D
S11305306F01882309F4ABC1853239F493FD8591A9
S113054093FF81916F01853229F4B70190E00E94F5
S11305507704E7CF512C312C20E02032A0F48B32E9
S113056069F030F4803259F0833269F420612CC090
S11305708D3239F0803339F4216026C02260246042
S113058023C0286021C027FD27C030ED380F3A3042
S113059078F426FF06C0FAE05F9E300D1124532E36
S11305A013C08AE0389E300D1124332E20620CC013
S11305B08E3221F426FD6BC1206406C08C3611F402
S11305C0206802C0883641F4F60193FD859193FFBB
S11305D081916F018111C1CF982F9F7D95549330E4
S11305E028F40C5F1F4FFFE3F9830DC0833631F00D
S11305F0833771F0833509F05BC022C0F801808134
S113060089830E5F1F4F44244394512C540115C019
S11306103801F2E06F0E711CF801A080B18026FF52
S113062003C0652D70E002C06FEF7FEFC5012C871A
S11306300E945C042C0183012C852F77222E17C085
S11306403801F2E06F0E711CF801A080B18026FF22
S113065003C0652D70E002C06FEF7FEFC5012C87EA
S11306600E9451042C012C852068222E830123FC36
S11306701BC0832D90E048165906B0F4B70180E200
S113068090E00E9477043A94F4CFF50127FC859119
S113069027FE81915F01B70190E00E947704311039
S11306A03A94F1E04F1A51084114510471F7E5C02E
S11306B0843611F0893639F5F80127FF07C06081C7
S11306C07181828193810C5F1F4F08C060817181A9
S11306D0072E000C880B990B0E5F1F4F2F76722E7E
S11306E097FF09C090958095709561957F4F8F4FC6
S11306F09F4F2068722E2AE030E0A4010E94AF04CC
S1130700A82EA81844C0853729F42F7EB22E2AE0DB
S113071030E025C0F22FF97FBF2E8F36C1F018F4D8
S1130720883579F0B4C0803719F0883721F0AFC02C
S11307302F2F2061B22EB4FE0DC08B2D8460B82EF5
S113074009C024FF0AC09F2F9660B92E06C028E076
S113075030E005C020E130E002C020E132E0F801E1
S1130760B7FE07C060817181828193810C5F1F4F46
S113077006C06081718180E090E00E5F1F4FA4018C
S11307800E94AF04A82EA818FB2DFF777F2E76FEBB
S11307900BC0372D3E7FA51450F474FE0AC072FCC2
S11307A008C0372D3E7E05C0BA2C372D03C0BA2CA5
S11307B001C0B52C34FF0DC0FE01EA0DF11D80818E
S11307C0803311F4397E09C032FF06C0B394B39468
S11307D004C0832F867809F0B39433FD13C030FF2F
S11307E006C05A2CB31418F4530C5B18B32CB3146E
S11307F068F4B70180E290E03C870E947704B394E8
S11308003C85F5CFB31410F43B1801C0312C34FFF0
S113081012C0B70180E390E03C870E9477043C85D6
S113082032FF17C031FD03C088E790E002C088E5BD
S113083090E0B7010CC0832F867859F031FF02C0D5
S11308408BE201C080E237FD8DE2B70190E00E94A7
S11308507704A51438F4B70180E390E00E9477048C
S11308605A94F7CFAA94F401EA0DF11D8081B701DF
S113087090E00E947704A110F5CF332009F451CE03
S1130880B70180E290E00E9477043A94F6CFF70132
S11308908681978102C08FEF9FEF2C96E2E10C9442
S11308A02905FC010590615070400110D8F780952E
S11308B090958E0F9F1F0895FC0161507040019028
S11308C00110D8F7809590958E0F9F1F0895DC0135
S11308D0FC01672F71917723E1F7329704C07C9173
S11308E06D9370836291AE17BF07C8F308950F9399
S11308F01F93CF93DF93FB01238121FD03C08FEF6F
S11309009FEF28C022FF16C046815781248135817C
S11309104217530744F4A081B1819D012F5F3F4FDB
S1130920318320838C93268137812F5F3F4F378318
S1130930268310C0EB01092F182F0084F185E02DC8
S11309400995892BE1F68E819F8101969F838E8381
S1130950812F902FDF91CF911F910F910895FA016C
S1130960AA27283051F1203181F1E8946F936E7FEA
S11309706E5F7F4F8F4F9F4FAF4FB1E03ED0B4E0DB
S11309803CD0670F781F891F9A1FA11D680F791F1C
S11309908A1F911DA11D6A0F711D811D911DA11D2D
S11309A020D009F468943F912AE0269F112430193D
S11309B0305D3193DEF6CF010895462F4770405DD8
S11309C04193B3E00FD0C9F7F6CF462F4F70405D87
S11309D04A3318F0495D31FD4052419302D0A9F7E2
S11309E0EACFB4E0A6959795879577956795BA95DC
S11309F0C9F700976105710508959B01AC010A2EA2
S1130A0006945795479537952795BA95C9F7620F78
S1130A10731F841F951FA01D08952F923F924F921C
S1130A205F926F927F928F929F92AF92BF92CF927A
S1130A30DF92EF92FF920F931F93CF93DF93CDB783
S1130A40DEB7CA1BDB0B0FB6F894DEBF0FBECDBFFB
S1130A5009942A88398848885F846E847D848C84CC
S1130A609B84AA84B984C884DF80EE80FD800C81D5
S1130A701B81AA81B981CE0FD11D0FB6F894DEBFB8
S10F0A800FBECDBFED010895F894FFCF28
S1130A8C48656C6C6F212121007261733D202575C2
S1090A9C2020636D000040
S9030000FC
