:100000000C942A000C9447000C9447000C94470071
:100010000C9447000C9447000C9447000C94470044
:100020000C9447000C9447000C9447000C94470034
:100030000C9447000C9447000C9447000C94470024
:100040000C9447000C9447000C9447000C94470014
:100050000C94470011241FBECFE5D4E0DEBFCDBF16
:1000600022E0A4E6B0E001C01D92A136B207E1F79C
:1000700010E0A0E6B0E0EAE0F8E002C005900D92E2
:10008000A436B107D9F70E9449000C9403040C94DC
:1000900000000E9410010E949000D1E00E94900395
:1000A000CD2F2D2F4C2F6AE082E30E940F02CF5FED
:1000B000C930B9F70D2F28E246E36AE08EE20E94CC
:1000C000D30224E14EE164E18EE20E94910129E134
:1000D0004EE169E18EE20E94910123E24EE163E28A
:1000E0008EE20E94910128E044E16AE08EE20E94E3
:1000F0008E022FEF80E792E0215080409040E1F7A0
:1001000000C000000E94A800C9CFC498613011F45B
:10011000C19A01C0C1988FB9779BFECFC49A089548
:1001200088EF91E0E9E6F0E0DF019C011D922150AB
:100130003040E1F7109268001092670087EF91E07D
:10014000909366008093650081E080936400089539
:100150000F931F93CF93DF93809167009091680076
:1001600099232CF4109268001092670009C0883F10
:10017000914034F087EF91E090936800809367009E
:10018000809165009091660099232CF4109266008E
:100190001092650009C0883F914034F087EF91E0EC
:1001A0009093660080936500C0916700D0916800CD
:1001B000CE0164E570E00E941C03162F60E08068A9
:1001C0000E94850060E0812F80640E9485008091FC
:1001D0006500909166008C179D078CF08E01075981
:1001E0001F4F61E0F80181918F010E9485002196E7
:1001F00080916500909166008C179D0794F787EFBA
:1002000091E09093680080936700109266001092CE
:10021000650010926400DF91CF911F910F910895B6
:10022000C69A87B3826F87BBC698C69A80E58DB998
:10023000C49A60E081E20E94850060E088EC0E9440
:10024000850060E086E00E94850060E083E10E9416
:10025000850060E080E20E94850060E08CE00E9402
:1002600085000E9490000E94A8000895843508F03F
:1002700052C0603308F051C0262F2695269526954A
:1002800090E034E5239F800D911D1124220F220F51
:10029000220F621BFC01E759FF4F208141110AC068
:1002A00041E050E002C0440F551F6A95E2F74095C7
:1002B000242315C0413049F441E050E002C0440F0E
:1002C000551F6A95E2F7242B0AC0423041F441E001
:1002D00050E002C0440F551F6A95E2F72427FC0145
:1002E000E759FF4F20832091670030916800821703
:1002F000930724F490936800809367002091650031
:10030000309166002817390754F490936600809363
:10031000650080E0089581E0089581E0089580E01F
:1003200008957F928F929F92AF92BF92CF92DF9269
:10033000EF92FF920F931F93CF93DF93D82FC62F87
:10034000742E822EA22EB12CA61AB108C42ED12C46
:10035000C81AD108BB2034F4B194A194B1089924EF
:100360009A9402C099249394DD202CF4D194C194E2
:10037000D1081FEF01C011E0402F6C2F8D2F0E947C
:10038000360181113EC0CC0CDD1CAA0CBB1CAC1488
:10039000BD04D4F4C601959587957501E81AF90A4C
:1003A0007D1659F1FF201CF0C90DEC18FD08D10F86
:1003B000EA0CFB1C402F6C2F8D2F0E9436018111FF
:1003C00020C0D711EFCF19C0C5019595879576014B
:1003D000E81AF90A8C1689F0FF201CF0D10FEA18F0
:1003E000FB08C90DEC0CFD1C402F6C2F8D2F0E94BB
:1003F0003601811106C0C811EFCF81E080936400FF
:1004000080E0DF91CF911F910F91FF90EF90DF90EF
:10041000CF90BF90AF909F908F907F900895AF92B4
:10042000BF92CF92DF92EF92FF920F931F93CF93E1
:10043000DF93843508F064C0603308F063C0D42FC4
:10044000440F03E0041BDD230CF455C0C22FB62E6D
:10045000C82EAA24A39410E04C2FFD2EFB0C6F2D68
:10046000D12EDC0C8D2D0E9436014C2FEB2CED1A79
:100470006E2D8D2D0E9436014C2F6F2DFC2CF11A04
:100480008F2D0E9436014C2F6E2D8F2D0E9436012C
:100490004C2FF12EFB0C6F2DDD2EDC0C8D2D0E94D0
:1004A00036014C2FEB2CE11A6E2D8D2D0E9436015A
:1004B0004C2F6F2DFC2CFD1A8F2D0E9436014C2FD6
:1004C0006E2D8F2D0E94360100233CF49A2D24E0DE
:1004D000129F000D11240A5F09C09A2D812F8D1BD8
:1004E00024E0829F000D1124065FD1501F5FA3946A
:1004F000D9170CF0B1CF81E08093640080E003C095
:1005000081E001C081E0DF91CF911F910F91FF90B9
:10051000EF90DF90CF90BF90AF900895BF92CF92B1
:10052000DF92EF92FF920F931F93CF93DF93843567
:1005300068F5603368F56417C0F0D62FD41BDF5F11
:100540006D17A0F41EC0C12F402F6D2F8C2F0E945D
:10055000360181111EC0CF5F2C2F30E02E153F05D4
:100560009CF3DF5FBD1648F40CC0D0E0B62EC82E59
:10057000D12C7601E20EF11C182FCE14DF041CF3EF
:10058000F0CF81E08093640080E003C081E001C08F
:1005900081E0DF91CF911F910F91FF90EF90DF905D
:1005A000CF90BF900895EF92FF920F931F93CF9338
:1005B000DF93182FC62FD42FE22E843558F54435FB
:1005C00058F5603358F58FE2821750F1141750F543
:1005D000621750F5F12E402F6C2F8F2D0E9436019F
:1005E000402F6E2D8F2D0E943601F394DF1598F762
:1005F000402F6C2F812F0E943601402F6C2F8D2FA2
:100600000E943601CF5FEC1698F781E0809364007A
:1006100080E00BC081E009C081E007C081E005C037
:1006200081E003C080E001C080E0DF91CF911F91A5
:100630000F91FF90EF90089597FB072E16F400940A
:1006400007D077FD09D00E94300307FC05D03EF4A7
:10065000909581959F4F0895709561957F4F08956E
:10066000AA1BBB1B51E107C0AA1FBB1FA617B707D8
:1006700010F0A61BB70B881F991F5A95A9F78095F4
:100680009095BC01CD0108958F929F92AF92BF9239
:10069000CF92DF92EF92FF92CF93DF93EC016881CC
:1006A00079818A819B81611571058105910521F40C
:1006B00064E279ED8BE597E02DE133EF41E050E026
:1006C0000E94A00349015A019B01AC01A7EAB1E4D1
:1006D0000E94BF036B017C01ACEEB4EFA501940155
:1006E0000E94CD03DC01CB018C0D9D1DAE1DBF1DF5
:1006F000B7FF03C00197A109B04888839983AA83F3
:10070000BB839F77DF91CF91FF90EF90DF90CF90E9
:10071000BF90AF909F908F9008950E9444030895DA
:1007200080E690E00E9444030895A0E0B0E080934A
:10073000600090936100A0936200B09363000895FD
:10074000052E97FB1EF400940E94B70357FD07D0B7
:100750000E94D20307FC03D04EF40C94B7035095CB
:100760004095309521953F4F4F4F5F4F089590959D
:100770008095709561957F4F8F4F9F4F08950E9490
:10078000F403A59F900DB49F900DA49F800D911D23
:1007900011240895B7FF0C94BF030E94BF03821B6E
:1007A000930B0895A1E21A2EAA1BBB1BFD010DC0DD
:1007B000AA1FBB1FEE1FFF1FA217B307E407F50711
:1007C00020F0A21BB30BE40BF50B661F771F881FED
:1007D000991F1A9469F760957095809590959B0183
:1007E000AC01BD01CF010895A29FB001B39FC0012C
:1007F000A39F700D811D1124911DB29F700D811D4D
:0A0800001124911D0895F894FFCF14
:04080A0001000000E9
:00000001FF
