S00F0000544654393334312E7372656356
S1130000E5C1FFC1FEC1FDC1FCC1FBC1FAC1F9C11B
S1130010F8C1F7C1F6C1F5C1F4C1F3C1F2C1F1C130
S1130020F0C1EFC1EEC1D0C5D2C5D4C5D6C5D8C5BF
S1130030DAC5DCC50000000000000000040404046C
S1130040000400000A0A0A00000000000A0A1F0A4D
S11300501F0A0A00040F140E051E040018190204D6
S1130060081303000C12140814120D000C040800E9
S11300700000000002040808080402000804020248
S1130080020408000004150E150400000004041FF7
S113009004040000000000000C0408000000001F1D
S11300A00000000000000000000C0C00000102042D
S11300B0081000000E11131519110E00040C04048D
S11300C004040E000E11010204081F001F020402A2
S11300D001110E0002060A121F0202001F101E0167
S11300E001110E000608101E11110E001F0102045A
S11300F0080808000E11110E11110E000E11110F37
S113010001020C000001020408100000000C0C00A5
S11301100C040800020408100804020000001F0078
S11301201F00000008040201020408000E1101026D
S1130130040004000E11010D15150E000E1111110D
S11301401F1111001E11111E11111E000E1110108D
S113015010110E001C12111111121C001F10101E80
S113016010101F001F10101E101010000E11101779
S113017011110E001111111F111111000E040404AC
S113018004040E000702020202120C0011121418D9
S1130190141211001010101010101F00111B15154F
S11301A01111110011111915131111000E11111152
S11301B011110E001E11111E101010000E1111113C
S11301C015120D001E11111E141211000F10100E25
S11301D001011E001F040404040404001111111180
S11301E011110E0011111111110A04001111111134
S11301F015150E0011110A040A1111001111110A2A
S1130200040404001F01020408101F000E0808085B
S113021008080E00110A1F041F0404000E02020243
S113022002020E00040A1100000000000000000099
S113023000001F00080400000000000000000E0180
S11302400F110F0010101E1111111E0000000E10CE
S113025010110E0001010D1311110F0000000E11F9
S11302601F100E000609081C08080800000F1111D1
S11302700F010E00101016191111110004000C04C6
S113028004040E000200060202120C0010101214E4
S1130290181412001808080808081C0000001A1591
S11302A015111100000016191111110000000E1192
S11302B011110E0000001E111E10100000000F117D
S11302C00F010100000016191010100000000E109C
S11302D00E011E0008081C08080906000000111180
S11302E011130D0000001111110A04000000111176
S11302F011150A000000110A040A1100000011116E
S11303000F010E0000001F0204081F00000000007F
S113031000000000000000000000000000000000D9
S113032000000000000000000000000000000000C9
S113033007C00FE00C60183018301830183018302F
S113034018300C600FE007C000000000000000003F
S1130350038003800180018001800180018001808D
S11303600180018003C003C0000000000000000001
S113037007F007F0014003600360063007F00FF850
S11303800C180C183E3E3E3E000000000000000029
S11303900FE00FF00630063007E007F006380618C5
S11303A0061806380FF00FE00000000000000000FF
S11303B007D80FF81C3838183000300030003008E7
S11303C0380C1C380FF007E00000000011241FBE99
S11303D0CFE5D4E0DEBFCDBF10E0A0E6B0E0E6E4B8
S11303E0FEE102C005900D92AE39B107D9F720E0C5
S11303F0AEE9B0E001C01D92A73AB207E1F70BD70E
S113040020CDFECD12BA8FEF81BB8FE187BB08955B
S1130410C198C49AC29882BBC398C39AC29A0895D9
S1130420C19AC49AC29882BBC398C39AC29A0895C7
S113043082BBC398C39A0895CF93C82FC298C1981A
S1130440F7DF11BAC19A87EC90E00197F1F700C089
S11304500000C4989AE19A95F1F700C060B3C49A79
S1130460862F90E0A0E0B0E0BA2FA92F982F88271C
S1130470C498EAE1EA95F1F700C020B3C49A822B4C
S1130480BA2FA92F982F8827C498FAE1FA95F1F783
S113049000C020B3C49A822BBA2FA92F982F882783
S11304A0C4982AE12A95F1F700C020B3C49ABC018C
S11304B0CD01622BCF3E71F4B82FA72F962F88273A
S11304C0C498EAE1EA95F1F700C020B3C49ABC01EC
S11304D0CD01622BC29A2FEF21BBE7E5F2E0319701
S11304E0F1F700C00000CF910895C29AC39AC49A4C
S11304F0C0988FE39FE10197F1F700C00000C09A14
S1130500C29881E085DF83E0C398C39A8150E1F704
S1130510C29A0895CF93C82F86E37ADFC130A9F039
S113052028F0C23009F1C33071F13BC088E478DFB0
S113053080EF90E09093A5008093A40080E491E084
S11305409093A3008093A2002CC088E269DF80E42A
S113055091E09093A5008093A40080EF90E09093A5
S1130560A3008093A2001DC088E85ADF80EF90E0CA
S11305709093A5008093A40080E491E09093A3005D
S11305808093A2000EC088EE4BDF80E491E090934C
S1130590A5008093A40080EF90E09093A300809343
S11305A0A200CF910895AF92BF92CF92DF92EF92C3
S11305B0FF920F931F93CF93DF93182F092F6A0194
S11305C07B01C92FD82FC298C1988CE231DFC19A20
S11305D0802F2EDF812F2CDF81E0C81AD108E1089B
S11305E0F108D701C601689415F8B695A7959795B3
S11305F087951694D1F79C010117B9F05C0100E1CD
S11306003BC0892FC398C39AC398C39AC398C39A0B
S1130610C398C39AC398C39AC398C39AC398C39AF6
S1130620C398C39A815071F701C090E121503109F8
S113063040F79C2D9F738FEF890F992359F1C3982D
S1130640C39AC398C39A8150D0F724C0102F8C2F1B
S1130650EFDE8D2FEDDE8C2FEBDE8D2FE9DE8C2F80
S1130660E7DE8D2FE5DE8C2FE3DE8D2FE1DE1150EA
S113067071F781E0A81AB108A114B10439F78C2DDF
S11306808F7341F0C82E8C2FD3DE8D2FD1DECA9408
S1130690C110F9CFC29ADF91CF911F910F91FF90B2
S11306A0EF90DF90CF90BF90AF9008950F931F937A
S11306B0CF93DF93C42FD52F162F072FC298C1983D
S11306C0B7DEC19A85E08A95F1F70000802FB0DE8D
S11306D085E08A95F1F70000812FAADE85E08A95EE
S11306E0F1F700008D2FA4DE85E08A95F1F7000074
S11306F08C2F9EDEC29ADF91CF911F910F910895A6
S1130700CF92DF92EF92FF920F931F93CF93DF93D9
S11307108B016A01E901C298AC0160E070E0BA01A2
S113072055274427E12CF12C4C295D296E297F297A
S11307308AE2BCDFA80160E070E0BA0155274427D3
S1130740CE01A0E0B0E0482B592B6A2B7B2B8BE227
S1130750ADDFC29ADF91CF911F910F91FF90EF907F
S1130760DF90CF900895CF93DF93EC012091A20006
S11307703091A300215031094091A4005091A5006B
S11307804150510960E070E080E090E0B9DF2091D1
S1130790A4003091A500A091A200B091A300C6D7F7
S11307A0AB01BC01CE01FFDEDF91CF910895AF9282
S11307B0BF92CF92DF92EF92FF920F931F93CF934A
S11307C0DF937C015B016A01E9019801AE01B60186
S11307D0C50196DF9E012F5F3F4F2A193B090F5F2A
S11307E01F4FD801AC19BD09A1D7AB01BC01C7018A
S11307F0DADEDF91CF911F910F91FF90EF90DF90A0
S1130800CF90BF90AF900895CF93DF93992354F185
S1130810772344F12091A4003091A5008217930717
S113082008F52091A2003091A30062177307D0F459
S1130830D52FC42FC2982091A2003091A30021503B
S113084031094091A4005091A5004150510958DF4D
S1130850C298C1988CE2ECDDC19A8D2FE9DD8C2F12
S1130860E7DDC29ADF91CF9108952F923F924F9284
S11308705F926F927F928F929F92AF92BF92CF922C
S1130880DF92EF92FF920F931F93CF93DF932C018C
S1130890EB017A016901C801841B950B9C0122F4C8
S11308A022273327281B390BA6014C1B5D0BCA01D9
S11308B0992324F488279927841B950B51E040E061
S11308C0821793070CF050E0852E942E8114910426
S11308D051F09C2D8D2D6801092F182F9C2F8D2FE1
S11308E0E701E92EF82ECC16DD0668F59E2D8F2D36
S11308F07801092F182F9C2F8D2FE601C92ED82E91
S113090022C0CC16DD06B8F10FEF1FEF02C001E0E4
S113091010E0382E292E8114910429F0A201BE0181
S1130920C70172DF04C0A201B701CE016DDF6A18EE
S11309307B0822F4E00EF11E632C722C2196CC1657
S1130940DD0648F718C0C6018C1B9D0B98012E19B3
S11309503F09590122F4AA24BB24A21AB30A3C0178
S113096099231CF42FEF621A720A75946794E016A7
S1130970F10668F2C6CFDF91CF911F910F91FF90DE
S1130980EF90DF90CF90BF90AF909F908F907F902B
S11309906F905F904F903F902F9008958F929F9209
S11309A0AF92BF92CF92DF92EF92FF920F931F9379
S11309B0CF93DF93EC017B014A01590168018A015D
S11309C054DF86019501A401B501CE014EDF9701E4
S11309D0A401B701CE0149DF9501A601B701CE01FB
S11309E044DFDF91CF911F910F91FF90EF90DF9043
S11309F0CF90BF90AF909F908F9008952F923F9289
S1130A004F925F926F927F928F929F92AF92BF921A
S1130A10CF92DF92EF92FF920F931F93CF93DF93C6
S1130A2000D000D000D0CDB7DEB76C014B015E839F
S1130A304D833C832B8381E090E07C01E41AF50A2A
S1130A401A01319421943108220C331CBA01680D27
S1130A50791DA901C601D8DEB4012D813E81621B36
S1130A60730B4B815C81C601CFDE4B815C81B40189
S1130A708D819E818C0D9D1DC7DE4B815C81B401EF
S1130A80C601ED81FE818E1B9F0BBEDE2D813E8152
S1130A90121613060CF06DC000E010E06624639497
S1130AA0712CFF2054F08D819E8101979E838D834C
S1130AB092E0290E311CE20CF31C0F5F1F4FE2E0A1
S1130AC06E0E711CE60CF71C5601A00EB11E4B8174
S1130AD05C812D813E81280D391D3A832983B9011A
S1130AE0C50192DE2601401A510A4B815C8169815D
S1130AF07A81C20189DE4B815C81C401ED81FE8172
S1130B008E1B9F0B9A838983BC01C5017DDE4B81BB
S1130B105C8169817A81C20177DE5801A80CB91C15
S1130B204B815C81B5014D805E804C0C5D1CC20123
S1130B306BDE4B815C81B50196018D819E81281B02
S1130B40390B3A832983C9015FDE5401A01AB10A23
S1130B504B815C81B501C20157DE4B815C81B501DB
S1130B6089819A8151DEED81FE810E171F070CF4F5
S1130B7098CF26960FB6F894DEBF0FBECDBFDF9197
S1130B80CF911F910F91FF90EF90DF90CF90BF9086
S1130B90AF909F908F907F906F905F904F903F9019
S1130BA02F9008952BD687709078992324F4019779
S1130BB0886F9F6F01969927FC013197E730F10503
S1130BC0C0F4ED5EFF4F09948FE190E0089580E05A
S1130BD098EF089580EE97E008958FEF97E00895D9
S1130BE08FE198EF089580EE9FEF08958FEF9FEFC8
S1130BF0089580E090E008952F923F924F925F9283
S1130C006F927F928F929F92AF92BF92CF92DF9218
S1130C10EF92FF920F931F93CF93DF93CDB7DEB77D
S1130C2028970FB6F894DEBF0FBECDBF2A01390155
S1130C3021E0E216D1F032E0E312ADC04B0140E214
S1130C40049F90011124F901E45FF0406F019B01BE
S1130C50205F3F4F3A832983AC01485F5F4F5C8339
S1130C604B838D839E83212C8AC07B0110E0000F6F
S1130C70111F000F111F000F111F0C5C10406B019E
S1130C8058E0C50ED11C282E392E0F2EF7E08F2EDA
S1130C90F02D912C56012BC0F801849190E009802D
S1130CA002C0959587950A94E2F780FF05C0A201DA
S1130CB0B701C601A9DD04C0A301B701C601A4DDC3
S1130CC029813A81215031093A8329833FEFC31A9C
S1130CD0D30A49815A814F3F5F4FF1F69FEFE91ADA
S1130CE0F90A0F5F1F4FEA14FB0409F454C0C22C25
S1130CF0D32C89829A82D0CFF60184913F8090E0F0
S1130D00032C02C0959587950A94E2F780FF05C0ED
S1130D10A201B401C80178DD04C0A301B401C80173
S1130D2073DDF501849190E002C0959587953A941E
S1130D30E2F780FF05C0A201B401C70165DD04C06C
S1130D40A301B401C70160DD2F8138852150310929
S1130D5038872F833FEFE31AF30A0F5F1F4F4F814A
S1130D6058854F3F5F4F41F69FEF891A990AE2E099
S1130D70CE0ED11C29813A818216930661F0560168
S1130D803FEFA31AB30AEB80FC800D811E8147E07C
S1130D904F832886B1CF28960FB6F894DEBF0FBED6
S1130DA0CDBFDF91CF911F910F91FF90EF90DF9016
S1130DB0CF90BF90AF909F908F907F906F905F90F7
S1130DC04F903F902F9008953F924F925F926F9271
S1130DD07F928F929F92AF92BF92CF92DF92EF92C7
S1130DE0FF920F931F93CF93DF93EC014B012A01E2
S1130DF03901F8011E2D0081002351F1CE2CD12C94
S1130E00CC0CDD1CCC0CDD1CCC0CDD1C5F018FEF8D
S1130E10A81AB80A33243394F12C2091A4003091F9
S1130E20A500CE018C0D9D1D2817390720F48C0CCC
S1130E309D1CC32DDF2DE12E9301A201B401CE012F
S1130E40DBDECC0DDD1DF50101915F010111E5CF64
S1130E50DF91CF911F910F91FF90EF90DF90CF9092
S1130E60BF90AF909F908F907F906F905F904F90C6
S1130E703F9008950F931F93CF93DF93CDB7DEB7C1
S1130E802A970FB6F894DEBF0FBECDBFBBDA2DDBB9
S1130E902FEF83ED90E3215080409040E1F700C0B4
S1130EA0000083EDC9DA60939E0070939F008093E5
S1130EB0A0009093A100C29861E070E080E025D189
S1130EC08091A1008F938091A0008F9380919F00C7
S1130ED08F9380919E008F9384E690E09F938F93ED
S1130EE08E010F5F1F4F1F930F9397D4C80185D1B5
S1130EF081E08EDA8BEC8CDA89E392DA8CE290DA98
S1130F0080E08EDA84E38CDA82E08ADA8FEC80DAAD
S1130F1080E086DA81EC84DA80E382DA88EE78DABB
S1130F2085E87EDA80E07CDA88E77ADA8AEE70DABD
S1130F3080E076DA80E074DA8DEE6ADA84E670DADC
S1130F4083E06EDA82E16CDA81E86ADA87EF60DAEC
S1130F5080E266DA80EC5CDA80E162DA81EC58DA0D
S1130F6080E15EDA85EC54DA8EE35ADA88E258DA04
S1130F7087EC4EDA86E854DA80E0CCDA8AE348DAA1
S1130F8085E54EDA81EB44DA80E04ADA88E148DA32
S1130F9086EB3EDA88E044DA82E842DA87E240DA35
S1130FA082EF36DA80E03CDA86E232DA81E038DA5F
S1130FB080EE2EDA8FE034DA81E332DA8BE230DA53
S1130FC08CE02EDA8EE02CDA88E02ADA8EE428DA55
S1130FD081EF26DA87E324DA87E022DA80E120DA77
S1130FE083E01EDA8EE01CDA89E01ADA80E018DA8F
S1130FF081EE0EDA80E014DA8EE012DA84E110DA9F
S113100083E00EDA81E10CDA87E00ADA81E308DAB8
S113101081EC06DA88E404DA88E002DA8FE000DAA8
S11310208CE0FED981E3FCD986E3FAD98FE0F8D9C4
S113103081E1EED92FEF82E597E021508040904086
S1131040E1F700C0000089E2E3D98CE2E9D92FEF8F
S113105082E597E0215080409040E1F700C0000015
S11310600FB6F894DEBF0FBECDBF2A960FB6F89424
S1131070DEBF0FBECDBFDF91CF911F910F910895B9
S1131080CF93C82F9091A600892F84608093A600E7
S11310906EE42BD387EC90E00197F1F700C00000D9
S11310A0C295C07F8091A6006EE48C2B1ED38091E4
S11310B0A6008B7F8093A6006EE417D387EC90E0A4
S11310C00197F1F700C00000CF910895CF93C82F86
S11310D0611108C08091A6008E7F8093A6006EE403
S11310E004D308C09091A600892F81608093A60044
S11310F06EE4FBD28C2F82958F70C2DF8C2FC0DF01
S1131100CF91089561E0E2DF08956130710561F0E7
S113111038F06230710569F06330710579F0089533
S113112060E08068D3DF0895805C60E08068CEDF93
S113113008958C5E60E08068C9DF08958C5A60E091
S11311408068C4DF08958FE59AEE0197F1F700C037
S1131150000083E095DF8FE79EE30197F1F700C07D
S1131160000083E08DDF8FE891E00197F1F700C084
S1131170000083E085DF8FE99FE00197F1F700C06D
S1131180000082E07DDF8FE99FE00197F1F700C066
S1131190000060E088E29ADF8FE99FE00197F1F7B1
S11311A000C0000060E08CE091DF8FE99FE00197D0
S11311B0F1F700C0000060E086E088DF8FE99FE07F
S11311C00197F1F700C000008091A6008860809329
S11311D0A6006EE48AD28091A6008D7F8093A6003B
S11311E06EE483D2089560E081E070DF8FE697E1DA
S11311F00197F1F700C000000895CF93DF93EC014D
S11312008881882329F021967DDF89918111FCCF83
S1131210DF91CF91089559D296DFE5DF60E070E069
S113122080E073DF8CE690E0E8DF24DE80E098EF76
S11312309ADA2FEF89E698E1215080409040E1F757
S113124000C000008FE190E08EDA2FEF89E698E18C
S1131250215080409040E1F700C0000080EE97E00C
S113126082DA2FEF89E698E1215080409040E1F73F
S113127000C000008FEF97E076DA2FEF89E698E15F
S1131280215080409040E1F700C000008FE198EFCA
S11312906ADA2FEF89E698E1215080409040E1F727
S11312A000C0000080EE9FEF5EDA2FEF89E698E140
S11312B0215080409040E1F700C000008FEF9FEF85
S11312C052DA2FEF89E698E1215080409040E1F70F
S11312D000C0000080E090E046DA2FEF89E698E154
S11312E0215080409040E1F700C00000C8E0D0E009
S11312F059DC0FE910E027E730E040E050E060E01F
S113130070E055DA2FEF81EE94E021508040904058
S1131310E1F700C0000046DC2FEE30E040E050E092
S113132068E770E044DA2FEF81EE94E021508040CA
S11313309040E1F700C0000035DC0FE311E027E73F
S113134030E040EA50E060E070E031DA2FEF81EE07
S113135094E0215080409040E1F700C0000022DC7E
S11313602FEE30E040EA50E068E770E020DA2FEF3B
S113137081EE94E0215080409040E1F700C00000ED
S1131380219709F0B5CF80E090E0EDD9C8E9DAE320
S11313906894CC24C6F8DD24D3940F2EF0EFEF2EFE
S11313A0F12CF02DFFDB8C0129D25C0127D2FC014A
S11313B0C501B601A8D19C01CF01B701A4D1A801F0
S11313C0B90122DA219771F780E090E0CCD9C0E02E
S11313D0D0E0E8DB0FE311E09E0140E050E0BE0105
S11313E044DA2196C03FD105A1F72FEF89E698E1B1
S11313F0215080409040E1F700C0000080E090E080
S1131400B2D9C8EED3E06894882486F899249394DA
S11314100F2EF0EF6F2E712CF02DF0D18C01EED148
S11314205C01ECD16C01EAD17C01BCDBFC01C8019C
S1131430B40169D18C01C501B30165D19C01C60118
S1131440B40161D16C01C701B3015DD1A601BC0136
S1131450CF010BDA219709F72FEF89E698E12150A4
S113146080409040E1F700C0000080E090E07BD92C
S1131470C0E0D0E00F2EFFE3CF2EDD24D394F02D77
S11314800F2EFFEEEF2EF12CF02D8CDB86010C1BC2
S11314901D0B97012C1B3D0BAE01BE017FDA21967B
S11314A0C837D10591F72FEF89E698E121508040A4
S11314B09040E1F700C0000080E090E054D9C0ED16
S11314C0D7E00F2EF8E1CF2EDD24D394F02D0F2E8C
S11314D0F8ECEF2EF12CF02D65DB8C018FD15C0143
S11314E08DD19C01C501B6010ED1FC017496C901D0
S11314F0B70109D1980144E150E0BF0144967EDA76
S1131500219751F72FEF89E698E1215080409040D0
S1131510E1F700C0000080E090E025D96894EE2453
S1131520E1F801E220EE37E040E058EF6AE070E0D5
S11315308AE090E061DB02E220EE37E040E058EF21
S11315406AE070E08AE190E057DB03E220EE37E0E6
S113155040E058EF6AE070E08AE290E04DDB04E29C
S113156020EE37E040E058EF6AE070E08AE390E074
S113157043DB05E220EE37E040E058EF6AE070E03C
S11315808AE490E039DB01E220EE37E040E058EFF6
S11315906AE170E08AE090E02FDB02E220EE37E0BF
S11315A040E058EF6AE170E08AE190E025DB03E275
S11315B020EE37E040E058EF6AE170E08AE290E024
S11315C01BDB04E220EE37E040E058EF6AE170E014
S11315D08AE390E011DB05E220EE37E040E058EFCB
S11315E06AE170E08AE490E007DB2FEF83ED90E39B
S11315F0215080409040E1F700C0000080E090E07E
S1131600B2D8EE24E3940DE710E020EE37E040E09A
S113161058EF61E070E081E090E0D6DB08E810E08C
S113162020EE37E040E058EF69E070E081E090E0C0
S1131630CBDB03E910E020EE37E040E058EF61E156
S113164070E08AE090E0C0DB2FEF83ED90E321505F
S113165080409040E1F700C0000080E090E083D833
S11316600F2EF4E1CF2ED12CF02DCFE0D0E0C6D058
S11316708C01C4D07C01C2D09C010170107811236C
S113168034F4015011090E6F1F6F0F5F1F4F0F5D70
S1131690C701B60138D0FC01E295F295F07FFE2730
S11316A0E07FFE27C901BE012ED06894EE24E1F844
S11316B020E030E040EE57E0BF0182959295907FA4
S11316C09827807F982798DAD2CF88E480B9089544
S11316D084EA86BF06B607FEFDCF089583B984E881
S11316E086BF06B607FEFDCF0895CF93DF93C82FBC
S11316F0D62FEEDF8D2FF2DF8C2FF0DF84E986BF4B
S1131700DF91CF91089597FB072E16F4009406D02D
S113171077FD08D017D007FC05D03EF4909581954D
S11317209F4F0895709561957F4F0895A29FB001D2
S1131730B39FC001A39F01D0B29F700D811D1124DE
S1131740911D0895AA1BBB1B51E107C0AA1FBB1F13
S1131750A617B70710F0A61BB70B881F991F5A9539
S1131760A9F780959095BC01CD0108958F929F9221
S1131770AF92BF92CF92DF92EF92FF92CF93DF931B
S1131780EC01688179818A819B81611571058105EC
S1131790910521F464E279ED8BE597E02DE133EFD7
S11317A041E050E0C9D249015A019B01AC01A7EACA
S11317B0B1E4DED26B017C01ACEEB4EFA50194017F
S11317C0E3D2DC01CB018C0D9D1DAE1DBF1DB7FF07
S11317D003C00197A109B04888839983AA83BB8376
S11317E09F77DF91CF91FF90EF90DF90CF90BF90E4
S11317F0AF909F908F900895B9DF089580E690E0B0
S1131800B5DF0895A0E0B0E080936000909361009C
S1131810A0936200B09363000895AEE0B0E0E2E10B
S1131820FCE0C4C20D891E8986E08C831A83098377
S11318308FEF9FE79E838D83AE01475E5F4F6F8975
S1131840788DCE01019609D02F813885F801E20FF9
S1131850F31F10822E96E4E0C5C2ACE0B0E0E2E3F0
S1131860FCE096C27C016B018A01FC01178216829E
S1131870838181FFB0C1CE0101964C01F7019381B0
S1131880F60193FD859193FF81916F01882309F4FB
S11318909EC1853239F493FD859193FF81916F0147
S11318A0853221F4B70190E0B1D1E8CF512C312C2D
S11318B020E02032A0F48B3269F030F4803259F009
S11318C0833269F420612CC08D3239F0803339F4CD
S11318D0216026C02260246023C0286021C027FD27
S11318E027C030ED380F3A3078F426FF06C0FAE00E
S11318F05F9E300D1124532E13C08AE0389E300DA4
S11319001124332E20620CC08E3221F426FD5FC1D7
S1131910206406C08C3611F4206802C0883641F475
S1131920F60193FD859193FF81916F018111C1CFE0
S1131930982F9F7D9554933028F40C5F1F4FFFE33D
S1131940F9830DC0833631F0833771F0833509F0A4
S113195057C021C0F801808189830E5F1F4F442442
S11319604394512C540114C03801F2E06F0E711CE1
S1131970F801A080B18026FF03C0652D70E002C08D
S11319806FEF7FEFC5012C8736D12C0183012C85A5
S11319902F77222E16C03801F2E06F0E711CF80169
S11319A0A080B18026FF03C0652D70E002C06FEFF8
S11319B07FEFC5012C8714D12C012C852068222EA1
S11319C0830123FC19C0832D90E048165906A0F426
S11319D0B70180E290E01AD13A94F5CFF50127FCE3
S11319E0859127FE81915F01B70190E00FD13110FD
S11319F03A94F1E04F1A51084114510479F7DEC0CA
S1131A00843611F0893631F5F80127FF07C060816B
S1131A107181828193810C5F1F4F08C06081718145
S1131A20072E000C880B990B0E5F1F4F2F76722E1A
S1131A3097FF09C090958095709561957F4F8F4F62
S1131A409F4F2068722E2AE030E0A40117D1A82EFF
S1131A50A81843C0853729F42F7EB22E2AE030E03F
S1131A6025C0F22FF97FBF2E8F36C1F018F48835C8
S1131A7079F0ADC0803719F0883721F0A8C02F2F36
S1131A802061B22EB4FE0DC08B2D8460B82E09C027
S1131A9024FF0AC09F2F9660B92E06C028E030E0CC
S1131AA005C020E130E002C020E132E0F801B7FED9
S1131AB007C060817181828193810C5F1F4F06C0D2
S1131AC06081718180E090E00E5F1F4FA401D6D049
S1131AD0A82EA818FB2DFF777F2E76FE0BC0372D7E
S1131AE03E7FA51450F474FE0AC072FC08C0372D62
S1131AF03E7E05C0BA2C372D03C0BA2C01C0B52CCC
S1131B0034FF0DC0FE01EA0DF11D8081803311F414
S1131B10397E09C032FF06C0B394B39404C0832F46
S1131B20867809F0B39433FD12C030FF06C05A2CF6
S1131B30B31418F4530C5B18B32CB31460F4B7014A
S1131B4080E290E03C8762D0B3943C85F6CFB31436
S1131B5010F43B1801C0312C34FF11C0B70180E3ED
S1131B6090E03C8753D03C8532FF16C031FD03C062
S1131B7088E790E002C088E590E0B7010CC0832FAD
S1131B80867851F031FF02C08BE201C080E237FD5C
S1131B908DE2B70190E03AD0A51430F4B70180E3A8
S1131BA090E034D05A94F8CFAA94F401EA0DF11DD0
S1131BB08081B70190E02AD0A110F6CF332009F438
S1131BC05DCEB70180E290E021D03A94F7CFF701DF
S1131BD08681978102C08FEF9FEF2C96E2E1F4C0DB
S1131BE0FC010590615070400110D8F780959095E4
S1131BF08E0F9F1F0895FC016150704001900110E9
S1131C00D8F7809590958E0F9F1F08950F931F937B
S1131C10CF93DF93FB01238121FD03C08FEF9FEF5F
S1131C2028C022FF16C0468157812481358142177E
S1131C30530744F4A081B1819D012F5F3F4F31834D
S1131C4020838C93268137812F5F3F4F37832683F0
S1131C5010C0EB01092F182F0084F185E02D0995A0
S1131C60892BE1F68E819F8101969F838E83812F3C
S1131C70902FDF91CF911F910F910895FA01AA2718
S1131C80283051F1203181F1E8946F936E7F6E5FBB
S1131C907F4F8F4F9F4FAF4FB1E03ED0B4E03CD069
S1131CA0670F781F891F9A1FA11D680F791F8A1F4C
S1131CB0911DA11D6A0F711D811D911DA11D20D0B3
S1131CC009F468943F912AE0269F11243019305D6D
S1131CD03193DEF6CF010895462F4770405D41935E
S1131CE0B3E00FD0C9F7F6CF462F4F70405D4A33AB
S1131CF018F0495D31FD4052419302D0A9F7EACF73
S1131D00B4E0A6959795879577956795BA95C9F7A1
S1131D1000976105710508959B01AC010A2E069494
S1131D205795479537952795BA95C9F7620F731F4D
S1131D30841F951FA01D0895052E97FB16F400948B
S1131D400FD057FD05D05BD007FC02D046F408C085
S1131D5050954095309521953F4F4F4F5F4F0895D3
S1131D6090958095709561957F4F8F4F9F4F089503
S1131D70DDDCA59F900DB49F900DA49F800D911D57
S1131D8011240895B7FFF4CFF3DF821B930B08955A
S1131D902F923F924F925F926F927F928F929F9277
S1131DA0AF92BF92CF92DF92EF92FF920F931F9365
S1131DB0CF93DF93CDB7DEB7CA1BDB0B0FB6F89416
S1131DC0DEBF0FBECDBF09942A88398848885F8456
S1131DD06E847D848C849B84AA84B984C884DF80C7
S1131DE0EE80FD800C811B81AA81B981CE0FD11DAB
S1131DF00FB6F894DEBF0FBECDBFED010895A1E28A
S1131E001A2EAA1BBB1BFD010DC0AA1FBB1FEE1F70
S1131E10FF1FA217B307E407F50720F0A21BB30BBB
S1131E20E40BF50B661F771F881F991F1A9469F737
S1131E3060957095809590959B01AC01BD01CF0193
S1091E400895F894FFCFA1
S1131E460100000030782530386C5800544553544E
S1131E562054465420494C49393334310031323305
S1131E6634354142434445004544434142353433C5
S1111E763231004142434445616263646500B9
S9030000FC
