S00C00006D616E792E7372656363
S11300000C94AB000C94C8000C94C8000C94C80069
S11300100C94C8000C94C8000C94C8000C94C8003C
S11300200C94C8000C94C8000C94C8000C94D5001F
S11300300C94C8000C94C8000C94C8000C94C8001C
S11300400C94C8000C94C8000C94C8000C94C8000C
S11300500C94C8006E616E00696E660000407A10F0
S1130060F35A00A0724E18090010A5D4E80000E865
S11300707648170000E40B54020000CA9A3B0000C3
S113008000E1F505000080969800000040420F0052
S11300900000A08601000000102700000000E80313
S11300A0000000006400000000000A0000000000DE
S11300B00100000000002C76D888DC674F0823DF9D
S11300C0C1DFAE59E1B1B796E5E3E453C63AE65170
S11300D0997696E8E6C28426EB898C9B62ED407C97
S11300E06FFCEFBC9C9F40F2BAA56FA5F490055A33
S11300F02AF75C936B6CF9676DC11BFCE0E40D4758
S1130100FEF520E6B500D0ED902E0300943577057A
S11301100080841E080000204E0A000000C80C3332
S11301203333330F986E12831141EF8D2114893BC1
S1130130E65516CFFEE6DB18D1844B381BF77C1D41
S1130140901DA4BBE424203284725E228100C9F194
S113015024ECA1E53D2711241FBECFE5D4E0DEBF8A
S1130160CDBF10E0A0E6B0E0E6E9F6E102C00590FC
S11301700D92A43CB107D9F721E0A4ECB0E001C092
S11301801D92A03AB207E1F70E943B020C94490B7E
S11301900C940000E091C700EF5FEF77E093C70095
S11301A0F0E0E853FF4F808308951F920F920FB63B
S11301B00F9211242F933F934F935F936F937F93E9
S11301C08F939F93AF93BF93EF93FF938CB18093DF
S11301D0C40091E09093C5000E94CA00FF91EF9182
S11301E0BF91AF919F918F917F916F915F914F914B
S11301F03F912F910F900FBE0F901F90189583E0A1
S113020083BF0895AB01BC0104C012BE82B78D3711
S1130210E8F34150510961097109B8F7089561156E
S11302207105B1F0FC01680F791F80E058E048E1E6
S11302302191952F322F382730FF0CC084278695C3
S1130240806826959150B1F7E617F70789F7089566
S113025080E008958695F5CFCF92DF92EF92FF92DA
S11302600F931F93CF93DF93CDB7DEB72A970FB6C3
S1130270F894DEBF0FBECDBF8C016B010E941D033D
S1130280982F882309F442C00115110521F0C801F3
S11302900E94060403C08CEC0E9460038EEB0E9453
S11302A06003FE0131968AE0DF011D928A95E9F729
S11302B081E0898382E08A8383E08B8384E08C837A
S11302C085E08D8386E08E8387E08F8388E088874E
S11302D089E089878F017E01BAE0EB0EF11C0E9450
S11302E07E03F80181938F01EE15FF05C1F7898123
S11302F0D6018C938A8111968C9369E070E0CE01CB
S113030001960E940F0191E0811190E0892F2A96B5
S11303100FB6F894DEBF0FBECDBFDF91CF911F9112
S11303200F91FF90EF90DF90CF900895CF92DF92DE
S1130330EF92FF92CF93DF93FC012081C1818C2F38
S11303408770F0E18F9FC0011124622F62956F7056
S1130350682B822F8F70982F990F890FD82FDD0F5C
S11303608D2FCC3F18F09FE7961B692F8436D0F46D
S113037070E080E090E00E9441056B017C016D2FEC
S113038070E080E090E00E943F0520E030E048EC1F
S113039052E40E94CD049B01AC01C701B6010E9446
S11303A0610419C070E080E090E00E9441056B0197
S11303B07C016D2F70E080E090E00E943F0520E01A
S11303C030E04AE754E40E94CD049B01AC01C7012C
S11303D0B6010E946104CC3F08F09058DF91CF91A0
S11303E0FF90EF90DF90CF900895DF92EF92FF920D
S11303F00F931F93CF93DF93CDB7DEB729970FB633
S1130400F894DEBF0FBECDBF8FEF89870F2EFDE4BA
S1130410EF2EF1E0FF2EF02DD12C8E01075F1F4F40
S1130420BE016F5F7F4FC8010E94FC0399859E5FE8
S1130430923090F0FE013196D70191919D93E0178F
S1130440F107D9F7D3948985882331F088E0E80E41
S1130450F11C8AE0D812E4CF8D2D29960FB6F894BA
S1130460DEBF0FBECDBFDF91CF911F910F91FF90E3
S1130470EF90DF900895CF93DF93CDB7DEB7C255E9
S1130480D1090FB6F894DEBF0FBECDBF82E087BBA3
S113049088BB14BA15BA81BB12BA60E875E280E071
S11304A090E00E9421040E94FF0080E690E00E94F8
S11304B040042FEF39E688E1215030408040E1F7D5
S11304C000C000000E94F50180934C011F928F939D
S11304D080E790E09F938F938E010F5F1F4F1F93D0
S11304E00F930E94C80AC8010E944004F801CE017B
S11304F08F5A9F4F0F900F900F900F900F900F9067
S11305001192E817F907E1F79FEF24E33CE09150DB
S113051020403040E1F700C00000612C0F2EF6E9C6
S11305208F2EF0E09F2EF02DCE0101966C010F2E40
S1130530F9EBAF2EF0E0BF2EF02D782E0D2D80912B
S11305404C01882309F467C0162DE12EF12CF70124
S1130550EE0FFF1FEE0FFF1FEE0FFF1FE35BFE4FBB
S11305608081883209F051C083E990E00E94400400
S1130570C701880F991F880F991F880F991F9C0125
S1130580235B3E4F7901FF922F939F928F92DF92CC
S1130590CF920E94C80A872D902F0E94400482EABD
S11305A090E00E94400460E273E080E090E00E94EA
S11305B00201BE016F5A7F4FC7010E942C01CE0178
S11305C08F5A9F4F0E949601262F372F462F572F61
S11305D0682F792F409348015093490160934A0151
S11305E070934B019F938F933F932F93BF92AF923E
S11305F0DF92CF920E94C80A872D902F0E94400458
S11306000FB6F894DEBF0FBECDBF1F5F80914C01C3
S1130610181708F49ACF9FEF23EC39E0915020404B
S11306203040E1F700C000008ACF882319F0C09859
S1130630B89A0895C098B898089581E00E94150367
S11306408FEB93E00197F1F700C0000080E00E9477
S1130650150390EA9A95F1F786B3E7E4F3E031974E
S1130660F1F700C00000809581700895CF93C82FE2
S113067081E00E94150382E08A95F1F700C0CC2343
S113068019F080E00E94150380EA8A95F1F780E072
S11306900E941503CF91089581E00E94150382E022
S11306A08A95F1F700C080E00E94150395E29A95BF
S11306B0F1F7000086B398E79A95F1F781700895F1
S11306C0FF920F931F93CF93DF93F82EC0E0D0E0F7
S11306D001E010E0C8010C2E02C0880F991F0A9493
S11306E0E2F78F210E9436032196C830D10591F795
S11306F0DF91CF911F910F91FF900895EF92FF9298
S11307001F93CF93DF93C0E0D0E010E0EE24E39496
S1130710F12C0E944C03882341F0C7010C2E02C027
S1130720880F991F0A94E2F7182B2196C830D10537
S113073081F7812FDF91CF911F91FF90EF90089562
S1130740CF92DF92EF92FF920F931F93CF93DF9399
S1130750D82E8B010E941D03882359F180EF0E943B
S11307606003E12CC0E4CC24C3940F2EF8EFFF2ED9
S1130770F02DFC0E0E944C03D82F0E944C038823BA
S113078019F0DD23D1F017C0D11124C0CD15E8F044
S1130790F801808180FF11C0DC121AC00EC0C15064
S11307A0CF11E8CF0F5F1F4FCF2DF110DECF8E2D6D
S11307B01AC08FEF18C08EEF16C080E00E94360377
S11307C0F801908196959083EACFEC2EDC2D02C03F
S11307D0EC2EDC2D8D2F0E943603F8019081969526
S11307E090689083DCCFDF91CF911F910F91FF90A0
S11307F0EF90DF90CF900895CF93DF93EC01888141
S11308000E94A0038883DF91CF9108950F931F93D3
S1130810CF93DF938C010E941D03882369F085E543
S11308200E946003E801085F1F4F89910E946003E2
S1130830C017D107D1F781E0DF91CF911F910F91BC
S113084008959B01AC0160E271EA87E090E00E94A8
S11308504909DA01C9010197A109B109892F9A2F20
S1130860AB2FBB2780BD215029B91BB88AB1886939
S11308708AB986E880BD08955D9BFECF8CB9089542
S11308800F931F93CF93DF938C01FC018081882306
S113089061F0E80189910E943C049C2F901BFE01A9
S11308A0E90FF11D90819111F5CF8DE00E943C0478
S11308B08AE00E943C04DF91CF911F910F9108952B
S11308C05058BB27AA270E9478040C9493050E94D1
S11308D0850538F00E948C0520F039F49F3F19F407
S11308E026F40C9482050EF4E095E7FB0C947C0549
S11308F0E92F0E94A40558F3BA1762077307840707
S1130900950720F079F4A6F50C94C6050EF4E0954D
S11309100B2EBA2FA02D0B01B90190010C01CA01B5
S1130920A0011124FF27591B99F0593F50F4503E60
S113093068F11A16F040A22F232F342F4427585F52
S1130940F3CF469537952795A795F0405395C9F76A
S11309507EF41F16BA0B620B730B840BBAF0915022
S1130960A1F0FF0FBB1F661F771F881FC2F70EC0C1
S1130970BA0F621F731F841F48F487957795679594
S1130980B795F7959E3F08F0B0CF9395880F08F080
S11309909927EE0F9795879508950E94E1040C948A
S11309A093050E948C0558F00E94850540F029F4B7
S11309B05F3F29F00C947C0551110C94C7050C94ED
S11309C082050E94A40568F39923B1F3552391F39A
S11309D0951B550BBB27AA2762177307840738F0AA
S11309E09F5F5F4F220F331F441FAA1FA9F335D007
S11309F00E2E3AF0E0E832D091505040E695001CBB
S1130A00CAF72BD0FE2F29D0660F771F881FBB1F74
S1130A10261737074807AB07B0E809F0BB0B802D52
S1130A20BF01FF2793585F4F3AF09E3F510578F07E
S1130A300C947C050C94C7055F3FE4F3983ED4F313
S1130A40869577956795B795F7959F5FC9F7880F52
S1130A50911D9695879597F90895E1E0660F771FA4
S1130A60881FBB1F621773078407BA0720F0621B35
S1130A70730B840BBA0BEE1F88F7E0950895E89486
S1130A8009C097FB3EF490958095709561957F4FD2
S1130A908F4F9F4F9923A9F0F92F96E9BB27939580
S1130AA0F695879577956795B795F111F8CFFAF490
S1130AB0BB0F11F460FF1BC06F5F7F4F8F4F9F4FC1
S1130AC016C0882311F096E911C0772321F09EE81F
S1130AD0872F762F05C0662371F096E8862F70E085
S1130AE060E02AF09A95660F771F881FDAF7880F5F
S1130AF09695879597F9089597F99F6780E870E030
S1130B0060E008959FEF80EC089500240A9416167F
S1130B10170618060906089500240A9412161306E7
S1130B20140605060895092E0394000C11F4882375
S1130B3052F0BB0F40F4BF2B11F460FF04C06F5F91
S1130B407F4F8F4F9F4F089557FD9058440F551F67
S1130B5059F05F3F71F04795880F97FB991F61F03B
S1130B609F3F79F087950895121613061406551FB2
S1130B70F2CF4695F1DF08C0161617061806991F1E
S1130B80F1CF86957105610508940895E894BB2713
S1130B9066277727CB0197F90895A3E1B0E0E3ED49
S1130BA0F5E00C946B096C014B012A01FC011782DE
S1130BB01682838181FF43C3AE014F5F5F4F3A01C9
S1130BC0F6019381F40193FD859193FF81914F0187
S1130BD0882309F430C3853239F493FD859193FF5A
S1130BE081914F01853239F4B60190E00E94900A58
S1130BF052012501E5CF10E0F12C20E02032A0F4D1
S1130C008B3269F030F4803259F0833269F4206118
S1130C102CC08D3239F0803339F4216026C0226033
S1130C20246023C0286021C027FD27C030ED380F81
S1130C303A3078F426FF06C0FAE01F9F300D1124E5
S1130C40132F13C04AE0F49E300D1124F32E2062BA
S1130C500CC08E3221F426FDEEC2206406C08C3610
S1130C6011F4206802C0883641F4F40193FD8591A3
S1130C7093FF81914F018111C1CF9BEB980F93306A
S1130C8018F42061805E06C09BE9980F933008F049
S1130C9071C12F7E26FF16E02F73322E853619F48C
S1130CA02064322E08C0863621F4F22FF0683F2EDD
S1130CB002C01111115037FE07C01C3350F4EE244A
S1130CC0E394E10E27E00BC0183038F027E017E07A
S1130CD005C027E04CE3E42E02C0212FE12C520191
S1130CE044E0A40EB11CF201608171818281938180
S1130CF00E2DA3010E94A2092C01098100FF02C04C
S1130D0003FF07C031FC08C032FE09C030E2232EC5
S1130D1007C02DE2222E04C09BE2292E01C0212C03
S1130D20802F8C7019F0211068C2A8C237FE0FC042
S1130D30E40C04FF04C08A81813309F4EA941E148C
S1130D4074F5F8E0FE1578F588E0E82E2CC036FC42
S1130D502AC0812F90E0841595059CF02CEF421653
S1130D602FEF520674F0432D4068342E0AC0E2E09F
S1130D70F0E0EC0FFD1FE10FF11D8081803319F4C9
S1130D8011501111F4CF37FE0EC0EE24E394E10E9E
S1130D90812F90E0481659062CF4141904C0EE244F
S1130DA0E39401C010E037FE06C01414150434F4B3
S1130DB0C201019605C085E090E002C081E090E0A8
S1130DC021100196112331F0212F30E02F5F3F4F86
S1130DD0820F931F2F2D30E08217930714F4F81A13
S1130DE001C0F12C832D897049F4FF2039F0B6013C
S1130DF080E290E00E94900AFA94F7CF222029F032
S1130E00B601822D90E00E94900A33FC09C0FF20B5
S1130E1039F0B60180E390E00E94900AFA94F7CF8B
S1130E2037FE5AC0942D852D57FE02C090E080E015
S1130E30292E382E20E030E0A2014E1951095D8799
S1130E404C87A201421953095F874E87612F70E0D6
S1130E5044275527461B570B598B488B5FEF2516A4
S1130E60350649F4B6018EE290E02A8B3B8B0E9452
S1130E70900A3B892A89421453046CF04C855D85A1
S1130E804215530544F4EE85FF85E20FF31FE60D8A
S1130E90F71D818101C080E351E0251A31082F5FDD
S1130EA03F4F48895989241635064CF0B60190E025
S1130EB02A8B3B8B0E94900A2A893B89CFCF24142A
S1130EC0350439F49A81963318F4953311F404FFF8
S1130ED081E3B60190E04BC08A81813309F00F7E33
S1130EE0B60190E00E94900A111105C034FC18C0AC
S1130EF085E690E017C0B6018EE290E00E94900A69
S1130F0082E0EE24E394E80EF301E80FF11D808102
S1130F10B60190E00E94900A11508E2D91F7E6CF11
S1130F2085E490E0B6010E94900A57FC05C0411484
S1130F30510439F404FF05C05194419451088DE2E1
S1130F4001C08BE2B60190E00E94900A80E39AE02F
S1130F50491651042CF08F5F5AE0451A5108F7CF17
S1130F60B60190E00E94900AB601C201C0960E94A8
S1130F70900A57C1833631F0833779F0833509F00D
S1130F8058C021C05201E2E0AE0EB11CF2018081D2
S1130F90898301E010E0230114C05201F2E0AF0E96
S1130FA0B11CF2014080518026FF03C0612F70E024
S1130FB002C06FEF7FEFC2012A8B0E94850A8C0169
S1130FC02A892F7715C05201F2E0AF0EB11CF2014D
S1130FD04080518026FF03C0612F70E002C06FEF94
S1130FE07FEFC2012A8B0E947A0A8C012A89206829
S1130FF0322E23FD1AC08F2D90E008171907A8F48C
S1131000B60180E290E00E94900AFA94F4CFF201D3
S113101037FC859137FE81912F01B60190E00E9443
S1131020900AF110FA94015011090115110579F78C
S1131030F8C0843611F0893659F5520127FF09C0EA
S1131040F4E0AF0EB11CF201608171818281938161
S11310500AC0F2E0AF0EB11CF20160817181072E6B
S1131060000C880B990B2F76322E97FF09C09095B0
S11310708095709561957F4F8F4F9F4F2068322EDA
S11310802AE030E0A3010E94EB0AE82EE6183FC0F4
S1131090022F853721F40F7E2AE030E01DC0097F3E
S11310A08F3691F018F4883559F0C5C0803719F09F
S11310B0883711F0C0C0006104FF09C0046007C094
S11310C024FF08C0066006C028E030E005C020E127
S11310D030E002C020E132E0520107FF09C0F4E031
S11310E0AF0EB11CF201608171818281938108C0CD
S11310F0F2E0AF0EB11CF2016081718180E090E0FA
S1131100A3010E94EB0AE82EE6180F77302E36FE74
S11311100BC0332D3E7FE11650F434FE0AC032FC7E
S113112008C0332D3E7E05C00E2D332D03C00E2D79
S113113001C0012F34FF0CC0FE01EE0DF11D8081B2
S1131140803311F4397E08C032FF05C00E5F04C03D
S1131150832F867809F00F5F33FD13C030FF06C07C
S11311601E2D0F1518F41F0D101B0F2D0F1568F4ED
S1131170B60180E290E03B8B0E94900A0F5F3B89AE
S1131180F5CF0F1510F4F01A01C0F12C34FF12C082
S1131190B60180E390E03B8B0E94900A3B8932FFCA
S11311A017C031FD03C088E790E002C088E590E0F5
S11311B0B6010CC0832F867859F031FF02C08BE250
S11311C001C080E237FD8DE2B60190E00E94900AF2
S11311D0E11638F4B60180E390E00E94900A1150C1
S11311E0F7CFEA94F301EE0DF11D8081B60190E092
S11311F00E94900AE110F5CF14C0F4E0FF1558F5F1
S113120084E0F81A33FE1EC0211026C003FF2AC052
S113121004E510E0F32DF0713F2EF8018491811163
S113122024C0FF2009F4E5CCB60180E290E00E94DE
S1131230900AFA94F6CFF6018681978126C08FEF43
S11312409FEF23C0B60180E290E00E94900AFA94D6
S1131250F110F8CFD9CFF12CB601822D90E00E9485
S1131260900AD4CF08E510E0D5CF31108052B601F2
S113127090E00E94900A0F5F1F4FCFCF23E02F15FD
S113128010F483E0BECFF12CC1CF6396E2E10C945D
S11312908709A1E21A2EAA1BBB1BFD010DC0AA1FC0
S11312A0BB1FEE1FFF1FA217B307E407F50720F0CB
S11312B0A21BB30BE40BF50B661F771F881F991F46
S11312C01A9469F760957095809590959B01AC018F
S11312D0BD01CF0108952F923F924F925F926F927A
S11312E07F928F929F92AF92BF92CF92DF92EF92B2
S11312F0FF920F931F93CF93DF93CDB7DEB7CA1B33
S1131300DB0B0FB6F894DEBF0FBECDBF09942A885D
S1131310398848885F846E847D848C849B84AA8405
S1131320B984C884DF80EE80FD800C811B81AA8192
S1131330B981CE0FD11D0FB6F894DEBF0FBECDBF5D
S1131340ED010895283008F027E03327DA01990FDA
S1131350311D87FD916000966105710539F4326095
S11313602E5F3D9330E32A95E1F708959F3F30F0D7
S113137080387105610509F03C5F3C5F3D93913015
S113138008F08068911DDF93CF931F930F93FF9212
S1131390EF92192F987F9695E92F96959695E90FD8
S11313A0FF27EA54FF4F99273327EE24FF24A70190
S11313B0E70105900894079428F4360FE71EF81EF9
S11313C0491F511D660F771F881F991F0694A1F7A7
S11313D00590079428F4E70EF81E491F561FC11DF7
S11313E0770F881F991F661F0694A1F7059007942D
S11313F028F4F80E491F561FC71FD11D880F991FC7
S1131400661F771F0694A1F70590079420F4490FEF
S1131410561FC71FD81F990F661F771F881F069472
S1131420A9F784911095177041F0D695C7955795F3
S11314304795F794E7941A95C1F7ECE5F0E06894C2
S11314401590159135916591959105907FE273956D
S1131450E118F10A430B560BC90BD009C0F7E10C94
S1131460F11E431F561FC91FD01D7EF4703311F4A3
S11314708A95E6CFE894015030F0080F0AF400276B
S1131480021708F4202F2395022F7A3328F079E3EA
S11314907D932A95E9F710C07D932A9589F60694E1
S11314A097956795379517951794E118F10A430BAB
S11314B0560BC90BD00998F023957E9173957A3316
S11314C008F070E37C932013B8F77E9170617D93EC
S11314D030F0839571E37D9370E32A95E1F711244D
S11314E0EF90FF900F911F91CF91DF91992787FD86
S11314F090950895FC010590615070400110D8F753
S1131500809590958E0F9F1F0895FC016150704047
S113151001900110D8F7809590958E0F9F1F089524
S11315200F931F93CF93DF93FB01238121FD03C00E
S11315308FEF9FEF28C022FF16C046815781248178
S113154035814217530744F4A081B1819D012F5F77
S11315503F4F318320838C93268137812F5F3F4F08
S11315603783268310C0EB01092F182F0084F185DF
S1131570E02D0995892BE1F68E819F8101969F8349
S11315808E83812F902FDF91CF911F910F9108951A
S1131590AEE0B0E0EEECFAE00C9479090D891E8916
S11315A086E08C831A8309838FEF9FE79E838D8364
S11315B0AE01475E5F4F6F89788DCE0101960E9420
S11315C0CD052F813885F801E20FF31F10822E9686
S11315D0E4E00C949509FA01AA27283051F120314E
S11315E081F1E8946F936E7F6E5F7F4F8F4F9F4FB3
S11315F0AF4FB1E03ED0B4E03CD0670F781F891FF5
S11316009A1FA11D680F791F8A1F911DA11D6A0FC2
S1131610711D811D911DA11D20D009F468943F9175
S11316202AE0269F11243019305D3193DEF6CF0174
S11316300895462F4770405D4193B3E00FD0C9F73A
S1131640F6CF462F4F70405D4A3318F0495D31FDA7
S11316504052419302D0A9F7EACFB4E0A6959795FA
S1131660879577956795BA95C9F7009761057105D0
S113167008959B01AC010A2E06945795479537951A
S11316802795BA95C9F7620F731F841F951FA01D74
S10916900895F894FFCF59
S113169648656C6C6F2054656D702121210D0A001C
S11316A62D2D2D2D2D2D2D2D466F756E6420257512
S11316B620446576696365732D2D2D2D2D2D2D2DD5
S11316C62D2D200D0A0041646472657373202575FF
S11316D63A00202D20546865726D6F6D65746572CD
S11316E6204453313842323000543D25332E32667D
S10716F620433A004F
S9030000FC
