S00D000054696D65722E7372656316
S11300000C942A000C9494010C949E010C946F009F
S11300100C945A000C9499000C94AB000C943C0082
S11300200C9481000C943E000C943C000C943C0015
S11300300C943C000C943C000C943C000C943C004C
S11300400C943C000C943C000C943C000C94480030
S11300500C943C0011241FBECFE5D4E0DEBFCDBF1D
S113006020E0A0E6B0E001C01D92A336B207E1F79C
S11300700E94A8010C94BC010C9400001F920F92E2
S11300800FB60F9211240F900FBE0F901F9018956A
S11300901F920F920FB60F9211248F939F9392B3D6
S11300A081E0892782BB9F918F910F900FBE0F90A3
S11300B01F9018951F920F920FB60F9211248F93D1
S11300C09F9392B382E0892782BB8091620084BDB2
S11300D09F918F910F900FBE0F901F9018951F92B4
S11300E00F920FB60F9211248F939F9392B382E0D5
S11300F0892782BB9F918F910F900FBE0F901F9005
S113010018951F920F920FB60F9211248F939F93FD
S113011092B384E0892782BB809160009091610052
S11301209DBD8CBD9F918F910F900FBE0F901F901E
S113013018951F920F920FB60F9211248F939F93CD
S113014092B384E0892782BB9F918F910F900FBE59
S11301500F901F9018951F920F920FB60F921124B3
S11301608F939F9392B384E0892782BB9F918F9151
S11301700F900FBE0F901F901895823099F028F4BD
S1130180882349F0813051F00895843099F070F05B
S11301908530A1F008958EB58EBD08958EB5816029
S11301A08EBD08958EB582608EBD08958EB5836030
S11301B08EBD08958EB584608EBD08958EB585601C
S11301C08EBD08950F93CF93DF93C82FD92F41305D
S11301D009F055C06930F9F06A30B9F1683009F0B6
S11301E09FC08FB581608FBD8EB588608EBD822F14
S11301F00E94BD00011106C08FB580688FBDDBBDB4
S1130200CABD8EC0013009F08BC08FB580628FBD2E
S1130210D9BDC8BD85C08FB582608FBD8EB58860DD
S11302208EBD822F0E94BD00011106C08FB580686B
S11302308FBDDBBDCABD74C0013009F071C08FB57C
S113024080628FBDD9BDC8BD6BC08FB583608FBDC3
S11302508EB588608EBD822F0E94BD00011106C03C
S11302608FB580688FBDDBBDCABD5AC0013009F0AF
S113027057C08FB580628FBDD9BDC8BD51C0423053
S113028009F04EC06930E9F06A3099F1683009F03C
S113029047C08FB581608FBD8EB58EBD822F0E9401
S11302A0BD00011106C08FB580688FBDDBBDCABD1E
S11302B037C00130A9F58FB580628FBDD9BDC8BDE7
S11302C02FC08FB582608FBD8EB58EBD822F0E94E8
S11302D0BD00011106C08FB580688FBDDBBDCABDEE
S11302E01FC00130E9F48FB580628FBDD9BDC8BD90
S11302F017C08FB583608FBD8EB58EBD822F0E94CF
S1130300BD00011106C08FB580688FBDDBBDCABDBD
S113031007C0013029F48FB580628FBDD9BDC8BD37
S1130320DF91CF910F9108951F920F920FB60F9204
S113033011240F900FBE0F901F9018951F920F92CB
S11303400FB60F9211240F900FBE0F901F901895A7
S1130350889A9098899A91988A9A92988C9A949863
S11303608D9A959800E025E041E06AE084E893E006
S10F03700E94E2007894FFCFF894FFCFC5
S9030000FC
