S00C00006D61696E2E7372656373
S11300000C9452060C946F060C946F060C946F06B5
S11300100C946F060C946F060C946F060C946F0688
S11300200C946F060C946F060C946F060C946F0678
S11300300C946F060C946F060C946F060C946F0668
S11300400C946F060C946F060C946F060C946F0658
S11300500C946F069F06A306A606AA06AD06B10673
S1130060B406B80600000000000000000000000014
S11300700000000000F80000000000000400000080
S113008000380800380800000000000000000040AC
S1130090E058E05800000D030D0301000060909843
S11300A09000000003020E0100000090A890404060
S11300B000000000020502000000C0202000000033
S11300C003040502050000000078000000000000A1
S11300D000000000000000E0180000000000071805
S11300E00000000018E000000000001807000000F5
S11300F00010D038D0100000000000000000808004
S113010080F08080800000000700000000000000F4
S11301100000000000180E02000000808080808033
S113012000000000000000000000000000000000CB
S113013000060600000000000080601800000806A9
S11301400100000000F0080808F0000003040404A3
S11301500300000008F80000000004040704040081
S1130160001008884830000006050404060000104A
S1130170084848B000000204040403000080403032
S113018008F80000010101050705000078484888C7
S1130190000002040404030000E050484888000002
S11301A003040404030000180808C8380000000011
S11301B00601000000B0484848B0000003040404ED
S11301C003000070888888F0000004040402010021
S11301D0000060600000000000060600000000004F
S11301E0006060000000000C060200008040402017
S11301F0101000000101020404000040404040408F
S113020000000101010101001010204040800004A1
S113021004020101000000002010906000000004AE
S11302200500000000F804C424F8000007080809C9
S113023005000000E818E0000004070501050704B4
S113024008F8484848B0000407040404030000F018
S113025008080818000003040404020008F8080849
S113026010E0000407040402010008F848E8081834
S113027000040704040406000008F848E80818000D
S113028004070400000000F00808889880000304B4
S11302900404030008F8484048F80804070400046C
S11302A00704000808F80808000004040704040010
S11302B000800808F808000003040403000008F89C
S11302C088C0281808040704000106040008F80878
S11302D00000000004070404070008F838C038F8D8
S11302E0080407040004070408F838C008F80804E0
S11302F007040106070000F0080808F000000304E2
S1130300040403000008F88888700000040704004F
S1130310000000F0080808F0000003040C0C0B00B7
S113032008F888888870000407040001020400307B
S1130330484850980000060204040300180808F80E
S11303400808180000040704000008F8080008F86A
S113035008000304040403000838C800C83808006F
S113036000010601000008F808C008F808000304AA
S113037003040300081820C0201808040601000123
S113038006040818688068180800000407040000C0
S1130390001808C828180000060504040600000018
S11303A0F80808000000001F10100000000870800A
S11303B0000000000000010E000000000808F80022
S11303C000000010101F0000004020182040000012
S11303D000000000000000000000000000202020B9
S11303E02020202000000008100000000000000071
S11303F000000040A0A0A0C00000030404040704FF
S113040008F8402020C0000407040404030000C0CE
S113041020202060000003040404020000C0202007
S113042048F8000003040404070400C0A0A0A0C00E
S113043000000304040404000020F028282800001D
S113044004070404040000C0202040E0200003143A
S113045014140F0008F8402020C00004070400040E
S11304600704002020E8000000000404070404003E
S113047000202028E00000001010100F000008F8F1
S113048080A060200004070005060400000008F8AE
S11304900000000004040704040020E020C020C081
S11304A0000407040704070420E0402020C00004DF
S11304B007040004070400C0202020C00000030437
S11304C00404030020E0402020C000101F14040492
S11304D0030000C0202040E02000030404141F1087
S11304E00020E04020200000040704040400004031
S11304F0A0A0A06000000604040403000020F02073
S11305002020000000030404040220E0000020E096
S1130510000003040402070420E0200020E020007F
S113052000030403000020E0208020E020000304F6
S1130530030403002060808060200004060101069B
S113054004002060A00020E0200010111E13000011
S1130550006020A0602000000605040406000000DE
S113056000F00800000000010E100000000000F878
S11305700000000000000F000000000008F0000070
S1130580000000100E010000000080000080000048
S1130590010001010000F808080808F80007040435
S11305A0040407001808F888584080000407040071
S11305B004030008F80A09083800040704000000CE
S11305C00000000000000000180E020000000020DF
S11305D0E02824E0000004070400010000000000FB
S11305E00000000008040A040200000000000000EB
S11305F00000040004000400002020F82020000073
S1130600000007000000002020F820200000010165
S113061007010100A0F0A8A8A8A81800010204047A
S113062004021068502020000000020502020502A6
S11306300008F808F848800604030407040300804F
S1130640402000000000010204000000F88880F847
S11306508880000704000704040308F848A211086E
S113066018040704000106041808F88858C000009C
S113067004070400070408F8080008F8080407043D
S11306801C04070410F85050408000040714101094
S11306900F000000000838600000000000000000A7
S11306A0006038080000000000000000000000089E
S11306B01028102000000000000000000020102876
S11306C0100800000000000000000000E0E0E0006E
S11306D00000000000000000008080808080000096
S11306E00000000000008080808080808000000086
S11306F000000000F808080808F8000704040404CF
S1130700070078487858205878000000000000005E
S113071020E020E0A0800004070007040700000098
S113072000204080000000000402010020E080E07E
S1130730A080000407000704070020E0A0C824608C
S1130740000407040001060410F85050408000041F
S113075007040004070420E0200020E0200407042C
S11307601C0407040000000000000000000000005A
S11307700000083849824A390800040601000000D4
S11307802060A40828E4200018110E030000008053
S11307900808F80800000304040300000010E02027
S11307A020E010000201010101020008F808080E0F
S11307B000000407040000000000007800000000AE
S11307C000001E0000000060B828488818000C08CB
S11307D0090A0E0308F84AE80A1800040704040486
S11307E00600C020D0505020C001020505050201BA
S11307F000F0484848180000030404040200000004
S11308008040008040000102040102040000000056
S11308100000000101010101010700808080808047
S11308200000000000000000C020F0B07020C001F3
S113083003050505020100080AF80A08000004047B
S11308400704040000001C141C0000000000000049
S11308500000808080F08080800404040704040485
S1130860000808F808080000040407040400002035
S113087020E8000000000404070404000020E02035
S11308802038000004070400000020E0000020E0FD
S113089000001F0404020704708888F808F80800A0
S11308A008080F000F080000C0C00000000000008E
S11308B00000000000C0A8A0A8C0000003040404B5
S11308C0040008F87088F80870040704030700019E
S11308D000C0A0A0206000000304040402004080C3
S11308E000408000000402010402010000202028CE
S11308F0E00000001010100F00000030484850982D
S113090000000602040403000040A0A0A060000050
S1130910060404040300002028E008000000040486
S1130920070404000000E818E000000407050105BE
S1130930070408F84848489800040704040403001E
S113094008F8484848B000040704040403000008F9
S1130950F8080808380004070400000008F808082C
S1130960F808001C070404071C0008F848E80818E5
S113097000040704040406000818A0F8A0180804DA
S11309800700070007040038104848B000000404BA
S11309900404030008F808C030F80804070300043E
S11309A0070408F809C232F908040703000407041D
S11309B008F848A0100818040704000106040008F9
S11309C0F80808F8080404030004070408F838C009
S11309D038F8080407040004070408F8484048F8F5
S11309E0080407040004070400F0080808F00000E5
S11309F003040404030008F8080808F808040704BA
S1130A00000407040008F888887000000407040044
S1130A10000000F0080808180000030404040200A1
S1130A20180808F80808180000040704000008382B
S1130A30488048380800040601000000C02028F857
S1130A402820C000010507050100081820C020184F
S1130A50080406010001060408F8080008F8080460
S1130A6007040404071C08F8080088F808000001BB
S1130A700104070408F800F800F808040704070450
S1130A80070408F800F800F8080407040704071C22
S1130A907808F8484040800004070404040308F878
S1130AA0488008F8080407040304070408F84840C9
S1130AB0408000040704040403000018484848F078
S1130AC0000002040404030008F848F00808F004D5
S1130AD00704030404030070888888F808040300EA
S1130AE0000407040040A0A0A0C000000304040404
S1130AF0070400F048282CC0000003040404030089
S1130B000020E0A0A0400000040704040700002027
S1130B10E02020E000000407040001000020E020A1
S1130B2020E0200C04070404070C00C0A0A0A0C00F
S1130B300000030404040400602040E0402060043A
S1130B400601070106040020A0A0A0400000040440
S1130B500404030020E0208040E020040702010494
S1130B60070420E0248848E4200407020104070461
S1130B7020E0A0C020600004070400010604002057
S1130B80E02020E0200604030004070420E0608045
S1130B9060E0200407040104070420E0A080A0E032
S1130BA0200407040004070400C0202020C0000023
S1130BB003040404030020E0202020E020040704B0
S1130BC00004070420E0402020C000101F14040487
S1130BD0030000C02020206000000304040402007D
S1130BE000E020E020E00000000407040000206092
S1130BF0A00020E0200018110E030000C02028F8F7
S1130C002020C00304141F1404032060808060208B
S1130C10000406010106040020E0200020E0200476
S1130C2007040404070C20E02000A0E020000101D8
S1130C300104070420E000E000E0200407040704A6
S1130C40070420E000E000E0200407040704070C88
S1130C50E020E0A08080000004070404030020E0FA
S1130C60A08020E0200407040704070420E0A080FB
S1130C7080000004070404040300006020A0A0C056
S1130C80000002040404030020E0A0C02020C004EB
S1130C9007040304040300C02020E020000406012C
S1130CA00507040011241FBECFE5D4E0DEBFCDBF8D
S1130CB010E0A0E6B0E0EEEBF0E102C005900D928A
S1130CC0AE36B107D9F720E0AEE6B0E001C01D9220
S1130CD0AE36B207E1F70E9444080C945D080C9408
S1130CE00000FC01892B09F446C08181803179F42C
S1130CF087B3806B87BBC49A91818081892B928151
S1130D00892B9481892B9581892B8DB90DC0BE9A2D
S1130D1090818181892B80689281892B9481892B90
S1130D209581892B8DB97894E3818E2F90E088305A
S1130D30910508F5FC01E65DFF4F0C945708709A85
S1130D408DB18DB908958DB18DB90895709A689A51
S1130D5069980895689A69980895709A6898699A44
S1130D6008956898699A08958DB183608DB908953E
S1130D708DB18C7F8DB90895C4988FB9779BFECFC0
S1130D808FB1C49A089593980E94BC060895939ACB
S1130D900E94BC060895CF93DF9300D000D000D00A
S1130DA0CDB7DEB780E4898380E18A831C821D820B
S1130DB01E821B82CE0101960E9471068A9A8B9A2A
S1130DC08F9A929897988FEC97E00197F1F700C06B
S1130DD00000979A8FEC97E00197F1F700C00000AC
S1130DE081E10E94C3068FEC97E00197F1F700C000
S1130DF000008AE30E94C30685E00E94C70686E3DA
S1130E000E94C30684E10E94C70689E20E94C306C9
S1130E10929A26960FB6F894DEBF0FBECDBFDF912F
S1130E20CF9108950F931F93CF93DF93082FD62F5D
S1130E30142FC22F8AE20E94C30680E00E94C706D4
S1130E40802F0E94C70680E00E94C706812F0E945F
S1130E50C7068BE20E94C30680E00E94C7068D2F5E
S1130E600E94C70680E00E94C7068C2F0E94C70616
S1130E70DF91CF911F910F9108959F92AF92BF92EE
S1130E80CF92DF92EF92FF920F931F93CF93DF9352
S1130E90D82F962EC42EE22E9298242F4E2D682FF2
S1130EA0892D0E9412078CE20E94C306D12C8FEF79
S1130EB0C81AD80A8D2F90E08C159D05F4F4F12CF6
S1130EC08FEFE81AF80AA92CB12C13C0C92D812F71
S1130ED00E94C706802F0E94C706CF5F2C2F30E0E8
S1130EE02E153F05A4F3DF5F2D2F30E02C153D05B3
S1130EF024F4AE14BF0454F3F6CF929ADF91CF9149
S1130F001F910F91FF90EF90DF90CF90BF90AF9023
S1130F109F9008950F931F938C012FE74FE960E092
S1130F2080E00E943D071F910F9108956F927F9278
S1130F308F929F92AF92BF92CF92DF92EF92FF92E5
S1130F400F931F93CF93DF93982F862FC42F822E56
S1130F50932E929828E0290F4CE0460F692F0E94A7
S1130F6012078CE20E94C3068C2F90E08097880FB2
S1130F70991F6C01CC0CDD1CCC0CDD1CCC0CDD1CD5
S1130F809601281B390BF901EC59FF4F7F012559B4
S1130F903F4F6901712CA02EB12E19C0F701D491D5
S1130FA0C72DDD231CF06A2C8B2D02C0682C892DE3
S1130FB0DD0F0E94C706862D0E94C706CF5FC7308B
S1130FC081F7FFEFEF1AFF0AEC14FD04B9F0F70103
S1130FD03796C491CC0FCC0FD72DCC231CF06A2CA0
S1130FE08B2D02C0682C892DCC0F0E94C706862D3C
S1130FF00E94C706DF5FD63081F7D0CFCDE0812FC6
S11310000E94C706802F0E94C706C150C1F7929A5A
S1131010DF91CF911F910F91FF90EF90DF90CF90D0
S1131020BF90AF909F908F907F906F900895AF92F4
S1131030BF92CF92DF92EF92FF920F931F93CF93C1
S1131040DF93C82FD62FFA01690158014081442348
S113105081F07F018FEFE81AF80A850196016D2F60
S11310608C2F0E949607C85FF70141917F014111BF
S1131070F4CFDF91CF911F910F91FF90EF90DF900C
S1131080CF90BF90AF900895BB9AC39A0E94CB06AD
S11310908FEF9FEF0E948A070FEF1FEF20E030E0F1
S11310A040E650E060E080E00E941708FFCFEE0FBA
S11110B0FF1F0590F491E02D0994F894FFCFF2
S11110BE48656C6C6F20576F726C64210000E3
S9030000FC
