:100000000C942A000C9447000C9447000C94470071
:100010000C9447000C9447000C9447000C94470044
:100020000C9447000C9447000C9447000C944B022E
:100030000C9420020C9447000C9447000C94470049
:100040000C9447000C9447000C9447000C94470014
:100050000C94470011241FBECFE5D4E0DEBFCDBF16
:1000600011E0A0E6B0E0E0EAF5E002C005900D92F4
:10007000AC39B107D9F711E0ACE9B1E001C01D928C
:10008000A23AB107E1F70E9483020C94CE020C94CD
:10009000000084B7806884BF84B7806884BF13BEC3
:1000A0001FBC1EBC15BC8FEF8ABB87BB81BB14BABB
:1000B0001BBA85BB12BA18BA83E389B910BC1BB846
:1000C00088E98AB986E880BD5D9878940895982F6C
:1000D000907F98BBC29A0000C29890E024E0880FFD
:1000E000991F2A95E1F788BBC29A0000C29887E160
:1000F00096E00197F1F700C000000895982F907FD7
:1001000098BB98B3956098BB0000C29890E034E02B
:10011000880F991F3A95E1F788BB88B3856088BB43
:100120000000C29887E196E00197F1F700C0000057
:10013000089580E30E94670088E20E9467008CE0D7
:100140000E946700089581E00E94670087E196E0C1
:100150000197F1F700C000000895EF92FF92CF934E
:10016000DF93E82EE7017E01F92EE70102C00E942D
:100170007E0089918A30D9F7DF91CF91FF90EF907F
:1001800008951F93182F82958F708A3008F0895F29
:10019000805D0E947E00812F8F708A3008F0895F19
:1001A000805D0E947E001F91089590919C01EBED6F
:1001B000F0E0E90FF11D80839F5F90939C01809197
:1001C0009C018F7780939C010895EF92FF92CF93CB
:1001D000DF93E82EE7017E01F92EE70102C00E94BD
:1001E000D50089918A30D9F7DF91CF91FF90EF90B8
:1001F00008959598949A0E94A30080E690E00E944A
:10020000AD000895979A9598949A0E94A30087E666
:1002100090E00E94AD0008959091A101923151F0BB
:10022000933118F49430C1F40DC0983539F09C35F1
:1002300099F40CC0843091F482E00BC0853071F4E5
:1002400083E007C0823051F481E003C0833031F491
:1002500084E08093A10108951092A10108951F9355
:100260001092A1010E94A3008EE690E00E94AD00D2
:100270008091A001805D0E947E0088EA0E94670054
:1002800010E0E0919E01F0E0E55AFE4F808184325B
:10029000F1F09091A101E0919E01F0E0E55AFE4F4E
:1002A000808189278093A10190919E01E92FF0E040
:1002B000E55AFE4F80819F5F90939E010E947E00D1
:1002C00080919E018F7380939E011F5FDACF809192
:1002D0009E018F5F80939E0180919E018F7380931A
:1002E0009E01812F0E940C018091A101882341F081
:1002F00080E20E947E008091A101805D0E947E00CC
:100300001F910895FF920F931F93CF93DF93F82EC1
:10031000EB01959A949897988DE790E00E94E500FC
:100320008DE00E94D5005498559A0E94A30088E859
:1003300090E00E94AD0088EA0E94670000E010E0B3
:100340001AC00F5F1F4F0436110509F470C0809169
:10035000A001882339F08091A00181508093A001F1
:100360000E942F018FEF90E7A2E081509040A040C3
:10037000E1F700C000008091A101813011F71092D7
:10038000A10185E990E00E94E50005C00E94D5002A
:1003900089910E947E0088818A30C1F78DE00E9499
:1003A000D5005498559A8FEF90E7A2E08150904085
:1003B000A040E1F700C000009F2D913019F48FE9B3
:1003C00090E002C085EB90E00E94E5008AE10E9487
:1003D000D5005498559AC0E0D0E01CC02196C43690
:1003E000D10529F18091A101833009F18091A0010B
:1003F000882339F08091A00181508093A0010E9450
:100400002F018FEF90E7A2E081509040A040E1F7EC
:1004100000C000008091A101813001F70E94A3007B
:1004200086EC90E00E94AD0021E030E002C020E0C8
:1004300030E0C901DF91CF911F910F91FF90089596
:100440001F920F920FB60F9211248F939F93EF93E9
:10045000FF9380919D01E82FF0E0E552FF4F9081DE
:100460009CB98F5F80939D0180919D018F778093D0
:100470009D0190919C0180919D01981711F45598D0
:10048000549A7894FF91EF919F918F910F900FBEA6
:100490000F901F9018951F920F920FB60F92112474
:1004A0008F939F93EF93FF938CB18D3089F480915C
:1004B000A0018F5F8093A00180919F01E82FF0E061
:1004C000E55AFE4F94E290838F5F80939F010CC0AA
:1004D0008A3079F090919F01E92FF0E0E55AFE4FC4
:1004E00080839F5F90939F0180919F018F73809382
:1004F0009F017894FF91EF919F918F910F900FBE84
:100500000F901F9018950E94490080EB82BB0E94BB
:1005100099008FEF94E4A3E381509040A040E1F76D
:1005200000C000000E94A30081E06EEC70E00E9419
:100530008201009711F40E9402018FEF94E4A3E37B
:1005400081509040A040E1F700C000000E94F900F7
:1005500097988091A0018823B1F08091A0018150EB
:100560008093A0010E942F018091A101823049F463
:1005700081E06EEC70E00E948201009711F40E940D
:1005800002011092A10183B380FDE3CF80E06EEC05
:1005900070E00E9482010E94F900DBCFF894FFCF47
:1005A00052656164790A004572726F720A004D6586
:1005B000737320696E204255463A200A0041542B3D
:1005C000434D47463D310A0053656E64696E6720AE
:1005D000746F3A0A0041542B434D47533D0A00447F
:1005E000657669636520726561647920746F207730
:1005F0006F726B0A0048656C6C6F2E2042757474C4
:100600006F6E20310A0053656E6465640A002B31F9
:100610003233343536373839390A000000000000EB
:1006200000000000000000000000000000000000CA
:1006300000000000000000000000000000000000BA
:1006400000000000000000000000000000000000AA
:10065000000000000000000000000000000000009A
:10066000000000000000000000000000000000008A
:10067000000000000000000000000000000000007A
:10068000000000000000000000000000000000006A
:100690000000000000000000000000240000000036
:1006A000000000000000000000000000000000004A
:1006B000000000000000000000000000000000003A
:1006C000000000000000000000000000000000002A
:0C06D0000000000000000000000000001E
:00000001FF
