:100000000C94F6010C9413020C9413020C9413023A
:100010000C9413020C9413020C9413020C9413020C
:100020000C9413020C9413020C9413020C942002EF
:100030000C9413020C9413020C9413020C941302EC
:100040000C9413020C9413020C9413020C941302DC
:100050000C941302000000000000000004040404DB
:10006000000400000A0A0A00000000000A0A1F0A31
:100070001F0A0A00040F140E051E040018190204BA
:10008000081303000C12140814120D000C040800CD
:10009000000000000204080808040200080402022C
:1000A000020408000004150E150400000004041FDB
:1000B00004040000000000000C0408000000001F01
:1000C0000000000000000000000C0C000001020411
:1000D000081000000E11131519110E00040C040471
:1000E00004040E000E11010204081F001F02040286
:1000F00001110E0002060A121F0202001F101E014B
:1001000001110E000608101E11110E001F0102043D
:10011000080808000E11110E11110E000E11110F1A
:1001200001020C000001020408100000000C0C0089
:100130000C040800020408100804020000001F005C
:100140001F00000008040201020408000E11010251
:10015000040004000E11010D15150E000E111111F1
:100160001F1111001E11111E11111E000E11101071
:1001700010110E001C12111111121C001F10101E64
:1001800010101F001F10101E101010000E1110175D
:1001900011110E001111111F111111000E04040490
:1001A00004040E000702020202120C0011121418BD
:1001B000141211001010101010101F00111B151533
:1001C0001111110011111915131111000E11111136
:1001D00011110E001E11111E101010000E11111120
:1001E00015120D001E11111E141211000F10100E09
:1001F00001011E001F040404040404001111111164
:1002000011110E0011111111110A04001111111117
:1002100015150E0011110A040A1111001111110A0D
:10022000040404001F01020408101F000E0808083F
:1002300008080E00110A1F041F0404000E02020227
:1002400002020E00040A110000000000000000007D
:1002500000001F00080400000000000000000E0164
:100260000F110F0010101E1111111E0000000E10B2
:1002700010110E0001010D1311110F0000000E11DD
:100280001F100E000609081C08080800000F1111B5
:100290000F010E00101016191111110004000C04AA
:1002A00004040E000200060202120C0010101214C8
:1002B000181412001808080808081C0000001A1575
:1002C00015111100000016191111110000000E1176
:1002D00011110E0000001E111E10100000000F1161
:1002E0000F010100000016191010100000000E1080
:1002F0000E011E0008081C08080906000000111164
:1003000011130D0000001111110A04000000111159
:1003100011150A000000110A040A11000000111151
:100320000F010E0000001F0204081F000000000063
:1003300000000000000000000000000000000000BD
:1003400000000000000000000000000000000000AD
:1003500007C00FE00C601830183018301830183013
:1003600018300C600FE007C0000000000000000023
:100370000380038001800180018001800180018071
:100380000180018003C003C00000000000000000E5
:1003900007F007F0014003600360063007F00FF834
:1003A0000C180C183E3E3E3E00000000000000000D
:1003B0000FE00FF00630063007E007F006380618A9
:1003C000061806380FF00FE00000000000000000E3
:1003D00007D80FF81C3838183000300030003008CB
:1003E000380C1C380FF007E00000000011241FBE7D
:1003F000CFE5D4E0DEBFCDBF10E0A0E6B0E0E8E995
:10040000FFE002C005900D92AC39B107D9F721E0A9
:10041000ACE9B0E001C01D92A232B207E1F70E9440
:1004200024070C94CA070C940000E091A100EF5F30
:10043000EF77E093A100F0E0EE55FF4F8083089541
:100440001F920F920FB60F9211242F933F934F9349
:100450005F936F937F938F939F93AF93BF93EF932C
:10046000FF938CB180939C0091E090939D000E943B
:100470001502FF91EF91BF91AF919F918F917F9165
:100480006F915F914F913F912F910F900FBE0F9001
:100490001F901895CF93C82F892F0E9466078C2F25
:1004A0000E946607CF910895C4980895C49A08954C
:1004B000C3980895C39A08950E94540280E00E9450
:1004C00066070895CF93C82F0E9458020E945402D5
:1004D0008C2F0E9466070E945A02CF91089587B31D
:1004E0008C6187BB0E9456020E945D0780E00E94DB
:1004F00066070895CF93DF93C82FD62F89ED0E940A
:10050000620280E18D0F0E9466070E9458020E94DD
:1005100054028C2F0E9466070E945A020E945C02BD
:10052000C82F0E9456028C2FDF91CF910895BF9261
:10053000CF92DF92EF92FF920F931F93CF93DF93AF
:1005400000D000D000D0CDB7DEB71C8283E98D8308
:1005500081E48E83CE0101966C017E0194E0E90E68
:10056000F11C0FEF10E0B12C1F5F612F83ED0E9493
:100570007A02F60181936F01F70191917F0189134E
:100580000B2D133089F780E690E00E948A0789815D
:100590000E94860782E790E00E948A078A810E9473
:1005A000860782E790E00E948A078B810E94860777
:1005B00082E790E00E948A07802F26960FB6F89473
:1005C000DEBF0FBECDBFDF91CF911F910F91FF9086
:1005D000EF90DF90CF90BF900895B99AC19A0E9492
:1005E00097020E9497020E9497022FEF80E792E005
:1005F000215080409040E1F700C0000081E00E945F
:1006000062022FEF81EE94E0215080409040E1F7AC
:1006100000C0000081E10E9462020E9456022FEF9A
:100620008EE595E0215080409040E1F700C0000049
:100630008FEC0E94620280E00E9466078BE80E94B5
:10064000660780E30E9466078DEE0E94620287E6DD
:100650000E94660783E00E94660782E10E946607A7
:1006600081E80E94660788EE0E94620285E80E9487
:10067000660780E10E9466078AE70E9466078BECA6
:100680000E94620289E30E9466078CE20E9466076C
:1006900080E00E94660784E30E94660782E00E9471
:1006A000660787EF0E94620280E20E9466078AEE78
:1006B0000E94620280E00E94660780E00E94660756
:1006C00080EC0E9462028BE10E94660781EC0E942E
:1006D000620280E10E94660785EC0E9462028FE35D
:1006E0000E9466078CE30E94660787EC0E94620204
:1006F00087EB0E94660786E30E94620288E00E9400
:1007000066078AE30E94620285E50E94660781EB24
:100710000E94620280E00E9466078BE10E946607E9
:1007200086EB0E9462028AE00E94660782EA0E94CB
:10073000660782EF0E94620280E00E94660786E2FE
:100740000E94620281E00E94660780EE0E946202BF
:100750008FE00E9466078AE20E94660788E20E9494
:10076000660788E00E9466078EE00E94660788E0C0
:100770000E94660784E50E94660789EA0E94660770
:1007800083E40E9466078AE00E9466078FE00E9469
:10079000660780E00E94660780E00E94660780E0AE
:1007A0000E94660780E00E94660781EE0E94620256
:1007B00080E00E94660785E10E94660787E10E944B
:1007C000660787E00E94660781E10E94660786E06F
:1007D0000E9466078BE20E94660786E50E94660714
:1007E0008CE30E94660785E00E94660780E10E9414
:1007F00066078FE00E9466078FE30E9466078FE31B
:100800000E9466078FE00E9466070895C29A8FE3F0
:100810009CE90197F1F700C00000C2989FEF2DEE10
:1008200082E0915020408040E1F700C00000C29A71
:100830009FE72AE186E0915020408040E1F700C028
:100840000000089581E10E9462022FE789EA93E0A7
:10085000215080409040E1F700C0000089E20E94F2
:10086000620208950E946F020E9406040E94ED0237
:100870000E9422040E94560208950F931F93CF9363
:10088000DF938C01EB018AE20E946202C8010E94A0
:100890004A02CE010E944A02DF91CF911F910F912F
:1008A00008950F931F93CF93DF938C01EB018BE29D
:1008B0000E946202C8010E944A02CE010E944A02BE
:1008C000DF91CF911F910F910895CF93DF93EB01AB
:1008D000BC010E943D04BE01CE010E945104DF9183
:1008E000CF910895CF93DF93EA010E9465048CE2D3
:1008F0000E946202CE010E944A02DF91CF910895C8
:100900008F929F92AF92BF92CF92DF92EF92FF921F
:100910000F931F93CF93DF93FC015B01E9019A01D1
:10092000DE010E94BB076B017C01C5010197C80F66
:10093000D91FBF0161507109640F751FCF010E945B
:100940003D04BE01C5010E9451048CE20E94620276
:10095000C114D104E104F10481F0812C912C5401E3
:10096000C8010E944A028FEF881A980AA80AB80A9A
:100970008C149D04AE04BF0499F7DF91CF911F91B1
:100980000F91FF90EF90DF90CF90BF90AF909F902E
:100990008F9008950F931F938C0120E431E040EF76
:1009A00050E060E070E080E090E00E9480041F91E1
:1009B0000F910895CF92DF92EF92FF920F931F93C2
:1009C000CF93DF93EC016B018A0179014817590736
:1009D00028F4982F8D2FEA01092F182F003481E079
:1009E000180760F5C03481E0D80710F0C0E4D1E00A
:1009F000B801CE010E943D04B601C6010E94510417
:100A00008CE20E9462020C1B1D0BF9F0C0E0D0E0EA
:100A1000C7010E944A022196C017D107C9F715C025
:100A200060E471E080E491E00E943D04B601C601FB
:100A30000E9451048CE20E94620207C0C03481E02F
:100A4000D80770F700E411E0D3CFDF91CF911F9169
:100A50000F91FF90EF90DF90CF900895EF92FF926B
:100A60000F931F93CF93DF9379014617570728F40D
:100A7000362F272FBA01432F522F8A01403F5105AD
:100A800010F00FEE10E0EB01603F710510F0CFEEBB
:100A9000D0E0BC010E943D04B801CE010E94510487
:100AA0008CE20E9462020C1B1D0B49F0C0E0D0E0FA
:100AB000C7010E944A022196C017D107C9F7DF91EA
:100AC000CF911F910F91FF90EF9008952F923F9239
:100AD0004F925F926F927F928F929F92AF92BF924E
:100AE000CF92DF92EF92FF920F931F93CF93DF93FA
:100AF0004C013B01190100271127041B150BE801CC
:100B0000CC0FDD1F2296C12CD12C2601440C551C84
:100B10007301EC18FD085701A40CB51C9101A50147
:100B2000B701C401801B910B0E942E059101A50104
:100B3000B701C401800F911F0E942E05CC16DD065F
:100B4000BCF08FEFC81AD80A83E0480E511C4C0E37
:100B50005D1E88279927801B910B8C159D0549F4F4
:100B60000C171D0754F06C0180E0C82FD82F01C06E
:100B70002E010C171D075CF401C06C010F5F1F4FA5
:100B8000E801CC0FDD1F2196C40DD51D01C0E20187
:100B9000101611060CF0B9CFDF91CF911F910F9174
:100BA000FF90EF90DF90CF90BF90AF909F908F908D
:100BB0007F906F905F904F903F902F9008952F926D
:100BC0003F924F925F926F927F928F929F92AF92DD
:100BD000BF92CF92DF92EF92FF920F931F93CF932A
:100BE000DF93CDB7DEB728970FB6F894DEBF0FBE00
:100BF000CDBF2A01390121E0E216D1F032E0E31243
:100C0000B4C04B0140E2049F90011124F901E45D5E
:100C1000F0406F019B01205F3F4F3A832983AC0175
:100C2000485F5F4F5C834B838D839E83212C91C0F3
:100C30007B0110E0000F111F000F111F000F111F8B
:100C40000C5A10406B0158E0C50ED11C282E392ECD
:100C50000F2EF7E08F2EF02D912C56012DC0F801AC
:100C6000849190E0098002C0959587950A94E2F7F7
:100C700080FF06C0A201B701C6010E94720405C030
:100C8000A301B701C6010E94720429813A81215053
:100C900031093A8329833FEFC31AD30A49815A8124
:100CA0004F3F5F4FE1F69FEFE91AF90A0F5F1F4FC1
:100CB000EA14FB0409F459C0C22CD32C89829A820D
:100CC000CECFF60184913F8090E0032C02C0959531
:100CD00087950A94E2F780FF06C0A201B401C8011B
:100CE0000E94720405C0A301B401C8010E947204ED
:100CF000F501849190E002C0959587953A94E2F7CA
:100D000080FF06C0A201B401C7010E94720405C0A1
:100D1000A301B401C7010E9472042F8138852150BC
:100D2000310938872F833FEFE31AF30A0F5F1F4F14
:100D30004F8158854F3F5F4F09F0C3CF9FEF891A0E
:100D4000990AE2E0CE0ED11C29813A8182169306DF
:100D500061F056013FEFA31AB30AEB80FC800D81CE
:100D60001E8147E04F832886ACCF28960FB6F894B3
:100D7000DEBF0FBECDBFDF91CF911F910F91FF90CE
:100D8000EF90DF90CF90BF90AF909F908F907F902B
:100D90006F905F904F903F902F9008953F924F92A9
:100DA0005F926F927F928F929F92AF92BF92CF92FB
:100DB000DF92EF92FF920F931F93CF93DF936C011B
:100DC000EB012A013901F8011E2D0081002351F1A8
:100DD0008E2C912C880C991C880C991C880C991CC1
:100DE0005F018FEFA81AB80A33243394F12CC6019F
:100DF000880D991D20919E0030919F00281739077A
:100E000018F46C01C32DDF2DE12E9301A201BE0168
:100E1000C6010E94DF05C80DD91DF50101915F01D2
:100E20000111E5CFDF91CF911F910F91FF90EF90CE
:100E3000DF90CF90BF90AF909F908F907F906F90FA
:100E40005F904F903F90089560E875E280E090E0F9
:100E50000E946B070E94320480E098EF0E94CA044F
:100E60002FEF37E042E350E064E670E088E790E07F
:100E70000E942E0520EE3FEF42E350E064E670E072
:100E800088E790E00E94DA0420EE37E044E150E089
:100E900068EC70E088EC90E00E946605EE24E39434
:100EA0000CE810E020EE37E040E058EF61E170E040
:100EB0008AE090E00E94CE06FFCF87B3806B87BBAD
:100EC000C69A8CE58DB981E08EB908958FB9779B6C
:100ED000FECF8FB108959B01AC0160E271EA87E01B
:100EE00090E00E949907DA01C9010197A109B109AF
:100EF000892F9A2FAB2FBB2780BD215029B91BB852
:100F00008AB188698AB986E880BD08955D9BFECF65
:100F10008CB90895CF93DF93EC018881882331F059
:100F200021960E94860789918111FBCFDF91CF9195
:100F30000895A1E21A2EAA1BBB1BFD010DC0AA1F1A
:100F4000BB1FEE1FFF1FA217B307E407F50720F032
:100F5000A21BB30BE40BF50B661F771F881F991FAD
:100F60001A9469F760957095809590959B01AC01F6
:100F7000BD01CF010895A29FB001B39FC001A39FFF
:100F8000700D811D1124911DB29F700D811D1124C2
:080F9000911D0895F894FFCFB4
:100F980049442054465420446973706C61793A0D71
:100FA8000A002D2D2D2D2D2D2D2D2D2D2D2D2D2DB9
:100FB8002D2D2D2D2D2D2D2D2D0D0A0068656C6CD8
:0C0FC8006F20776F726C642121212100E2
:00000001FF
