S01B00004C43445F7369706C655F6F7065726174696F6E2E737265638A
S11300000C945C000C9471000C9471000C947100BD
S11300100C9471000C9471000C9471000C94710098
S11300200C9471000C9471000C9471000C94710088
S11300300C9471000C9471000C9471000C94710078
S11300400C9471000C9471000C9471000C94710068
S11300500C9471000C9471000C9471000C94710058
S11300600C9471000C94710041A042A1E045A3A43A
S1130070A5A64BA74D484FA8504354A9AA58E1AB95
S1130080ACE2ADAEADAFB0B161B2B3B4E365B6B797
S1130090B8B9BABBBCBD6FBE7063BF79E478E5C0C4
S11300A0C1E6C2C3C4C5C6C7CBFEE1E820D0EEE4B6
S11300B0E8EDF3212121000011241FBECFEFD8E089
S11300C0DEBFCDBF11E0A0E0B1E0E8EDF2E002C098
S11300D005900D92AC30B107D9F70E9459010C94E8
S11300E06A010C9400008AB1806F8AB98BB18F7059
S11300F08BB908955A9A82E08A95F1F700C05A980C
S11301000895CF938AB18F708AB98BB1806F8BB900
S1130110599A5A9A00000000C9B15A980000000088
S11301200E947A0000000000CC239CF35998CF91E0
S11301300895CF93DF93D82F0E9473009D2F92953B
S11301409F70CD2FCF7090FD5C9A969590FD5D9A2F
S1130150969590FD5E9A969509F05F9A0E947A00B2
S11301600E947300D0FD5C9A8C2F869580FD5D9A69
S1130170869580FD5E9A869509F05F9A0E947A00C2
S11301808AB18F708AB98BB18F708BB9DF91CF919F
S11301900895CF93C82F0E9481008C2F0E9499004C
S11301A0CF910895CF93C82F0E948100589AC03CE4
S11301B030F0E0E4EC0FF0E0E859FF4FC4918C2FED
S11301C00E9499005898CF910895613009F4805C99
S11301D080680E94C9000895CF93DF93EC01862FB5
S11301E0642F0E94E5008881882331F021960E94C3
S11301F0D20089918111FBCFDF91CF9108950F93A4
S11302001F93CF938C01862F642F0E94E5009801E1
S1130210F8018491882369F0C0E0F90184910E9477
S1130220D200CF5F98012C0F311DF90194919111E7
S1130230F4CFCF911F910F910895CF932FEF80E7C3
S113024092E0215080409040E1F700C000008AB164
S113025087608AB98BB1887F8BB90E947300C3E031
S11302608BB180638BB90E947A008FE097E201978B
S1130270F1F700C00000C15099F70E9481000E946C
S113028073005D9A0E947A0088E20E94C9008CE0A3
S11302900E94C90086E00E94C90082E00E94C90051
S11302A081E00E94C900CF9108958FEF8AB91BB8ED
S11302B008950E9455010E941D0141E060E080E024
S11302C091E00E94EC0040E061E088EA90E00E9446
S10B02D0FF00FFCFF894FFCFFB
S10F02D848656C6C6F20576F726C6400FA
S9030000FC
