S0150000557361727442617369634C69622E7372656307
S11300000C942A000C9447000C9447000C9447006D
S11300100C9447000C9447000C9447000C94470040
S11300200C9447000C9447000C9447000C94540023
S11300300C9447000C9447000C9447000C94470020
S11300400C9447000C9447000C9447000C94470010
S11300500C94470011241FBECFE5D4E0DEBFCDBF12
S113006010E0A0E6B0E0E0EDF1E002C005900D92F2
S1130070AC36B107D9F720E0ACE6B0E001C01D9280
S1130080A03FB207E1F70E947E000C94E6000C94B6
S11300900000E0916F00EF5FEF77E0936F00F0E016
S11300A0E059FF4F808308951F920F920FB60F926D
S11300B011242F933F934F935F936F937F938F9369
S11300C09F93AF93BF93EF93FF938CB180936C0096
S11300D091E090936D000E944900FF91EF91BF91D0
S11300E0AF919F918F917F916F915F914F913F91CC
S11300F02F910F900FBE0F901F90189560E875E236
S113010080E090E00E94890080E690E00E94A800D0
S1130110FFCF9B01AC0160E271EA87E090E00E94AE
S1130120C400DA01C9010197A109B109892F9A2FE5
S1130130AB2FBB2780BD215029B91BB88AB1886970
S11301408AB986E880BD08955D9BFECF8CB9089579
S11301500F931F93CF938C01FC018081882351F06E
S1130160C0E00E94A400CF5FF801EC0FF11D808174
S11301708111F7CF8DE00E94A4008AE00E94A400C0
S1130180CF911F910F910895A1E21A2EAA1BBB1BB8
S1130190FD010DC0AA1FBB1FEE1FFF1FA217B3074F
S11301A0E407F50720F0A21BB30BE40BF50B661F65
S11301B0771F881F991F1A9469F760957095809529
S11301C090959B01AC01BD01CF010895F894FFCF38
S10F01D048656C6C6F20576F726C640003
S9030000FC
