S00F0000504346383537342E7372656364
S11300000C942A000C9447000C9447000C9447006D
S11300100C9447000C9447000C9447000C94470040
S11300200C9447000C9447000C9447000C94470030
S11300300C9447000C9447000C9447000C94470020
S11300400C9447000C9447000C9447000C94470010
S11300500C94470011241FBECFE5D4E0DEBFCDBF12
S113006010E0A0E6B0E0E8E0F3E002C005900D92F5
S1130070AE38B107D9F720E0AEE8B0E001C01D9278
S1130080AF38B207E1F70E9457010C9482010C9437
S1130090000080E280B9089584EA86BF06B607FEB0
S11300A0FDCF089583B984E886BF06B607FEFDCF69
S11300B00895CF93DF93C82FD62F0E944C008D2F25
S11300C00E9452008C2F0E94520084E986BFDF9167
S11300D0CF910895CF93C82F90918E00892F84607B
S11300E080938E006EE470E090E00E94590085E8F1
S11300F08A95F1F700008C2F8295807F90918E0075
S1130100892B6EE470E090E00E94590080918E008B
S11301108B7F80938E006EE470E090E00E94590023
S113012085E88A95F1F70000CF910895CF93C82F01
S113013061110BC080918E008E7F80938E006EE4DF
S113014070E090E00E9459000BC090918E00892FBE
S1130150816080938E006EE470E090E00E9459000C
S11301608C2F82958F700E946A008C2F0E946A00E7
S1130170CF91089561E00E94960008956130710561
S113018069F038F06230710579F06330710591F0EF
S1130190089560E080680E9496000895805C60E0A5
S11301A080680E94960008958C5E60E080680E94DA
S11301B0960008958C5A60E080680E949600089525
S11301C08FE295E70197F1F700C0000083E00E94F9
S11301D06A008FE39FE10197F1F700C0000083E01C
S11301E00E946A0087EC90E00197F1F700C00000DC
S11301F083E00E946A008FEC97E00197F1F700C05A
S1130200000082E00E946A008FEC97E00197F1F70A
S113021000C0000060E088E20E9496008FEC97E046
S11302200197F1F700C0000060E08CE00E949600A6
S11302308FEC97E00197F1F700C0000060E086E0E2
S11302400E9496008FEC97E00197F1F700C0000040
S113025080918E00886080938E006EE470E090E060
S11302600E94590080918E008D7F80938E006EE4F1
S113027070E090E00E945900089560E081E00E94DF
S1130280960087EB9BE00197F1F700C0000008950A
S1130290CF93DF93EC018881882331F021960E946B
S11302A0BA0089918111FBCFDF91CF9108950E940B
S11302B049000E94E0000E943D0160E070E080E09F
S11302C00E94BE0080E690E00E94480161E070E078
S11302D082E00E94BE0083E790E00E94480162E051
S11302E070E084E00E94BE008CE790E00E94480128
S11302F063E070E086E00E94BE0085E890E00E9422
S10B03004801FFCFF894FFCF80
S113030848656C6C6F20576F726C642053616E691A
S1130318612100537472696E6720320053747269E4
S11103286E67203300537472696E67203400D0
S9030000FC
