S019000070726F6A6563745F315F494C49393334312E7372656376
S11300000C942A000C9447000C9447000C9447006D
S11300100C9447000C9447000C9447000C94470040
S11300200C9447000C9447000C9447000C94470030
S11300300C9447000C9447000C9447000C94470020
S11300400C9447000C9447000C9447000C94470010
S11300500C94470011241FBECFE5D4E0DEBFCDBF12
S113006010E0A0E6B0E0E6E3FFE002C005900D92E8
S1130070A836B107D9F720E0A8E6B0E001C01D9288
S1130080A037B207E1F70E94A1040C9499070C94DD
S1130090000012BA8FEF81BB8FE187BB0895C1982E
S11300A0C29AC49882BBC398C39AC49A0895C19A49
S11300B0C29AC49882BBC398C39AC49A089582BB57
S11300C0C398C39A0895CF93C82FC498C1980E9427
S11300D05F0011BAC19A25E82A95F1F70000C29889
S11300E08DE08A95F1F7000060B3C29A862F90E004
S11300F0A0E0B0E0BA2FA92F982F8827C298EDE08E
S1130100EA95F1F7000020B3C29A822BBA2FA92FE7
S1130110982F8827C298FDE0FA95F1F7000020B3E4
S1130120C29A822BBA2FA92F982F8827C2982DE024
S11301302A95F1F7000020B3C29ABC01CD01622BCD
S1130140CF3E71F4B82FA72F962F8827C298EDE0E1
S1130150EA95F1F7000020B3C29ABC01CD01622BED
S1130160C49A2FEF21BBEBE2F1E03197F1F700C025
S11301700000CF910895C49AC39AC29AC0988FE997
S11301809FE00197F1F700C00000C09AC49881E095
S11301900E944F0083E0C398C39A8150E1F7C49A48
S11301A00895CF93C82F86E30E944F00C130B1F069
S11301B028F0C23019F1C33089F13FC088E40E94AD
S11301C0570080EF90E090936F0080936E0080E47E
S11301D091E090936D0080936C002FC088E20E94A0
S11301E0570080E491E090936F0080936E0080EF5D
S11301F090E090936D0080936C001FC088E80E948B
S1130200570080EF90E090936F0080936E0080E43D
S113021091E090936D0080936C000FC088EE0E9473
S1130220570080E491E090936F0080936E0080EF1C
S113023090E090936D0080936C00CF910895AF92FD
S1130240BF92CF92DF92EF92FF920F931F93CF93BF
S1130250DF93182F092F6A017B01C92FD82FC49867
S1130260C1988CE20E945F00C19A802F0E945F00B7
S1130270812F0E945F0081E0C81AD108E108F108CB
S1130280D701C601689415F8B695A79597958795F3
S11302901694D1F79C010117B9F05C0100E143C049
S11302A0892FC398C39AC398C39AC398C39AC3980F
S11302B0C39AC398C39AC398C39AC398C39AC3985A
S11302C0C39A815071F701C090E12150310940F780
S11302D09C2D9F738FEF890F9923A9F1C398C39A1B
S11302E0C398C39A8150D0F72EC0102F8C2F0E9430
S11302F05F008D2F0E945F008C2F0E945F008D2F66
S11303000E945F008C2F0E945F008D2F0E945F006F
S11303108C2F0E945F008D2F0E945F00115031F7D7
S113032081E0A81AB108A114B104F9F68C2D8F73D9
S113033051F0C82E8C2F0E945F008D2F0E945F0009
S1130340CA94C110F7CFC49ADF91CF911F910F9136
S1130350FF90EF90DF90CF90BF90AF9008950F93F0
S11303601F93CF93DF93C42FD52F162F072FC49835
S1130370C1980E945F00C19A82E08A95F1F700C09B
S1130380802F0E945F0082E08A95F1F700C0812FE0
S11303900E945F0082E08A95F1F700C08D2F0E94D1
S11303A05F0082E08A95F1F700C08C2F0E945F0005
S11303B0C49ADF91CF911F910F910895CF92DF924C
S11303C0EF92FF920F931F93CF93DF938B016A01F8
S11303D0E901C498AC0160E070E0BA0155274427F4
S11303E0E12CF12C4C295D296E297F298AE20E9497
S11303F0AF01A80160E070E0BA0155274427CE019F
S1130400A0E0B0E0482B592B6A2B7B2B8BE20E9497
S1130410AF01C49ADF91CF911F910F91FF90EF909C
S1130420DF90CF900895CF93DF93EC0120916C007F
S113043030916D002150310940916E0050916F0050
S11304404150510960E070E080E090E00E94DE01DC
S113045020916E0030916F00A0916C00B0916D00FE
S11304600E94B204AB01BC01CE010E941F01DF91C6
S1130470CF910895CF93DF93992374F1772364F197
S113048020916E0030916F008217930728F5209118
S11304906C0030916D0062177307F0F4D52FC42FF0
S11304A0C49820916C0030916D0021503109409125
S11304B06E0050916F00415051090E94DE01C498B2
S11304C0C1988CE20E945F00C19A8D2F0E945F0048
S11304D08C2F0E945F00C49ADF91CF9108952F92D0
S11304E03F924F925F926F927F928F929F92AF92C0
S11304F0BF92CF92DF92EF92FF920F931F93CF930D
S1130500DF9300D000D000D0CDB7DEB76C014B0133
S11305105E834D833C832B8381E090E07C01E41A6D
S1130520F50A1A01319421943108220C331CBA01C2
S1130530680D791DA901C6010E943A02B4012D81FA
S11305403E81621B730B4B815C81C6010E943A029F
S11305504B815C81B4018D819E818C0D9D1D0E9417
S11305603A024B815C81B401C601ED81FE818E1B90
S11305709F0B0E943A022D813E81121613060CF045
S113058075C000E010E066246394712CFF2054F0E1
S11305908D819E8101979E838D8392E0290E311C6B
S11305A0E20CF31C0F5F1F4FE2E06E0E711CE60CB1
S11305B0F71C5601A00EB11E4B815C812D813E813A
S11305C0280D391D3A832983B901C5010E943A02D5
S11305D02601401A510A4B815C8169817A81C201EA
S11305E00E943A024B815C81C401ED81FE818E1B25
S11305F09F0B9A838983BC01C5010E943A024B81F7
S11306005C8169817A81C2010E943A025801A80C76
S1130610B91C4B815C81B5014D805E804C0C5D1C26
S1130620C2010E943A024B815C81B50196018D8121
S11306309E81281B390B3A832983C9010E943A02FF
S11306405401A01AB10A4B815C81B501C2010E9418
S11306503A024B815C81B50189819A810E943A02F8
S1130660ED81FE810E171F070CF490CF26960FB66E
S1130670F894DEBF0FBECDBFDF91CF911F910F91D4
S1130680FF90EF90DF90CF90BF90AF909F908F90AE
S11306907F906F905F904F903F902F900895CF93ED
S11306A0DF93CDB7DEB72A970FB6F894DEBF0FBE3F
S11306B0CDBF0E9449000E94BB002FEF89E698E15C
S11306C0215080409040E1F700C0000083ED0E947B
S11306D06300609368007093690080936A0090934C
S11306E06B00C49880916B008F9380916A008F9304
S11306F0809169008F93809168008F9380E690E0E9
S11307009F938F93CE0101969F938F930E94C10470
S113071081E00E944F008BEC0E944F0089E30E940D
S113072057008CE20E94570080E00E94570084E347
S11307300E94570082E00E9457008FEC0E944F00F5
S113074080E00E94570081EC0E94570080E30E94E1
S1130750570088EE0E944F0085E80E94570080E011
S11307600E94570088E70E9457008AEE0E944F00BB
S113077080E00E94570080E00E9457008DEE0E94A6
S11307804F0084E60E94570083E00E94570082E1F4
S11307900E94570081E80E94570087EF0E944F0093
S11307A080E20E94570080EC0E944F0080E10E948A
S11307B0570081EC0E944F0080E10E94570085ECB5
S11307C00E944F008EE30E94570088E20E94570067
S11307D087EC0E944F0086E80E94570080E00E9448
S11307E0D1008AE30E944F0085E50E94570081EB07
S11307F00E944F0080E00E94570088E10E94570049
S113080086EB0E944F0088E00E94570082E80E9415
S1130810570087E20E94570082EF0E944F0080E059
S11308200E94570086E20E944F0081E00E94570018
S113083080EE0E944F008FE00E94570081E30E94E7
S113084057008BE20E9457008CE00E9457008EE014
S11308500E94570088E00E9457008EE40E945700CF
S113086081EF0E94570087E30E94570087E00E94AF
S1130870570080E10E94570083E00E9457008EE0F9
S11308800E94570089E00E94570080E00E945700B0
S113089081EE0E944F0080E00E9457008EE00E948B
S11308A0570084E10E94570083E00E94570081E1D1
S11308B00E94570087E00E94570081E30E9457007E
S11308C081EC0E94570088E40E94570088E00E944F
S11308D057008FE00E9457008CE00E94570081E38C
S11308E00E94570086E30E9457008FE00E94570041
S11308F081E10E944F002FE789EA93E02150804074
S11309009040E1F700C0000089E20E944F008CE2B1
S11309100E9457002FE789EA93E0215080409040DD
S1130920E1F700C000000FB6F894DEBF0FBECDBFE4
S11309302A960FB6F894DEBF0FBECDBFDF91CF91DC
S113094008950E944F0380EE9FEF0E94130220E05F
S113095038EF49E150E064E670E084E690E00E94FC
S11309606F02FFCFA29FB001B39FC001A39F700D80
S1130970811D1124911DB29F700D811D1124911DA3
S11309800895AEE0B0E0E7ECF4E00C9470070D8954
S11309901E8986E08C831A8309838FEF9FE79E83E9
S11309A08D83AE01475E5F4F6F89788DCE010196CE
S11309B00E94E4042F813885F801E20FF31F1082AE
S11309C02E96E4E00C948C07ACE0B0E0EAEEF4E0A0
S11309D00C9462077C016B018A01FC011782168268
S11309E0838181FFBDC1CE0101964C01F701938142
S11309F0F60193FD859193FF81916F01882309F49A
S1130A00ABC1853239F493FD859193FF81916F01D8
S1130A10853229F4B70190E00E94CC06E7CF512C2F
S1130A20312C20E02032A0F48B3269F030F4803293
S1130A3059F0833269F420612CC08D3239F080334F
S1130A4039F4216026C02260246023C0286021C0BC
S1130A5027FD27C030ED380F3A3078F426FF06C062
S1130A60FAE05F9E300D1124532E13C08AE0389EA5
S1130A70300D1124332E20620CC08E3221F426FD59
S1130A806BC1206406C08C3611F4206802C088361D
S1130A9041F4F60193FD859193FF81916F018111DA
S1130AA0C1CF982F9F7D9554933028F40C5F1F4F2E
S1130AB0FFE3F9830DC0833631F0833771F083355A
S1130AC009F05BC022C0F801808189830E5F1F4F4B
S1130AD044244394512C540115C03801F2E06F0EA4
S1130AE0711CF801A080B18026FF03C0652D70E061
S1130AF002C06FEF7FEFC5012C870E94C1062C0155
S1130B0083012C852F77222E17C03801F2E06F0E57
S1130B10711CF801A080B18026FF03C0652D70E030
S1130B2002C06FEF7FEFC5012C870E94B6062C012F
S1130B302C852068222E830123FC1BC0832D90E08A
S1130B4048165906B0F4B70180E290E00E94CC0642
S1130B503A94F4CFF50127FC859127FE81915F013A
S1130B60B70190E00E94CC0631103A94F1E04F1A9C
S1130B7051084114510471F7E5C0843611F08936E7
S1130B8039F5F80127FF07C0608171818281938163
S1130B900C5F1F4F08C060817181072E000C880B09
S1130BA0990B0E5F1F4F2F76722E97FF09C09095F9
S1130BB08095709561957F4F8F4F9F4F2068722E5F
S1130BC02AE030E0A4010E940407A82EA81844C01B
S1130BD0853729F42F7EB22E2AE030E025C0F22F8B
S1130BE0F97FBF2E8F36C1F018F4883579F0B4C080
S1130BF0803719F0883721F0AFC02F2F2061B22E33
S1130C00B4FE0DC08B2D8460B82E09C024FF0AC029
S1130C109F2F9660B92E06C028E030E005C020E181
S1130C2030E002C020E132E0F801B7FE07C0608185
S1130C307181828193810C5F1F4F06C06081718135
S1130C4080E090E00E5F1F4FA4010E940407A82ECD
S1130C50A818FB2DFF777F2E76FE0BC0372D3E7F25
S1130C60A51450F474FE0AC072FC08C0372D3E7EF1
S1130C7005C0BA2C372D03C0BA2C01C0B52C34FFE3
S1130C800DC0FE01EA0DF11D8081803311F4397E1F
S1130C9009C032FF06C0B394B39404C0832F86788E
S1130CA009F0B39433FD13C030FF06C05A2CB314BB
S1130CB018F4530C5B18B32CB31468F4B70180E236
S1130CC090E03C870E94CC06B3943C85F5CFB314E6
S1130CD010F43B1801C0312C34FF12C0B70180E37B
S1130CE090E03C870E94CC063C8532FF17C031FD62
S1130CF003C088E790E002C088E590E0B7010CC02B
S1130D00832F867859F031FF02C08BE201C080E264
S1130D1037FD8DE2B70190E00E94CC06A51438F4AB
S1130D20B70180E390E00E94CC065A94F7CFAA94CE
S1130D30F401EA0DF11D8081B70190E00E94CC0618
S1130D40A110F5CF332009F451CEB70180E290E031
S1130D500E94CC063A94F6CFF7018681978102C0AF
S1130D608FEF9FEF2C96E2E10C947E07FC01059037
S1130D70615070400110D8F7809590958E0F9F1F99
S1130D800895FC016150704001900110D8F78095DE
S1130D9090958E0F9F1F08950F931F93CF93DF930A
S1130DA0FB01238121FD03C08FEF9FEF28C022FFA9
S1130DB016C046815781248135814217530744F474
S1130DC0A081B1819D012F5F3F4F318320838C939C
S1130DD0268137812F5F3F4F3783268310C0EB0175
S1130DE0092F182F0084F185E02D0995892BE1F650
S1130DF08E819F8101969F838E83812F902FDF9117
S1130E00CF911F910F910895FA01AA27283051F12B
S1130E10203181F1E8946F936E7F6E5F7F4F8F4F27
S1130E209F4FAF4FB1E03ED0B4E03CD0670F781F86
S1130E30891F9A1FA11D680F791F8A1F911DA11D6B
S1130E406A0F711D811D911DA11D20D009F46894A4
S1130E503F912AE0269F11243019305D3193DEF64C
S1130E60CF010895462F4770405D4193B3E00FD002
S1130E70C9F7F6CF462F4F70405D4A3318F0495DED
S1130E8031FD4052419302D0A9F7EACFB4E0A695D0
S1130E909795879577956795BA95C9F700976105F2
S1130EA0710508959B01AC010A2E06945795479548
S1130EB037952795BA95C9F7620F731F841F951F3D
S1130EC0A01D08952F923F924F925F926F927F924E
S1130ED08F929F92AF92BF92CF92DF92EF92FF9246
S1130EE00F931F93CF93DF93CDB7DEB7CA1BDB0BF2
S1130EF00FB6F894DEBF0FBECDBF09942A88398897
S1130F0048885F846E847D848C849B84AA84B9849D
S1130F10C884DF80EE80FD800C811B81AA81B981A9
S1130F20CE0FD11D0FB6F894DEBF0FBECDBFED01BD
S1090F300895F894FFCFC0
S10B0F3630782530386C5800B6
S9030000FC
