S01500003278536572766F707269766F642E73726563C2
S11300000C942A000C9449000C94C1000C944700F1
S11300100C9447000C9447000C9417010C942C0189
S11300200C9441010C9447000C9447000C94470035
S11300300C9447000C9447000C9447000C94470020
S11300400C9447000C9447000C9447000C94470010
S11300500C94470011241FBECFE5D4E0DEBFCDBF12
S113006010E0A0E6B0E0EEEFF2E002C005900D92E1
S1130070A236B107D9F720E0A2E6B0E001C01D9294
S1130080A636B207E1F70E9472010C947D010C942C
S113009000001F920F920FB60F9211242F938F938B
S11300A09F93809922C080916000909161008B346D
S11300B09105D8F02FEF80E792E0215080409040E6
S11300C0E1F700C0000080916000909161008C32E3
S11300D0914008F04EC080916000909161000A96B2
S11300E0909361008093600044C0809B21C0809104
S11300F06000909161008D329140D0F48091600055
S1130100909161008B34910598F08FEF90E722E095
S1130110815090402040E1F700C0000080916000D1
S1130120909161000A97909361008093600021C0D0
S113013080916000909161008D32914050F08091E7
S11301406000909161000A97909361008093600031
S113015010C080916000909161008B34910548F447
S113016080916000909161000A9690936100809361
S113017060009F918F912F910F900FBE0F901F9051
S113018018951F920F920FB60F9211240F900FBE65
S11301900F901F901895811124C0613069F028F0E8
S11301A0623089F06330B1F0089585B7826085BF0D
S11301B08BB780648BBF089585B78C7F85BF8BB761
S11301C080648BBF089585B7816085BF8BB78064D9
S11301D08BBF089585B7836085BF8BB780648BBF61
S11301E00895813019F5613069F028F0623089F0A2
S11301F06330B1F0089585B7886085BF8BB7806898
S11302008BBF089585B7837F85BF8BB780688BBF0D
S1130210089585B7846085BF8BB780688BBF0895C8
S113022085B78C6085BF8BB780688BBF08951F929C
S11302300F920FB60F9211248F939F93D8988091A9
S11302406000909161009BBD8ABD9F918F910F903A
S11302500FBE0F901F9018951F920F920FB60F921A
S113026011248F939F93D998809164009091650095
S113027099BD88BD9F918F910F900FBE0F901F90D5
S113028018951F920F920FB60F9211248F939F937C
S1130290D89AD99A809162009091630001969093C4
S11302A06300809362009F918F910F900FBE0F9017
S11302B01F9018958AB383608ABB089584EC99E0F3
S11302C097BD86BD8BE490E09BBD8ABD99BD88BD7A
S11302D089B78C6189BF8FB582608FBD8EB58B6500
S11302E08EBD08950E945A010E945E0161E080E083
S11102F00E94CB0078940000FECFF894FFCF5C
S10502FE4B00AF
S9030000FC
