:1000000041C3189518951895189518951895189531
:100010001895189518951895189518951895189578
:10002000189518951895189518951200A0005A075C
:100030001000B200000046D3A02F912F80E003C033
:10004000F1D0A6958395883028F4A0FB092FC6F738
:10005000CBD0F7CFE3E041C335D3A02F90E080E0D1
:1000600007C096950A2FFBD0002309F0906883956E
:100070008830B8F3092FE3E030C323D3D801922F9F
:1000800088E0192F05E5D7DF04C0192F0D91D3DFC4
:100090008A958823D1F7E4E01FC30FD3D801622EDD
:1000A000432E81E0552491E0142D00EFC4DF06C0FB
:1000B000B9D08395990F11F491E01196813478F5B8
:1000C000042DCDD0702E042DCAD0772021F000232E
:1000D00011F00FEF25C0172D102769F0772029F0B8
:1000E000FD010081092B008314C0092F00951C918C
:1000F00010231C930EC0861599F3681630F4092F4F
:1001000000951C9110231C9303C00C91092309F442
:10011000582E0C910923042D59F266D0CACF052D13
:10012000E8E0D6C2C8D2D801622F932E3A018824C3
:1001300080E00EC0082F10E043E0B1D2FD01E00FD7
:10014000F11FE20FF81D80822395283098F38395E4
:10015000861710F420E0F9CF4424CD0155249C01EA
:1001600048E050E08C01C3D2092D9FD0002311F448
:100170000FEF28C0392D252D8C018FDF502E9C01CB
:100180004394042D10E043E08AD2CD01800F911FEB
:10019000552031F780E005C0F3010081039500830D
:1001A0008395841570F4082F10E043E078D29D0108
:1001B000200F311F8901B8D0002371F38824839464
:1001C000EFCF082DEAE082C2102F109521B3212332
:1001D00021BB009512B3102312BB0CE717E00150AE
:1001E0001040E9F700C008951FB7F89421B3202B01
:1001F00021BB202F209532B3322332BB2BE12A952D
:10020000F1F700C0202F209531B3322331BB009588
:1002100022B3202322BB0AEC00C00A95E9F70000B4
:100220001FBF08951FB7F89421B3202B21BB202FA7
:10023000209532B3322332BB2DEB00C02A95E9F76B
:1002400000C0202F209531B3322331BB009522B35B
:10025000202322BB01E30A95F1F71FBF08952FB7B2
:10026000F89411B3102B11BB102F109532B331231A
:1002700032BB1BE11A95F1F700C0102F109531B376
:10028000312331BB102F109532B3312332BB1BE227
:100290001A95F1F700C010B310230DEA00C00A95BB
:1002A000E9F700C02FBF012F08952FB7F89411B3BD
:1002B000102B11BB102F109532B3312332BB4CE7FA
:1002C00057E041505040E9F700C0102F109531B36E
:1002D000312331BB102F109532B3312332BB1DEDCA
:1002E00000C01A95E9F700C010B31095102344E63A
:1002F00056E041505040E9F700C02FBF012F08954C
:1003000028E006C038E113271695106806952A954F
:10031000222341F0312F3170402F4170342791F763
:100320001695F4CF012F0895CCD1D80110E080E0CC
:1003300004C00D91E5DF102F83958730D0F30C9129
:10034000101711F400E001C001E0E4E0C5C1B9D12B
:10035000D80110E080E004C00D91D2DF102F83950A
:100360008830D0F30C91101711F400E001C001E0C7
:10037000E4E0B2C1005D67D008958A93802F00E069
:1003800002C003958A508A30E0F7002311F0005D27
:1003900001C000E258D0805D082F55D089910895A2
:1003A00092D1802F00E0843610F090E304C090E2F8
:1003B00002C0039584568436E0F7002311F0005DF7
:1003C00001C000E240D000E002C003958A508A30AC
:1003D000E0F7002311F0005D01C0092F34D0805DEB
:1003E000082F31D0E2E07AC115ED1A95F1F700003F
:1003F000AE981BB31F70007F102B1BBBAF9A0AE097
:100400000A95F1F700C0AF98089515ED1A95F1F728
:100410000000AE982BB32F70102F107F212B2BBB19
:10042000AF9A1AE01A95F1F700C0AF9802952BB376
:100430002F70007F202B2BBBAF9A0AE00A95F1F7B3
:1004400000C0AF98089515ED1A95F1F70000AE9A27
:100450002BB32F70102F107F212B2BBBAF9A1AE0DC
:100460001A95F1F700C0AF9802952BB32F70007F5B
:10047000202B2BBBAF9A0AE00A95F1F700C0AF988A
:1004800008950AB3006F0ABB0BB3006F0BBB04B334
:10049000006D04BB05B3006D05BBAC980FEF13EF07
:1004A00021E0015010402040E1F700C0000000E3CF
:1004B0009BDF0FE31CE901501040E9F700C000008A
:1004C00000E392DF0FE91FE001501040E9F700C0A0
:1004D000000000E389DF00E287DF08E296DF08E042
:1004E00094DF0CE092DF01E090DF0FE31FE10150A9
:1004F0001040E9F700C0000006E087DF0895E1D072
:10050000D80102C00D919FDF0C910023D9F7E4E0E0
:10051000E3C001E07ADF0FE31FE101501040E9F78B
:1005200000C000000895CFD0239700E009830A831C
:1005300080E00883A6DFEDDF03E867DF00EA10E074
:10054000DEDF0EE862DF08EA10E0D9DF00E83CDE1B
:1005500003C009811A8171D0882399F400E00883CF
:10056000AE0130E822E002EB10E0DCDD902F0EEC73
:100570004CDF0881FFDE0881023019F4913009F068
:100580008FEF00EC42DFAE014F5F5F4F22EB30E0B8
:1005900000E81AD0013021F009811A814ED004C040
:1005A0000AEA10E0ACDF80E007EC2FDFAE014F5F1E
:1005B0005F4F2AEB30E000E807D0013051F60AEA3D
:1005C00010E09DDF80E0C8CF7AD02997A02FC90125
:1005D0002A016BDE2A2F8C0150DD1A2F04E42BDD5B
:1005E0000A2F3DDE0023E1F30A2F5FDE2A2F8C0164
:1005F00044DD1A2F0EEB1FDD80E008C00A2F2CDD32
:10060000FE0190E0E80FF91F008383958930B0F375
:100610008E019DDE002311F001E00CC0088110E086
:10062000F20100831183198100E020813181312B97
:10063000208331832996E6E04DC043D0D801B7FB33
:100640001EF00BE200DF05C00DE2FDDEA095B095C7
:10065000119644E08D0129D0802F843610F48DDE70
:1006600001C09EDE8A2F8F700EE2EDDE082F069508
:10067000869586958695080F7DDEE4E02DC0000006
:100680008895FECF0FE90DBF00E00EBFC0E8D0E0B7
:100690002CD0002309F047D046DFF1DFF0CF4A9598
:1006A0001AF0000F111FFBCF08954A951AF0169506
:1006B0000795FBCF08959A928A927A926A925A92FB
:1006C0004A92BA93AA939A938A93089599848884B4
:1006D0007F806E805D804C80BB81AA8199818881FA
:1006E000F0E0EC0FFD1FEF01089501E00895E9DF50
:1006F000D80104C0F90161919F016D93BA01415085
:100700005040672BB9F7E4E0E7CF20E006D0E9F7E7
:100710000895259102D0E9F708952D9301501040D6
:10072000202F212B08958AE290E0FC01059114917D
:10073000FC013296A591B491FC0134962591349137
:10074000422F432B19F0F901E4DF01C0DEDF0696EA
:1007500010E08633910748F3089553656E736F7206
:0C07600073004E0020206E6F74202000FB
:00000001FF
:00000001FF
