S01700004D61747269785F4B6579426F6172642E7372656328
S11300000C9438000C9455000C9455000C94FA0090
S11300100C94E5000C9424010C9436010C945500C6
S11300200C940C010C9457000C9455000C9455003E
S11300300C9455000C9455000C9455000C945500E8
S11300400C9455000C9455000C9455000C94D3005A
S11300500C9455005C015F01630167016B016F0142
S113006073018A018D019101950199019D01A101FD
S113007011241FBECFE5D4E0DEBFCDBF10E0A0E663
S1130080B0E0ECE4F6E002C005900D92AE3AB107A0
S1130090D9F720E0AEEAB0E001C01D92A83BB20758
S11300A0E1F70E9481020C9424030C9400001F9237
S11300B00F920FB60F9211242F933F934F935F9398
S11300C06F937F938F939F93AF93BF93CF93EF934C
S11300D0FF9384B38F7884BB85B3806785BB84B377
S11300E08F6084BB85B3807F85BB8AE090E00E94EB
S11300F07C029C9902C0C0E001C0C3E09D9BC1E0AA
S11301009E9BC2E084B3806784BB85B38F7885BB34
S113011084B3807F84BB85B38F6085BB8AE090E025
S11301200E947C02989902C080E001C084E0999BFF
S113013081E09A9B82E09B9B22C0C33011F1843002
S113014011F41FC083E0482F50E021E030E002C0EA
S1130150220F331F8A95E2F783B390E0822393231F
S1130160892BD1F3FA01EE0FFF1FE40FF51FEC0FFB
S1130170F11DE05AFF4F808180936C0002C0C330B0
S113018009F7FF91EF91CF91BF91AF919F918F911B
S11301907F916F915F914F913F912F910F900FBE7F
S11301A00F901F9018951F920F920FB60F92112463
S11301B08F939F9392B381E0892782BB9F918F9104
S11301C00F900FBE0F901F9018951F920F920FB6AD
S11301D00F9211248F939F9392B382E0892782BB5D
S11301E08091B10084BD9F918F910F900FBE0F90AD
S11301F01F9018951F920F920FB60F9211248F9390
S11302009F9392B382E0892782BB9F918F910F9035
S11302100FBE0F901F9018951F920F920FB60F925A
S113022011248F939F9392B384E0892782BB80919A
S1130230AF009091B0009DBD8CBD9F918F910F90A8
S11302400FBE0F901F9018951F920F920FB60F922A
S113025011248F939F9392B384E0892782BB9F914B
S11302608F910F900FBE0F901F9018951F920F92B1
S11302700FB60F9211248F939F9392B384E0892732
S113028082BB9F918F910F900FBE0F901F90189576
S11302908093B200F894613059F593B793BF99B73E
S11302A0916099BF422F50E047305105F8F4FA01AC
S11302B0E65DFF4F0C941E0393B793BF17C093B72B
S11302C0916093BF13C093B7926093BF0FC093B76D
S11302D0936093BF0BC093B7946093BF07C093B769
S11302E0956093BF03C093B7966093BF82BF2FC03E
S11302F0623069F583B7886083BF89B7826089BF3C
S1130300822F90E087309105F8F4FC01EF5CFF4FF9
S11303100C941E0383B783BF17C083B7816083BF68
S113032013C083B7826083BF0FC083B7836083BF6A
S11303300BC083B7846083BF07C083B7856083BF66
S113034003C083B7866083BF4093AE004CBF7894EC
S113035008958AB3806F8ABB8BB38F708BBB08956B
S1130360DA9A82E08A95F1F700C0DA980895CF937B
S11303708AB38F708ABB8BB3806F8BBBD99ADA9A9E
S113038000000000C9B3DA98000000000E94B00128
S113039000000000CC239CF3D998CF910895CF930B
S11303A0DF93D82F0E94A9019D2F92959F70CD2F86
S11303B0CF7090FDDC9A969590FDDD9A969590FD10
S11303C0DE9A969509F0DF9A0E94B0010E94A90175
S11303D0D0FDDC9A8C2F869580FDDD9A869580FD74
S11303E0DE9A869509F0DF9A0E94B0018AB38F7075
S11303F08ABB8BB38F708BBBDF91CF910895CF9362
S1130400C82F0E94B7018C2F0E94CF01CF9108956D
S1130410CF93C82F0E94B701D89A8C2F0E94CF0186
S1130420D898CF910895623031F0633031F0613063
S113043029F4805C03C08C5E01C08C5A80680E94E1
S1130440FF010895CF93C82F862F642F0E941302B3
S11304508C2F0E940802CF910895CF93DF93EC0173
S1130460862F642F0E9413028881882331F02196FD
S11304700E94080289918111FBCFDF91CF910895E9
S1130480CF932FEF80E792E0215080409040E1F736
S113049000C000008AB387608ABB8BB3887F8BBBA4
S11304A00E94A901C3E08BB380638BBB0E94B0019F
S11304B08FE097E20197F1F700C00000C15099F76F
S11304C00E94B7010E94A901DD9A0E94B00188E24E
S11304D00E94FF018CE00E94FF0186E00E94FF0160
S11304E082E00E94FF0181E00E94FF01CF91089504
S11304F081E00E94FF010895009711F00197F1F740
S113050008950E94400240E060E08DE690E00E9481
S11305102D0223E040E061E080E00E9448010E9457
S11305209202FDCF80916C00803209F486C08A3239
S113053001F1833209F463C06091B300E62FF0E067
S1130540EC54FF4F808341E08AE20E9422028091B2
S1130550B3008F5F8093B3002FE78AE196E02150C8
S113056080409040E1F700C0000080E280936C007E
S113057008958091B3008430D9F581E09091B4005E
S1130580913309F080E09091B500923309F48F5FC4
S11305909091B600933309F48F5F9091B700943330
S11305A009F48F5F843039F442E061E083E790E03E
S11305B00E942D02089542E061E082E890E00E94EA
S11305C02D021092B30080E280936C00E4EBF0E023
S11305D010821182128213822FEF89E698E1215052
S11305E080409040E1F700C000000E947802089526
S11305F043E061E081E990E00E942D0208951092A9
S1130600B30080E280936C00E4EBF0E0108211828E
S1130610128213820E94780243E061E085EA90E04E
S11306200E942D022FEF89E698E1215080409040EE
S1130630E1F700C000000E9478020895EE0FFF1F4A
S10F06400590F491E02D0994F894FFCF8C
S113064C3132333435363738392A30232048656C07
S113065C6C6F0050617373776F7264204F4B202062
S113066C200050617373776F7264204572726F72DD
S113067C004572726F7220212170617373776F72EF
S111068C642121210072657365742021210010
S9030000FC
